:020000040800F2
:10000000306E00202903000885750008856000080F
:10001000FD740008810D00083F90000800000000FA
:10002000000000000000000000000000690200085D
:10003000C325000800000000C5020008D58600089E
:100040004303000843030008430300084303000878
:100050004303000843030008430300084303000868
:10006000430300084303000843030008012100087C
:100070000D21000819210008252100083121000860
:100080003D21000843030008430300084303000820
:10009000850D0008430300084303000843030008DC
:1000A0004303000843030008430300084303000818
:1000B000C587000843030008D187000843030008F0
:1000C00043030008430300084303000843030008F8
:1000D000430300087D8E0008E98E00085D8F00084C
:1000E00043030008430300084303000843030008D8
:1000F00043030008430300084303000849210008A4
:1001000043030008430300084303000843030008B7
:10011000E98A0008018B0008430300084303000834
:10012000430300085521000861210008430300082B
:100130004303000843030008430300084303000887
:10014000ED0E0008430300084303000843030008C2
:10015000430300086D21000879210008ED8F000895
:100160004303000843030008430300084303000857
:100170004303000843030008430300080000000095
:10018000430300084303000800F002F800F05CF8A5
:100190000AA090E8000C82448344AAF10107DA45E2
:1001A00001D100F051F8AFF2090EBAE80F0013F0D8
:1001B000010F18BFFB1A43F001031847EC0F0100B1
:1001C0000C1001000A444FF0000C10F8013B13F032
:1001D000070408BF10F8014B1D1108BF10F8015BA0
:1001E000641E05D010F8016B641E01F8016BF9D193
:1001F00013F0080F1EBF10F8014BAD1C0C1B09D1EA
:100200006D1E58BF01F801CBFAD505E014F8016B5B
:1002100001F8016B6D1EF9D59142D6D370470000ED
:100220000023002400250026103A28BF78C1FBD8FF
:10023000520728BF30C148BF0B6070471FB50EF092
:1002400046F91FBD10B510BD00F0DCF91146FFF7EF
:10025000F5FF0BF09BF900F0FAF903B4FFF7F2FF9A
:1002600003BC00F0FDF900002C4B19680868B0E8E9
:10027000F04F80F30988BFF36F8F4FF0000080F3D9
:10028000118870470000000008480068006880F38B
:1002900008884FF0000080F3148862B661B6BFF39F
:1002A0004F8FBFF36F8F00DF00BF00BF08ED00E08E
:1002B000DFF80C00016841F470010160704700BF75
:1002C00088ED00E0EFF30980BFF36F8F134B1A68DE
:1002D0001EF0100F08BF20ED108A20E9F04F1060CB
:1002E00009B44FF0500080F31188BFF34F8FBFF374
:1002F0006F8F0DF0FFFB4FF0000080F3118809BCF9
:1003000019680868B0E8F04F1EF0100F08BFB0EC95
:10031000108A80F30988BFF36F8F7047601900203F
:10032000EFF30580704700000948804709480047FF
:10033000FEE7FEE7FEE7FEE7FEE7FEE7FEE7FEE795
:10034000FEE7FEE704480549054A064B70470000F2
:100350009D8700088901000830680020306E002069
:10036000306A0020306A002053EA020C00F06980F5
:100370002DE9F04B4FF00006002B1FBFB3FA83F5B9
:1003800003FA05F424FA05F65E4012BF1643B2FAEA
:1003900082F502FA05F4C5F120051EBF22FA05FC1C
:1003A00044EA0C04203556EA044C4FEA144418BFC2
:1003B000641C4FF000084FF00009904271EB030CF1
:1003C00039D3002919BFB1FA81F701FA07F6B0FA5B
:1003D00080F700FA07F6C7F120071EBF20FA07FCD6
:1003E00046EA0C062037B6FBF4FCA7EB0507103FE6
:1003F00007F01F0BCBF120060CFA0BFB2CFA06F6CC
:1004000044BFB3460026202FA4BF5E464FF0000B2A
:100410005BEA060C08BF4FF0010B19EB0B09ABFBB5
:10042000027C48EB0608C01B06FB02CC0BFB03CC8E
:1004300071EB0C01C1E70B46024641464846BDE858
:10044000F08B13B54FF000004FF00001AFF30080C8
:10045000BDE81C407047032A40F2308010F0030CC6
:1004600000F0158011F8013BBCF1020F624498BF07
:1004700011F801CB00F8013B38BF11F8013BA2F1A4
:10048000040298BF00F801CB38BF00F8013B11F01F
:10049000030300F02580083AC0F0088051F8043BBF
:1004A000083A51F804CBA0E80810F5E7121D5CBF2C
:1004B00051F8043B40F8043BAFF30080D20724BF5F
:1004C00011F8013B11F801CB48BF11F8012B24BFF3
:1004D00000F8013B00F801CB48BF00F8012B704742
:1004E00010B5203AC0F00B80B1E81850203AA0E8CF
:1004F0001850B1E81850A0E81850BFF4F5AF5FEA03
:10050000027C24BFB1E81850A0E8185044BF18C9B5
:1005100018C0BDE810405FEA827C24BF51F8043B5C
:1005200040F8043B08BF7047D20728BF31F8023BB0
:1005300048BF11F8012B28BF20F8023B48BF00F844
:10054000012B70474FF000020429C0F0128010F018
:10055000030C00F01B80CCF1040CBCF1020F18BF9F
:1005600000F8012BA8BF20F8022BA1EB0C0100F032
:100570000DB85FEAC17C24BF00F8012B00F8012B05
:1005800048BF00F8012B70474FF0000200B513463A
:1005900094469646203922BFA0E80C50A0E80C50A3
:1005A000B1F12001BFF4F7AF090728BFA0E80C5054
:1005B00048BF0CC05DF804EB890028BF40F8042B4D
:1005C00008BF704748BF20F8022B11F0804F18BFBA
:1005D00000F8012B704770477047704710B500F066
:1005E00009F8006810BD10B5044600F003F8046077
:1005F00010BD000000487047CC67002000487047DD
:10060000CC6700207546FFF7F9FFAE460500694646
:10061000534620F00700854618B020B5FFF792FE3C
:10062000BDE820404FF000064FF000074FF00008F3
:100630004FF0000B21F00701AC46ACE8C009ACE874
:10064000C009ACE8C009ACE8C0098D46704710B5D8
:100650000446AFF300802046BDE81040FFF7FDBD23
:1006600001491820ABBEFEE72600020070470000DB
:1006700030B505460C46002D0CD0022C0AD9064890
:10068000A11E4288284602F025FA291901F8020D18
:10069000000A487030BD00000C00002030B505464F
:1006A0000C46002D0AD0022C08D9601E81B2FF2210
:1006B000284602F027FA291901F8010C30BD000084
:1006C0002DE9F04104462DED088BF0EE60AAB0EE66
:1006D000619AF0EE429AB0EE62AA0D46164610EE0E
:1006E000100A0DF083FE9FED528B53EC182B0DF08A
:1006F0007FFD0DF04BFD0BEE100A1AEE900A0DF087
:1007000075FE53EC182B0DF073FD0DF03FFD0AEE56
:10071000900AFDEEC90A484FB0EE000A10EE900AAA
:10072000397B00B20AF018FFF0EE408AFDEEE90ACC
:10073000397BB0EE000A10EE900A00B20AF00CFF0E
:10074000B0EE409AFDEECA0A397BB0EE000A10EE18
:10075000900A00B20AF000FFB0EE408AB0EE4B0AF9
:1007600009F002F8DFED359A40EE298AB0EE6A0A08
:1007700008F0FAFFB0EE40AAB0EE4B0A08F072FFA4
:100780002AEE000A00EE699AB0EE6A0A08F06AFFE3
:10079000B0EE40AAB0EE4B0A08F064FF2AEE000A61
:1007A00000EE698AB0EE4B0A08F05CFF60EE289A12
:1007B000B0EE4B0A08F0D8FF48EE009AC4ED009A5C
:1007C000B0EE6A0A08F04EFF60EE099AB0EE6A0ACF
:1007D00008F0CAFF48EE409AC5ED009AB0EE4B0A09
:1007E00008F040FF20EE088AB0EE6A0A08F03AFFEF
:1007F00028EE008AB0EE4B0A08F0B6FF60EE288AB9
:10080000B0EE6A0A08F02EFF08EEC08AB0EE6A0A5F
:1008100008F0AAFF60EE098AB0EE4B0A08F022FF4A
:1008200008EE808A86ED008ABDEC088BBDE8F08179
:10083000514CDE0033DF913F281D00200AE81C41A7
:100840002DE9F05F07462DED028B0FA8164699465D
:1008500090E80D100D46DDE90CABDDF84C800E99EB
:10086000FE4CD1ED000AC4ED130A90ED000A84EDB0
:10087000140A92ED000A84ED150A93ED000A84ED46
:10088000160A9CED000A84ED170A98ED000A84ED23
:10089000180AFDEEE00ADFF8C8839FEDF28A10EE39
:1008A000900A98F80C10B0EE480A00B20AF041FE27
:1008B00084ED130AD4ED140A98F80C10B0EE480A2F
:1008C000FDEEE00A10EE900A00B20AF032FE84ED6E
:1008D000140AD4ED150A98F80C10B0EE480AFDEE93
:1008E000E00A10EE900A00B20AF023FE84ED150A29
:1008F00094ED130A8AED000A94ED140A89ED000ABA
:1009000094ED150A8BED000AE06C0DF06FFD9FED84
:10091000D68B53EC182B0DF06BFC0DF037FCE0641C
:10092000206D0DF063FD53EC182B0DF061FC0DF004
:100930002DFC2065606D0DF059FD53EC182B0DF06A
:1009400057FC0DF023FC6065D4ED160A94ED170AF0
:1009500094ED181A20EE800A20EE010AB5EEC00AC6
:10096000F1EE10FA7DD0FDEEE00A98F80C10B0EE32
:10097000000A10EE900A00B20AF0EEFD84ED160AAD
:10098000D4ED170A98F80C10B0EE000AFDEEE00A5C
:1009900010EE900A00B20AF0DFFD84ED170AD4EDE4
:1009A000180A98F80C10B0EE000AFDEEE00A10EEFE
:1009B000900A00B20AF0D0FD84ED180AD4ED160AB0
:1009C00020EEA01AD4ED170A00EEA01A00EE001ACD
:1009D000B0EE410A0AF0DAFB84ED0C0AD4ED160AF7
:1009E00060EE802AC4ED162AD4ED170A20EE803A74
:1009F00084ED173AD4ED180A60EE803AC4ED183A47
:100A000094ED060AD4ED080A94ED052A94ED071A30
:100A100060EE201AB8EE004A42EE411A61EE841AE6
:100A2000C4ED0D1A62EE004A41EE204A24EE844ADB
:100A300084ED0E4A22EE022A00EE402A11EE012A2F
:100A400000EEE02A84ED0F2A63EE840A43EE420AA8
:100A5000C4ED100A22EE821A03EEE11A84ED111A97
:100A600000E019E063EE211A42EEC41AC4ED121A36
:100A700094ED132A94ED030A00EE202A84ED132A44
:100A8000D4ED140A40EE010AC4ED140AD4ED150A9F
:100A900040EE210AC4ED150A94ED050A84ED190A09
:100AA000D4ED060AC4ED1A0A94ED071A84ED1B1A58
:100AB000D4ED081AC4ED1C1A94ED132AF1EE602A45
:100AC00094ED153A62EE824AD4ED142AD4ED043A3C
:100AD000B0EE404A41EE624A41EEC34A04EEA34AF8
:100AE00084ED054AB0EE445A60EE024AB0EE604A28
:100AF00041EE034A41EEE24A04EEA34A84ED064A7F
:100B000060EE225AF0EE414A40EEC35A41EE825A5C
:100B100045EEA34AC4ED074A20EE030A00EEA20AFE
:100B200001EE420A40EE231AC4ED081A25EE050A2A
:100B300004EE040A04EEA40A01EEA10A0AF026FB60
:100B400084ED0C0AD4ED050A20EE802A84ED052AF6
:100B5000D4ED060A20EE801A84ED061AD4ED070AB9
:100B600060EE801AC4ED071AD4ED080A20EE800A60
:100B700084ED080A62EE020AB0EE008A284641EED1
:100B8000410A41EEE10A61EE881A40EE000A21EEC8
:100B9000800A62EE081A01EE810A08F04FFC94ED1B
:100BA000060AD4ED080A94ED071A20EE080A20EE92
:100BB000200AD4ED050A60EE880A00EEC10A84ED31
:100BC0001D0AF7EE000A40EE400A24487830F5EEA0
:100BD000C00AF1EE10FA04DBB1EEE01A80ED001A63
:100BE00003E0DFED230AC0ED000A3846D4ED1E0A0B
:100BF00008F024FC94ED050A94ED061A94ED072AFA
:100C000060EE000AD4ED081A304641EE010A21EEEA
:100C1000021A00EE211A42EE420A21EE080A41EEC3
:100C2000E10A08F00BFCD5ED000A9FED120A60EE18
:100C3000800AC5ED000AD7ED000A9FED0F1A60EE9D
:100C4000810AC7ED000AD6ED000A20EE800A86ED83
:100C5000000A0020BDEC028BBDE8F09F640200207A
:100C6000281D00200000FA44514CDE0033DF913F84
:100C700000000000DF2E6542DF2E65C22DE9F04F37
:100C800087B00646DDE910AB0F46904699460D2227
:100C900003A90C2006F032F99DF80D009DF80E1006
:100CA00040EA0121ADF800109DF80F009DF81020DA
:100CB00040EA0222ADF802209DF811009DF81230A2
:100CC00040EA0323ADF804309DF813009DF814406A
:100CD00040EA0424ADF806409DF815009DF8165032
:100CE00040EA0525ADF808509DF817009DF818C09A
:100CF00040EA0C20ADF80A00A9F80010AAF800207C
:100D0000ABF8003034803D80A8F8000007B0BDE8A3
:100D1000F08F000038B5044602226946222006F012
:100D2000C3F89DF801009DF8022040EA022001B2BC
:100D3000DFED100A10060CD5C1F30E0000EE100A0C
:100D4000B8EEC01A9FED0C0A01EE200A84ED000AED
:100D500038BD47F6FF708843401C00B200EE100A11
:100D6000B8EEC01A9FED050A01EE600A84ED000A94
:100D700038BD00000000003B000024C20000AE426D
:100D8000FEE70000014802F0BFBD0000A4230020E0
:100D90001CB50A88120A8DF800200A788DF8012007
:100DA0004A88120A8DF802208A788DF803208A88F2
:100DB000120A8DF804200A798DF80520CA88120AD3
:100DC0008DF8062089798DF8071001466A46024899
:100DD00000F08CF91CBD0000A423002070B505466E
:100DE0000C463B4840F20316A5F203114368B54296
:100DF0005FD020DC302D0AD010DC012D46D0032D31
:100E00004AD02E2D62D122462E21314898473148B2
:100E100022462946836BBDE870401847A5F58075CA
:100E2000013D3FD0012D51D12246BDE870404FF425
:100E30008171274818472848FF2919D00ADC04295E
:100E40003DD0FE2942D1D0F8CC272146BDE87040E4
:100E500022481047B1F5807F11D0A1F5807101398A
:100E600034D1D0F8C02D2146BDE870401C48104751
:100E7000D0F8C8292146BDE870401A481047D0F87C
:100E8000C42B2146BDE87040174810472246BDE8F4
:100E9000704001210E4818472246BDE870400321EA
:100EA0000B4818472246BDE8704040F2011108483F
:100EB000184722463146BDE870400548184722468B
:100EC000BDE8704040F207110148184770BD0000AE
:100ED0007C050020100300208C050020800B0020E2
:100EE000741100207C0D0020780F0020014802F0D2
:100EF0000BBD0000CC2300201CB50A88120A8DF817
:100F000000200A788DF801204A88120A8DF8022004
:100F10008A788DF803208A88120A8DF804200A79CD
:100F20008DF80520CA88120A8DF8062089798DF877
:100F3000071001466A46024800F0D8F81CBD0000C0
:100F4000CC23002030B440F20124264BA0F2012231
:100F5000A04220D011DC244A2E2853683BD0A0F5B3
:100F6000807001382BD001282FD0022838D10A46B2
:100F700030BC40F203111C481847012A10D0022A45
:100F800013D0042A16D0052A2AD11848D0F8B8213F
:100F900030BC20381047D3F8D82130BC1148104756
:100FA000D3F8D42330BC12481047D3F8D02530BC36
:100FB00010481047D3F8BC2F30BC0F4810470A46E2
:100FC00030BC40F20111084818470A4630BC4FF4C3
:100FD0008171054818470A4630BC2E21024818473F
:100FE00030BC70478C0500207C0500208C1500204B
:100FF00088070020840900207013002010B58AB0F3
:10100000154802F07FFD154802F07CFD0020049099
:1010100001210891069007910090019002900390A1
:1010200005900E24099469460B4802F061FB0A48BA
:1010300002F0C1FE0221084802F0CEFA059469468A
:10104000064802F055FB054802F0B5FE02210348B0
:1010500002F0C2FA0AB010BDA4230020CC23002065
:101060004178007841EA002070474179007941EAEF
:10107000002000B27047C178807841EA002000B2B9
:101080007047807970474179007941EA002000B2C9
:101090007047000070B512480024124D007E0128F0
:1010A00005D12C616C612C606C60AC60EC600E4E04
:1010B0000C490831D6F81402FFF71EFF0949D6F88B
:1010C000FC0DFFF719FF0749D6F80C061031FFF7A2
:1010D0005FFE2C616C612C606C60AC60EC6070BD7C
:1010E000C80400209C0100208C05002010B588B0A9
:1010F0000C4C0368A34205D00B4CA34202D0012044
:1011000008B010BD029100210491059108210691BB
:1011100001AB02A902F072FA08B10120F0E7002049
:10112000EEE7000000640040006800400281C180DA
:10113000704710F82C1F491CCAB2027041782C3835
:101140008A4205D980F82C10012180F840107047A0
:1011500090F840100129FAD1002180F84010704722
:1011600070B5044613462088884227D158781978EC
:10117000144D40EA01206E4200B2DFED110AB3EED9
:101180000E0A2A4631460AF017F884ED040AD87888
:101190009978FBEE040A40EA012000B2B3EE040A9B
:1011A0002A4631460AF008F884ED050A587919797B
:1011B00040EA01202083002084F82C0070BD00004C
:1011C000000000000083FFFF418881834189C183C3
:1011D00081890184704781888184C188C1840189A3
:1011E0000185C1894185704710B504460298618028
:1011F000A2806381A081E08940F0010020F002001C
:10120000E0812046FFF7E0FF2046BDE81040FFF7F1
:10121000E2BF10B500F01EF800F0CAFE00F00AFCB4
:10122000BDE8104000F0F0BE38B500246D4605EB77
:101230004400214601F074FC641CE4B2022CF6D395
:10124000BDF90000BDF90210884201D1002038BD6F
:10125000012038BD70B52DED028B874C6068018F81
:101260004187FFF7E1FF6168887000F0A9FB6168C2
:10127000088700F0ADFB606880ED0D0A00207F4913
:101280002423C21CC2EBC21201EB820203EB8005D5
:10129000B2F9022000EE102A6268B8EEC00A2A44B1
:1012A00082ED000A401CC0B20428EAD301F2F651D4
:1012B000B1F90000B1F9FC211044B1F9F823101A7A
:1012C000B1F9F425104400EE100A6268F8EEC00A85
:1012D000B5EE000A60EE800AFDEEE00A10EE900A1C
:1012E0001082B1F9FC01B1F90020801AB1F9F8239C
:1012F000801AB1F9F425104400EE900A6268F8EE05
:10130000E00A60EE800AFDEEE00A10EE900A5082DC
:10131000B1F90000B1F9FC211044B1F9F823B1F999
:10132000F41511440844404200EE900A6168F8EE5A
:10133000E00A20EE800ABDEEC00A10EE100AC88155
:10134000606890ED0D0A08F08DF96068B0F9101032
:1013500000EE901AF8EEE00A20EE208A90ED0D0AD9
:1013600008F002FA6068B0F9121000EE901AF8EE78
:10137000E00A00EEC08ABDEEC80A10EE101A4181E4
:10138000606890ED0D0A08F0EFF96068B0F9101090
:10139000494200EE901AF8EEE00A20EE208A90ED25
:1013A0000D0A08F05FF96068B0F9121000EE901AAB
:1013B000F8EEE00A00EE808ABDEEC80A10EE101AC0
:1013C00081812D499FED2E0A103981ED000AA1F18E
:1013D0003C009FED2C1A408800EE900AF8EE600A5F
:1013E00060EE810AC1ED020A274AD37A012B0BD1A4
:1013F000DFED260AC1ED000A00EE900AF8EE600A61
:1014000020EE800A81ED020A5078012803D19FED79
:10141000200A81ED000A6068C17801290ED11D49BA
:10142000097811B1012905D008E00021017000F010
:1014300081F903E00121017000F02EF860688178E5
:10144000012916D18188494281806068C18849425A
:10145000C18060684189494241816068818949420F
:1014600081816068018A494201826068418A4942FB
:101470004182BDEC028B70BD740000208C05002001
:101480000000FA4500409C45801A002000803B4641
:10149000000048448C0100202DE9F0412DED048B23
:1014A0009FED9A8A9A4A106830F9481F00EE101A88
:1014B000F8EEC00ADFED971A80EEA10A9FED962A9A
:1014C000B0EE481A00EE021AB0F9201000EE101A21
:1014D000B8EEC00AC0EE210AB0EE410A00EEC20A20
:1014E000B0F9181000EE901AB8EEE01AC1EE210A19
:1014F000B0EE481A00EE821AB0F9280000EE900A09
:10150000F8EEE02AC2EEA10A00EEC21A8348854E28
:10151000834F06F110058178D6ED001A686802291C
:101520003BD0012935D121EE800AC0EE020ABDEE82
:10153000E00A10EE101A818096ED000A696820EE2C
:10154000010AC0EE020ABDEEE00A10EE100AC880E1
:101550001068D6ED030A696890ED080A20EE200AAB
:10156000BDEEC00A10EE100A08817878012810D16B
:101570001068D6ED030A696890ED080A20EE200A8B
:10158000F2EE040A80EE201ABDEEC10A10EE100A37
:101590000881BDEC048BBDE8F08121EE800AC0EE2D
:1015A000020ABDEEE00A10EE101A818096ED000AE4
:1015B000696820EE010AC0EE020ABDEEE00A10EEF4
:1015C000100AC8806868B0F93800002800DC404282
:1015D000544C00EE100A3C3CF8EEC00A94ED050AAB
:1015E00094ED041A01EE200A84ED0B0A04F1300197
:1015F0000122081F08F0FAF894ED030AD4ED0C0A52
:1016000020EE200A84ED090A84ED0A0A94ED061AF8
:10161000B4EEC10AF1EE10FA01D284ED091A424A81
:1016200094ED090A82ED000AF0EE480AC2ED010AC3
:101630006968B1F93800002800DC404223789842FC
:1016400003DA94ED070A82ED010A00200881686838
:10165000B0F93800411D0A290CD900EE100A3248B1
:10166000B8EEC00A05F090FFBDEEC00A696810EE42
:10167000100A08816868B0F9041000EE101AB8EE7C
:10168000C08AB0F9061000EE101AF8EEC08AB0F960
:101690003800DFED260A00EE100AB8EEC00A20EE90
:1016A000200ADFED230A20EE209AB0EE490A07F067
:1016B000D9FF60EE089AB0EE490A08F055F848EEF6
:1016C000809A6968BDEEE90A10EE100A8880B0EED3
:1016D000490A07F0C7FF60EE288AB0EE490A08F011
:1016E00043F848EE408A6968BDEEE80A10EE100A39
:1016F000C880787901287FF44CAF96ED020A6968BA
:10170000BDEEC00A10EE100A088142E7000000009A
:10171000C804002000009643000025448C010020EE
:10172000801A002064000020D41800200000343DFE
:101730004DF38E3C2DE9F0412DED048B96488278D7
:10174000DFED961A984E974B06F11005944F1968E5
:1017500096ED000A9FED951A6868022A54D0012A76
:101760004ED1B1F90E1000EE901AF8EEE00A20EE1C
:10177000800AC0EE210ABDEEE00A10EE101A818048
:101780001868D6ED000A6968B0F90C0000EE100A7E
:10179000B8EEC00A20EE200AC0EE010ABDEEE00A53
:1017A00010EE100AC8801868D6ED000A6968B0F912
:1017B000080000EE100AB8EEC00A20EE200AC0EEC3
:1017C000010ABDEEE00A10EE100A088178780128BF
:1017D00016D11868D6ED000A6968B0F9080000EE65
:1017E000100AB8EEC00A60EE200A80EE810AF2EE1E
:1017F000040A80EE201ABDEEC10A10EE100A08811C
:10180000BDEC048BBDE8F0819FED698AB1F90E1043
:1018100000EE901AF8EEE00A20EE800AC0EE210AEF
:10182000BDEEE00A10EE101A81801868D6ED000AAD
:101830006968B0F90C0000EE100AB8EEC00A20EE9C
:10184000200AC0EE010ABDEEE00A10EE100AC880C0
:101850006868B0F93800002800DC4042524C00EEC5
:10186000100A3C3CF8EEC00A94ED050A94ED041A07
:1018700001EE200A84ED0B0A04F130010122081F59
:1018800007F0B4FF94ED030AD4ED0C0A20EE200A11
:1018900084ED090A84ED0A0A94ED061AB4EEC10A31
:1018A000F1EE10FA01D284ED091A424A94ED090AC8
:1018B00082ED000AF0EE480AC2ED010A6968B1F94A
:1018C0003800002800DC40422378984203DA94ED87
:1018D000070A82ED010A002008816868B0F9380023
:1018E000411D0A290CD900EE100A3248B8EEC00A90
:1018F00005F04AFEBDEEC00A696810EE100A0881C4
:101900006868B0F9041000EE101AB8EEC08AB0F999
:10191000061000EE101AF8EEC08AB0F93800DFEDBC
:10192000260A00EE100AB8EEC00A20EE200ADFED0B
:10193000230A20EE209AB0EE490A07F093FE60EEEB
:10194000089AB0EE490A07F00FFF48EE809A6968DE
:10195000BDEEE90A10EE100A8880B0EE490A07F0E1
:1019600081FE60EE288AB0EE490A07F0FDFE48EEDF
:10197000408A6968BDEEE80A10EE100AC8807879DE
:1019800001287FF43DAF96ED020A6968BDEEC00AFA
:1019900010EE100A088133E78C0100200000254476
:1019A000801A0020C804002064000020000025C424
:1019B00000000000D41800200000343D4DF38E3CA0
:1019C00008B50221684601F0ABF8BDF9000008BD7A
:1019D0001CB5002101A801F0A3F80321684601F01D
:1019E0009FF8BDF80400BDF80010401A00B2B0F531
:1019F000805F04DDA0F5F850FF3800B206E010F576
:101A0000805F03DA41F6FF71084400B200EE100A6D
:101A1000DFED050AB8EEC00A20EE200ADFED030A6A
:101A200020EE200A1CBD00000000343D4DF38E3C2A
:101A3000704700002DE9FF5FFE4C6068B0F90410AC
:101A4000B0F90A208A1A002A02DD4FF0010C01E0E9
:101A50004FEAE27CF74E4C3EA6F804C0B0F90620EF
:101A6000B0F90C30D31A002B02DD4FF0010801E071
:101A70004FEAE378A6F80680B0F90830B0F90E50C6
:101A80005D1B002D01DD012700E0EF173781EA4DD6
:101A9000142695F805B0E94DBBF1010F95F80390B8
:101AA000E44DD5F808A06D4603D000297EDD0B4635
:101AB000A7E0002901DD0F4600E04F42002A01DDCA
:101AC000944601E0C2F1000CBC44002B01DD1F462E
:101AD00000E05F42674400EE107AB8EEC00AB9F148
:101AE000000F47D01944494200EE901AF8EEE00A80
:101AF000CDED000AB0F90610B0F90820891A00EE01
:101B0000901AF8EEE00ACDED010AB0F90610B0F92E
:101B100008201144494200EE901AF8EEE00ACDED9B
:101B2000020AB0F90410B0F90800081A00EE900A91
:101B3000F8EEE00ACDED030ADAED000AF4EEC00A91
:101B4000F1EE10FA4CD2002005EB800106EB80028A
:101B5000D1ED000AA16880EE801AD1ED000A61681B
:101B6000114461EE200AC1ED000A401CC0B20428F5
:101B7000EAD354E111441944494200EE901AF8EEB8
:101B8000E00ACDED000AB0F90610B0F90420891A78
:101B9000B0F90820891A00EE901AF8EEE00ACDEDAF
:101BA000010AB0F90410B0F9062000E028E0891A13
:101BB000B0F90820891A00EE901AF8EEE00ACDED8F
:101BC000020AB0F90410B0F90620B0F90800114477
:101BD000081A00EE900AF8EEE00ACDED030AABE732
:101BE000002005EB800106EB800291ED000A6168A0
:101BF000114481ED000A401CC0B20428F1D30EE16B
:101C00004B42002A01DD934601E0C2F1000B5B4428
:101C100000EE103AF8EEC00AB9F1000F29D049429F
:101C200000EE101AB8EEC00A8DED000AB0F90610E9
:101C300000EE101AB8EEC00A8DED010AB0F90610D8
:101C4000494200EE101AB8EEC00A8DED020AB0F952
:101C5000041000EE101AB8EEC00A8DED030A9DEDD7
:101C6000000AB5EEC00AF1EE10FA2CDDB0EE401A13
:101C70002BE01144494200EE101AB8EEC00A8DED77
:101C8000000AB0F90610B0F90420891A00EE101A03
:101C9000B8EEC00A8DED010AB0F90410B0F90620C3
:101CA000891A00EE101AB8EEC00A8DED020AB0F9DA
:101CB0000410B0F90620114400EE101AB8EEC00A64
:101CC0008DED030ACBE7B1EE401A0CEB0801CA19FF
:101CD000524201EE902AF8EEE11A21EE211ADFEDD0
:101CE000581A01EE210A8DED000A9DED010AB5EEAC
:101CF000C00AF1EE10FA02DDB0EE401A01E0B1EEDA
:101D0000401AA8EB0C02D21B02EE102AB8EEC22A2F
:101D100021EE021A01EE210A8DED010A9DED020A63
:101D2000B5EEC00AF1EE10FA02DDB0EE401A01E0A5
:101D3000B1EE401AACEB0802D21B02EE102AB8EE4C
:101D4000C22A21EE021A01EE210A8DED020A9DED52
:101D5000030AB5EEC00AF1EE10FA02DDB0EE401A49
:101D600001E0B1EE401AC91B02EE101AB8EEC22A09
:101D700021EE021A01EE210A8DED030AB0F90800E6
:101D8000002800DC404200EE100A9AED001AB8EE7E
:101D9000C00A30EE200AB4EEC10AF1EE10FA27DDD7
:101DA000002005EB80016368D1ED001AB3F908103B
:101DB000002901DD0A4600E04A4200EE102AA2682E
:101DC000B8EEC00A30EE200A81EE801A00EE101A3A
:101DD000D2ED001A06EB8001B8EEC00A194411EEEC
:101DE000210A81ED000A401CC0B20428D9D316E0B4
:101DF000002005EB8001D1ED000A6168B1F90820EF
:101E000000EE102A06EB80021144B8EEC00A30EE54
:101E1000C00A81ED000A401CC0B20428E9D3606802
:101E2000084D90ED050AD5F8D81705F2F45088470B
:101E30000AE0000074000020801A00208C010020BD
:101E4000CDCCCC3D8C05002005F5806787EDED0AF3
:101E50006068D5F8D41990ED060A05F5FE6088474C
:101E600005F5006686ED6C0A6068D5F8D01B90ED2C
:101E7000070A05F6EC10884786EDEB0A6068D5F88E
:101E8000CC1D90ED080A05F6E830884705F540605E
:101E900080ED6A0AD7EDED0A95F814261248FDEE9A
:101EA000E00A10EE901A20F81210D6ED6C0A95F8A0
:101EB0001028FDEEE00A10EE901A20F81210D6ED70
:101EC000EB0A95F80C2AFDEEE00A10EE901A20F8C5
:101ED0001210BDEEC00A95F8082C10EE101A20F86A
:101EE0001210BDE8FF9F00005C0000202B4909682C
:101EF000498E00EE101AB8EE400ADFED290A294A91
:101F000010EE101ADFED281A914201DDB0EE610AE1
:101F100080EE211A10EE101A244B994201DA21EEBC
:101F2000011A10EE101A914201DA61EE200AB0F99E
:101F30000010002900DC4942B0F90220002A00DC30
:101F400052420A44B0F90410002900DC49420A4414
:101F5000B0F90610002900DC4942114400EE101AC5
:101F6000B8EEC01A80EE810AB4EEE01AF1EE10FA73
:101F700012DB002130F9112000EE902AF8EEE00A81
:101F800060EE800AFDEEE00A10EE902A20F81120A3
:101F9000491CC9B20429EDD3704700007C0500201C
:101FA0000000FA4600007042000070420000C84184
:101FB00070B50F4C0F4D2078012804D1607810B90E
:101FC00002F01AFA28620B4E607801244C36012880
:101FD0000BD0002808D102F00FFA296A401AB0F598
:101FE0007A7F01D97068C47070BD7068C47070BDAC
:101FF000800100202800002010B500F051F8BDE855
:102000001040FFF727B9000070B52248FFF76EFFB8
:10201000214A204B002492F80B16204801291CD09D
:1020200092F8141620F8114092F8071801291BD0D5
:1020300092F8101820F8114092F8031A01291AD0CA
:1020400092F80C1A20F8114092F8FF1B012919D0C0
:1020500092F8081C20F8114070BD92F8141633F85D
:10206000115020F81150DFE792F8101833F8115092
:1020700020F81150E0E792F80C1A33F8115020F8CC
:102080001150E1E792F8081C33F8112020F81120D4
:1020900070BD00005C0000208C050020AC01002019
:1020A0000E489FED0D0A80ED900A00F5806080EDEE
:1020B0000F0A80ED8E0A00F5806080ED0D0A084958
:1020C0000020088048808880C880064908804880B1
:1020D0008880C88070470000000000008C09002044
:1020E0005C000020AC01002010B504484068816805
:1020F0008847BDE8104005F091BB0000241900207E
:10210000014801F0E5BE000034270020014801F03D
:10211000DFBE000014290020014801F0D9BE0000F4
:1021200074260020014801F0D3BE0000742900206D
:10213000014801F0CDBE0000D4260020014801F086
:10214000C7BE0000B4280020014801F0C1BE000055
:1021500094270020014801F0BBBE0000D4290020D4
:10216000014801F0B5BE0000F4270020014801F04D
:10217000AFBE0000342A0020014801F0A9BE0000D3
:10218000542800202DE9F04F099E00248568802DF9
:1021900018D0A24DC563A24D456490F83450012D6E
:1021A00015D0012580F8345090F83550012D10D00D
:1021B000002180F834100224002180F834102046D9
:1021C000BDE8F08F4FF4807141650120F8E70220EF
:1021D000F6E7022580F835500025456505682F682B
:1021E00047F480272F6005682B6103685E60836871
:1021F000402B25D0036899600168CA608A4D8A4ED9
:10220000884FDFF820E2EA14DFF81CC2DFF81482FE
:10221000DFF81492DFF80CA20168783630379302A9
:102220000CF1300CA8F1180809F190090AF1480ADC
:102230004FF0006B71453BD9A94206D1202233E013
:1022400003689A600268D160D8E7764D483DA9429C
:1022500001D1202228E0744D6035A94201D120220D
:1022600022E0704D1835A94201D120221CE06E4DAC
:102270001835A94218D06B4D303DA94214D0B14257
:1022800012D0B94210D0614501D11A460CE0414547
:1022900001D11A4608E0494501D11A4604E05145EA
:1022A00001D11A4600E05A465E494C390A60AFE057
:1022B000DFF874E10EF1A80E714536D9A94201D1BB
:1022C00020222EE0574D483DA94201D1202228E08E
:1022D000554D6035A94201D1202222E0514D1835DB
:1022E000A94201D120221CE04F4D1835A94218D037
:1022F0004C4D303DA94214D0B14212D0B94210D059
:10230000614501D11A460CE0414501D11A4608E069
:10231000494501D11A4604E0514501D11A4600E071
:102320005A46404950390A6072E0DFF8FCE00EF18D
:10233000480E714536D9A94201D120222EE0394DEF
:10234000483DA94201D1202228E0374D6035A942FD
:1023500001D1202222E0334D1835A94201D120229B
:102360001CE0314D1835A94218D02E4D303DA94200
:1023700014D0B14212D0B94210D0614501D11A46F1
:102380000CE0414501D11A4608E0494501D11A4601
:1023900004E0514501D11A4600E05A46224910395D
:1023A000CA6035E0A94201D120222EE01D4D483DF2
:1023B000A94201D1202228E01B4D6035A94201D15C
:1023C000202222E0174D1835A94201D120221CE01D
:1023D000154D1835A94218D0124D303DA94214D0E0
:1023E000B14212D0B94210D0614501D11A460CE079
:1023F000414501D11A4608E0494501D11A4604E099
:10240000514501D11A4600E05A46074910398A6001
:1024100001680A6842F001020A60CDE655A400088E
:1024200079A4000858640240106002400168CAB2F2
:10243000103A1823B2FBF3F2064B9B5CC3656FF3B3
:102440000901032A02D9091D816500E08165806DBB
:1024500070470000A408010810B5014600208A6AF0
:102460008B694FF0C074002B0ED0B3F5005F1AD00B
:1024700062B3012A2AD0022A28D0032A03D1C96ACA
:10248000C90100D5012010BD1AB1012A06D0022AC7
:10249000F9D1C96AC901F6D5012010BDC96AA142A6
:1024A000FBD1012010BD52B1012A0AD0022A06D068
:1024B000032AF7D1C96AA142F4D1012010BD01203D
:1024C00010BDC96AC901FBD5012010BD012010BD96
:1024D00030B50468256825F48025256004686360AC
:1024E0008368402B04D0036899600068C26030BDE7
:1024F00003689A600068C16030BD70B5002490F830
:102500003450012D0CD0012580F8345090F83560FE
:102510000025012E06D080F834500224204670BDDC
:10252000022070BD022680F83560456505682E687A
:1025300026F480262E6005686B608368402B09D0E6
:10254000036899600168CA600068016841F0010190
:102550000160E3E703689A600268D160F4E710B5B0
:1025600006F098FC06F0CCFC06F004FD06F020FD19
:1025700006F048FD06F01AF906F030F9BDE8104003
:10258000FEF73CBD01680A68D20604D5C968C906D1
:1025900001D50BF0BBB87047F0EE401AB0EE600A00
:1025A00071EEC00AF5EEC00AF1EE10FA01DC70EE31
:1025B000610AF4EEC10AF1EE10FA01D3B0EE610A3D
:1025C0007047704770B53B483A4D3B4C8068083DBA
:1025D00002793848032A416814D0042A12D004F53D
:1025E0007E70DFED361ADAB391ED0A0A344B10EE45
:1025F000102A9FED341A9A4219D930EE010A81ED62
:102600000A0A1DE0B4F9FA03D1ED090A00EE100A36
:10261000D4F8E4152C48B8EEC00A8847BDEEC00ACD
:1026200094F8181410EE100A25F8110070BD10EE81
:10263000102A264B9A4203DD30EE410A81ED0A0A48
:1026400091ED0A0AD1ED020A214B70EE600A10EEFC
:10265000902A9A4205DD30EE410A81ED0A0A09E02E
:1026600018E010EE902A1B4B9A4203D930EE010A73
:1026700081ED0A0AD1ED0A0AD4F8D41580EEA10A38
:102680008847BDEEC00A94F8181410EE100A25F819
:10269000110070BDD1ED020AD4F8D41580EEA10A64
:1026A0008847BDEEC00A94F8181410EE100A25F8F9
:1026B000110070BD100100208C0500200000A03A20
:1026C0000000B4C30000B443BC0A00200000B443BF
:1026D00000003443000034C32DE9F047684B002468
:1026E000684D93F81302002804D0D87D10B193F8F8
:1026F0000F0408B9A8688470A868C178012900D0BF
:102700008470A868604E817809B9B4700471A968B2
:102710005E4803270A794FF001094FF00408022AA6
:1027200066D08A78012A01D181F80490A9688A7854
:10273000022A06D1EA6892ED070A6A6882ED090A60
:102740000F71A9688A78032A0BD16A68178B0A2F40
:1027500002D981F8048004E09FED4D0A82ED090A58
:102760000C71E96891ED090AD3F8F015884770B14A
:10277000A96802200871E86890ED0B0A6868D0ED3E
:10278000020A30EE200A80ED0A0ABDE8F087B07830
:1027900008B9A8688470B078012811D16868E96820
:1027A00090ED0A0AD1ED0A0A30EE200AD0ED020AB5
:1027B000B4EEE00AF1EE10FA02DDB470A86884709D
:1027C000B0780328E1D16868E96890ED0B0AD1ED93
:1027D0000A0A30EE200AD0ED020AB4EEE00AF1EE69
:1027E00010FAD2DDA8680472B470A8688470CCE7CF
:1027F0006A68D5F80CC092ED0A0ADCED0A0A30EEE0
:10280000600AD2ED020AB4EEE00AF1EE10FA12D23A
:10281000B27802B90C71B178012901D1A9680C71A3
:10282000B178022901D1A9680F71B178032902D1C9
:10283000A96881F80480E96891ED090AD3F8F015D8
:1028400088470028A1D0B07801280CD1A86880F86A
:1028500004906868E96890ED020AD1ED0B0A30EE49
:10286000600A80ED0A0AB078022801D1A8680771D1
:10287000B078032889D1A86880F8048085E7000033
:102880008C05002010010020801A002084090020FF
:102890000000000072B6FEE770B5654CA068C37812
:1028A0009FED640A2146644A496802F5FE70A4F16E
:1028B0000805012B03D0022B3DD0E3B3A5E0E3686C
:1028C000D3ED050AB1EE601A81ED071AD3ED050AC2
:1028D000C1ED080AB1F9023001EE903AF8EEE11AC2
:1028E00071EE611AF5EEC01AF1EE10FA06DD01EE96
:1028F000903AF8EEE11A31EE611A05E001EE903AF5
:10290000F8EEE11A31EEC11A4C4E11EE103AB34214
:1029100030DAB1F9043001EE103AB8EEC11A30EEF7
:10292000C11AB5EEC01AF1EE10FA08DD01EE103A48
:10293000B8EEC11A00E049E070EEC10A05E001EE10
:10294000103AB8EEC11A71EE600A10EE903AB34236
:1029500010DAF2EE0E0AC2ED930AB6EE000A82ED2C
:10296000940A82ED950AC2ED140A82ED150A82EDF1
:10297000160A0DE0F3EE040AC2ED930A82ED940A02
:10298000C2ED950AC2ED140A82ED150AC2ED160ACF
:1029900091ED070AD2F8E01316468847BDEEC00A4B
:1029A00096F81C1210EE100A25F811006068D6F88F
:1029B000E41190ED080A20488847BDEEC00A96F859
:1029C000201010EE100A25F811001EE081ED070A14
:1029D00081ED080AD2F8E01316468847BDEEC00A1A
:1029E00096F81C1210EE100A25F811006068D6F84F
:1029F000E41190ED080A10488847BDEEC00A96F829
:102A0000201010EE100A25F81100A06802250C4EC7
:102A10004078012803D004F053FD757070BD04F0B8
:102A200059FDA068C57001207070B57170BD0000BF
:102A300010010020000000008C0500200000F04183
:102A4000801A002070B520490224012288681F4B9B
:102A50000578032D0BD11E4E4D68366895F835501C
:102A6000767CB54203D0C578012D05D0C270886848
:102A70000578012D03D003E0C4701C70F7E7C27025
:102A800088680578022D01D1C4701C708868C078F0
:102A9000012818D1C86890ED050ABCEEC00A10EEF6
:102AA000100A84B24868B0F90410611AC8290ADA19
:102AB00010EE101AB0F9020089B20844404210F139
:102AC000C80F00DD1A7070BD10010020801A0020B0
:102AD000C804002010B503461046002B01D0084C56
:102AE0000AE04FF6FF7010BD13F8012B4240D2B23E
:102AF00034F8122082EA1020491E4A1CF4D110BD7D
:102B0000E2E5000810B5054C03E010F8013B534026
:102B1000E25C491E89B2F8D2104610BDE2E400081A
:102B20000B4A002992680AD001290BD0084A0229D1
:102B300052680AD0032901D1D189018070471188D8
:102B400001807047518801807047918F01807047E4
:102B5000DC00002010B5FFF775FFFFF7BDFD07484B
:102B6000054940680A7E3330C27009680A7C0270E9
:102B7000497C817010BD0000C804002010010020B5
:102B800010B500F0ABF800F0A3FB00F08BFABDE845
:102B9000104000F003BC0000F0B4484B46485A68AF
:102BA000B0F8E01FD1815A68B0F8E21F91815968EE
:102BB000B0F8E42D4A83B0F8E60D088340488268F7
:102BC00092ED0C0A81ED010A816891ED060A5968BF
:102BD00081ED020A816891ED0D0A596881ED040AC0
:102BE000816891ED070A596881ED050A81685C6882
:102BF000D1ED0E0AC4ED070A8068D0ED080AC4EDD5
:102C0000080A9868628B418E511A09B2058E521BD0
:102C100012B201F580564FF400574FF0FF35BE4217
:102C200008D9002901DD012600E02E46A6EB463634
:102C3000314409B202F58056BE4206D9002A00DDB1
:102C40000125A5EB45352A4412B200EE901A9FEDFE
:102C50001D1AF8EEE00A00EE810A80ED0A0A01EE84
:102C6000902AD4ED050AF8EEE11A41EE810AC0ED92
:102C70000B0A10EE101A144A914203DD9FED130A5D
:102C800080ED0A0A10EE901A114A914203D99FED85
:102C9000110A80ED0B0A1049C97839B141F6862135
:102CA000018098684180F0BC00F0BABB41F28661B7
:102CB000018098684180F6E78C050020DC00002048
:102CC000D00300200000343D0000B4420000B442B4
:102CD0000000B4C20000B4C28C01002010B5FFF7A0
:102CE0005BFF1B4B587840B11A48007858B3012855
:102CF00021D1BDE8104000F033B8174901F134008C
:102D0000B1F902204068B0F90E40121B1932322A84
:102D100012D991ED030A80ED0C0AB0F93C1090ED48
:102D2000020A00EE901A9FED0D1AF8EEE00A00EE8E
:102D3000810A80ED090A10BD18780028FBD100F047
:102D4000DFFA587010BDBDE8104000F0BDB80000BB
:102D500080010020041A0020A80000200000343D5B
:102D600010B54F4B4F49A3F13404586842789FED9A
:102D70004E1A0968012A07D094ED090AD4ED080A11
:102D8000E2B1042A27D058E091ED090AB4F91C10E9
:102D9000F1EE400A00EE101AB8EEC00AC0EE801A3A
:102DA000BDEEE10A10EE101A418790ED050A80EDA4
:102DB0000C0A90ED020A80ED090A3EE0D1ED091AF5
:102DC00081EE802A80ED0D2A91ED080AC0EE201ACE
:102DD000C0ED0A1A31E0D1ED091A81EE802A80EDAA
:102DE0000D2A91ED080AC0EE201AC0ED0A1A2F49EB
:102DF0000A7E12BB096891F82020012A03D091F8BD
:102E00002120012A19D180ED0D1A80ED0A1A428B7A
:102E1000028791ED060ADFED260A70EE600A9FED4B
:102E2000250A60EE800AC0ED0C0AD1ED071ADFED2D
:102E3000220A51EE800AC0ED090A204AD078012802
:102E400001D100F021FB507801280DD1586880EDA8
:102E50000C1A99680989018790ED0A0AF2EE040AB2
:102E600080EE201A80ED0A1A154900229FED150AFE
:102E70008879012807D15868D0ED090A70EE800AD8
:102E8000C0ED090A8A714879012807D15868D0ED48
:102E9000090A30EEC00A80ED090A4A7110BD00002F
:102EA000DC000020C80400200000000018050020FD
:102EB000000080450000343D00003443801A0020AB
:102EC000800100200000B44210B5554B5549A3F1D4
:102ED0003404586842789FED541A0968012A13D0C7
:102EE00094ED060AD4ED050A62B3042A43D090EDAE
:102EF000050A80ED0C0A90ED020A80ED090A4B4AA2
:102F0000D078012878D079E0B1F90A1000EE101AD3
:102F1000B4F91010B8EEC00AF1EE400A00EE101A33
:102F2000B8EEC00AC0EE801ABDEEE10A10EE101A2B
:102F3000418790ED050A80ED0C0A90ED020A80EDC4
:102F4000090ADCE7428B0287B1F90A2001EE902AD8
:102F5000F8EEE11A81EE802A80ED0D2AB1F9081011
:102F600000EE101AB8EEC00AB1EE400AC0EE201A08
:102F7000C0ED0A1AC3E7B0F91A200287B1F90A4076
:102F800001EE904AF8EEE11A81EE802A80ED0D2ADA
:102F9000B1F9081000EE101AB8EEC00AB1EE400AFE
:102FA000C0EE201AC0ED0A1A21490C7E002CA6D1D1
:102FB000096891F82040012C03D091F82140012CA0
:102FC0009DD180ED0D1A80ED0A1A028791ED060A57
:102FD000DFED180A70EE600A9FED170A60EE800AB6
:102FE000C0ED0C0AD1ED071ADFED140A51EE800A8C
:102FF000C0ED090A83E7FFE700F046FA50780128A0
:103000000DD1586880ED0C1A99680989018790EDF7
:103010000A0AF2EE040A80EE201A80ED0A1A10BDA8
:10302000DC000020C804002000000000801A0020FE
:1030300018050020000080450000343D00003443A6
:103040000C4890ED030A3430406880ED0C0AB0F96A
:103050003C1090ED020A00EE901A9FED071AF8EE70
:10306000E00A00EE810A80ED090A04490020087098
:1030700070470000A80000200000343D80010020BF
:1030800070470000054901F134000A894068028751
:10309000498881850249002008707047A8000020F7
:1030A000800100202DE9F0415B4D01245B4B6868F5
:1030B000A5F13406417801290BD0594FDFED591A9B
:1030C000594A21B3042958D000F090F9D878C0B3F8
:1030D0009CE0018F428F114409B20187B6F930207C
:1030E000914201DD028704E0B6F93220914200DA14
:1030F000028700201871A868B0F90210B0F900002A
:10310000814200D11C71494970888885DEE790EDC5
:103110000C0AD0ED0D0A70EE200AC0ED0C0A90EDFD
:10312000090A90ED0A1A30EE010A80ED090A96EDBF
:103130000A1AF4EEC10AF1EE10FA03DD80ED0C1A62
:1031400009E04FE096ED0B1AF4EEC10AF1EE10FA29
:1031500001D280ED0C1A10EE101AB94204DD30EEE7
:10316000610A80ED090AB1E710EE101A9142ADD95B
:1031700030EE210A80ED090AA8E790ED0C0AD0EDA7
:103180000D0A70EE200AC0ED0C0A90ED090A90EDD0
:103190000A1A30EE010A80ED090A96ED0A1AF4EED9
:1031A000C10AF1EE10FA02DD80ED0C1A08E096ED8E
:1031B0000B1AF4EEC10AF1EE10FA01D280ED0C1AEE
:1031C00010EE101AB94204DD30EE610A80ED090AF2
:1031D0007CE710EE101A914298D930EE210A80ED6A
:1031E000090A73E76868D0ED090A90ED021A30EE1B
:1031F000C10AB5EEC00AF1EE10FA01DC31EE600A48
:1032000010EE100AB0F17C5F00DADC7000F05EF9BD
:10321000BDE8F04100F00CB8DC0000208001002087
:10322000000034430000B443000034C3041A0020FB
:1032300070B52448244D234E40683E3ED5F8CC3F1F
:10324000417805F5406401291AD009B1042916D145
:103250001E4990ED0C1AD0ED040A90ED050A0022EB
:10326000A1F144009847B1EE400A84EDE90ABDEEB1
:10327000C00A95F8041E10EE100A26F8110070BD61
:10328000B0F93810D0ED040A00EE101AB0F91A00A7
:103290000E49B8EEC01A00EE100A00228839B8EEC6
:1032A000C00AA1F144009847B1EE400A84EDE90A52
:1032B000BDEEC00A95F8041E10EE100A26F81100A3
:1032C00070BD0000DC0000208C050020A814002048
:1032D0000948017801290DD1407800280AD1074812
:1032E00040684078012803D0002803D1FFF7A8BE2A
:1032F000FFF7C8BE7047000080010020DC000020FE
:103300002048407800283BD11F4840684178012977
:1033100001D079B134E0418B028F891A09B2C28998
:10332000808D101A00B21831302929D8192827DACF
:103330000120704790ED050AD0ED0C0A70EE600A8E
:1033400090ED020A90ED091A30EE410AF5EEC00A3E
:10335000F1EE10FA01DCF1EE600A10EE900A4FF087
:103360007E5188420CDAB5EEC00AF1EE10FA01DCAB
:10337000B1EE400A10EE100A884201DA01207047CF
:103380000020704780010020DC00002000B500F024
:103390002DF85DF804EBFFF7A1BC000030B5104A32
:1033A000104C02F5805092F8F75F00230E49007828
:1033B000012D0BD021F81030094892F8FB2D90F820
:1033C000040E012A07D021F8103030BD34F8105017
:1033D00021F81050F0E734F8102021F8102030BD0B
:1033E0008C0500209E0000209C01002009489FEDD4
:1033F000080A80EDD00A00F5806080ED4F0A06498A
:1034000000200880488005490880488070470000F7
:10341000000000008C1100209E0000209C01002074
:1034200030B5184B03F1340259885068C489091B20
:1034300009B281874FF48054A14204DDA1F5F8510F
:10344000FF39818706E011F5805F03DA41F6FF75E9
:1034500029448187B0F93C0000F50060A04210D9F2
:103460009068B0F90210A14204DD0188A1F58051F5
:10347000418001E00188418050685988C289891AD9
:10348000818730BDA80000200D488178012910D126
:10349000002181700B48DFED0C0A406890ED020AB4
:1034A000B5EEC00AF1EE10FA04DD30EE600A80EDF0
:1034B000090A704730EE200A80ED090A70470000C3
:1034C00080010020DC0000200080334370B53C4BBD
:1034D0003C4CA3F13E0558684178012914D009B14C
:1034E000042945D1D0ED090A90ED020A364A9FED34
:1034F000371A70EEC00A10EE901A914239DD30EEA4
:10350000010A80ED020A3DE0B0F92C20B0F90E105E
:10351000521AB2F5805F04DD41F6FF721144C18199
:1035200006E012F5805F03DAA1F5F851FF39C18199
:1035300058680022D4F8C831B0F92C10D0ED010A37
:1035400000EE101AB0F90E001E49B8EEC01A00EED7
:10355000100A9031A1F14400B8EEC00A984784EDFA
:10356000680ABDEEC00A217810EE100A25F8110095
:1035700070BD10EE901A164A914203D930EE410AFE
:1035800080ED020A58680E4990ED091A90ED020A82
:10359000403971EE400AC1ED020A0E49D0ED010A30
:1035A000D4F8C8310022A1F14400984784ED680A9C
:1035B000BDEEC00A217810EE100A25F8110070BD8A
:1035C000DC0000208C150020000034430000B443D0
:1035D000000034C3A416002090F82020012A07D050
:1035E000022A05D0416A41F48021416201207047DE
:1035F000006842690A43426100207047F0B590F8C4
:1036000020500468A468012D07D0022D05D0416A1E
:1036100041F4802141620120F0BD04F0806504F096
:103620000066354301D1E5005BD5C4F30164022C8B
:1036300005D9416A41F4000141620120F0BD012534
:10364000A5401D608B684FF4C0759BB1CE6805EB3B
:10365000041733434E6843EAC6030668F3514FF438
:10366000C273076803EB04130E69FE50097D01293C
:1036700009D00DE00E88CB6805EB041743EA4653EA
:103680000668F351EBE70168CE5846F48076CE50D9
:103690001179D379567941EA036193791B0443EA9E
:1036A000062319434FF4C676036806EB04169951B6
:1036B0001178D37841EA0361937852781B0443EA86
:1036C000022211434FF4C473026803EB0413D15078
:1036D000006805EB0411425842F0010242500020FC
:1036E000F0BD416A41F4001141620120F0BD0000CB
:1036F00010B590F82020012A07D0022A05D0416A8F
:1037000041F480214162012010BD3C4800F5007069
:10371000026842F001020260026822F47C520260F8
:1037200002684B6A42EA032202600A7D02F01F032C
:1037300001229A40C3699343C361A0F50070CB692D
:10374000B3B9D0F80C329343C0F80C328C894B6873
:1037500064F31F434C6900EBC404C4F840320C8985
:103760000B6864F31F434C6900EBC404C4F8443293
:10377000CB69012B16D1D0F80C321343C0F80C32B0
:103780000C884B6864F31F434C6900EBC404C4F815
:1037900040320C89CB6864F31F434C6900EBC404CE
:1037A000C4F844328B697BB1D0F804321343C0F8BB
:1037B00004320B6973B1D0F814321343C0F81432D9
:1037C000096A01290CD010E0D0F804329343C0F804
:1037D0000432EEE7D0F814329343C0F81432EFE726
:1037E000D0F81C121143C0F81C12D0F8001221F0BE
:1037F0000101C0F80012002010BD0000006400406C
:10380000704730B590F82040012C07D0022C05D02D
:10381000416A41F480214162012030BD21B1046838
:103820002469A4075FD003E00468E468A40754D0C7
:103830004FF4D874056804EB01142D5905F0040504
:103840009560F5B305682D59ED08556005682C594C
:1038500004F00204D4604FF4DA74056804EB011438
:103860002D5905F00F05156105682D59C5F307257C
:10387000956105682C59240C54614FF4DC7204687E
:1038800002EB0112A4581C700468A458240A5C704E
:103890000468A458240C9C700468A258120EDA70B4
:1038A0004FF4DE72046802EB0112A4581C71046824
:1038B000A458240A5C710468A458240C9C71046800
:1038C00000E016E0A258120EDA71B9B10068016981
:1038D00041F020010161002030BD416A41F4001136
:1038E0004162012030BD416A41F400114162012072
:1038F00030BD05682D596D0D1560A7E70068C168DA
:1039000041F02001C160E6E72DE9F05F05460024A3
:1039100028684669D0F804908768D0F80CA0D0F8E1
:1039200010B0D0F81880F10748D0F90714D0012161
:103930008160B80703D5284600F06AFA0CE07807E2
:1039400002D54FF4006407E0380702D54FF48054E5
:1039500002E0284600F05BFAF80516D529684FF416
:1039600080708860B80503D5284600F053FA0CE053
:10397000780502D544F4005407E0380502D544F434
:10398000804402E0284600F044FAF80316D529687E
:103990004FF480308860B80303D5284600F03CFA25
:1039A0000CE0780302D544F4004407E0380302D564
:1039B00044F4803402E0284600F02DFA300707D5A1
:1039C0005FEACA6004D544F4007429681020C86016
:1039D00070074FF0080707D55FEA0A7004D528681A
:1039E000C760284600F0B8F9B00706D52868C06857
:1039F000800702D0284600F0B1F9700607D55FEACB
:103A0000CB6004D544F48064296810200861B006B6
:103A100007D55FEA0B7004D528680761284600F0D7
:103A2000C7F9F00606D528680069800702D0284645
:103A300000F0BFF9B00308D55FEAC96005D5296871
:103A400010204860284600F0B5F9F00307D55FEA7A
:103A5000097004D528684760284600F0DEF9300474
:103A600046D55FEA497040D5F00504D55FEAC870D5
:103A700001D044F00104B00504D55FEA887001D597
:103A800044F00204700504D55FEA487001D544F0A3
:103A90000404300529D518F0700F26D008F0700006
:103AA000402815D006DC102809D020280AD030285C
:103AB00016D10AE050280ED0602811D10EE044F053
:103AC00008040DE044F010040AE044F0200407E08C
:103AD00044F0400404E044F0800401E044F48074C5
:103AE0002868816921F0700181612968042048609B
:103AF000002C05D0686A204368622846FFF780FEE4
:103B0000BDE8F09F70B50446002C03D094F8200067
:103B100010B104E0012070BD204600F09DF820683F
:103B2000016841F00101016000F066FC05460526D0
:103B30000CE000F061FC401B0A2807D9606A40F4E1
:103B40000030606284F82060012070BD2068406809
:103B5000C007EED02068016821F00201016000F08A
:103B60004BFC05460CE000F047FC401B0A2807D937
:103B7000606A40F40030606284F82060012070BD0B
:103B8000206840688007EED4207E01283FD020685E
:103B9000016821F080010160607E01283DD020682D
:103BA000016821F040010160A07E01283BD020681F
:103BB000016821F020010160E07E012839D02068F1
:103BC000016841F010010160207F012837D0206892
:103BD000016821F008010160607F012835D020686C
:103BE000016821F004010160D4E902010843D4E92D
:103BF0000412114308436168491E08432168C861E3
:103C000000206062012084F82000002070BD206840
:103C1000016841F080010160BEE72068016841F061
:103C200040010160C0E72068016841F020010160A7
:103C3000C2E72068016821F010010160C4E7206834
:103C4000016841F008010160C6E72068016841F0A1
:103C500004010160C8E700002DE9F04186B0044688
:103C6000142101A8FCF790FC364B374ADFF8D080CE
:103C700018682168344C03260227401C10320025A6
:103C80004FF0090C414527D11860012807D1106871
:103C900040F000701060106800F000700090206824
:103CA00040F008002060206800F0080000900196B5
:103CB000029703950496CDF814C001A9234800F09B
:103CC000A3FA00220521142000F034FC142000F097
:103CD00023FC06B0BDE8F081DFF874804145F8D1DF
:103CE000116841F080611160116801F080610091FC
:103CF0001860012807D1106840F00070106010684B
:103D000000F000700090206840F002002060206801
:103D100000F0020000906020019002970395049645
:103D2000CDF814C001A90B4800F06EFA002205215D
:103D3000402000F0FFFB402000F0EEFBC9E7000050
:103D4000006400404C19002030380240000C024052
:103D500000680040000402407047000010B511499F
:103D600088420DD1104B00211C46A3F11C02FFF725
:103D700048FD0D4821461C380068FDF72FF810BD9E
:103D80000A498842FBD1084B002124331C46A3F189
:103D90001C02FFF736FD0448214608300068FDF795
:103DA000D1F810BDA4230020381E0020CC23002011
:103DB00070477047704770B5044694F8200001289A
:103DC00005D0606A40F400206062012070BD0220CE
:103DD00084F820002068016821F00101016000F0F2
:103DE0000BFB05460DE000F007FB401B0A2808D935
:103DF000606A40F400306062052084F820000120F1
:103E000070BD20684068C007EDD1606270BD70472A
:103E10007047704770477047704770472DE9F04111
:103E20000446A76D00F0E8FA054694F83500002630
:103E3000022806D08020606584F834600120BDE847
:103E4000F0812068016821F0160101602068416955
:103E500021F080014161206C08B9A06C20B120687C
:103E6000016821F0080101602068016821F001016A
:103E700001600BE000F0C0FA401B052806D92020A5
:103E800034342062032060702670D8E72068006810
:103E9000C007EFD134343F2094F828108840B86030
:103EA0000120607026700020C9E790F835100229C3
:103EB00003D08021416501207047052180F835102D
:103EC0000068016821F001010160002070470000D6
:103ED0002DE9F84304464FF00009CDF800906F48F3
:103EE0004FF416510068B0FBF1F7A56D2E6894F8F9
:103EF0005C00082202FA00F1314210D0206801680B
:103F000049070CD5016821F00401016094F85C00B8
:103F100002FA00F1A960606D40F00100606594F85C
:103F20005C104FF0010808FA01F0304208D0216817
:103F30004969090604D5A860606D40F0020060651B
:103F400094F85C1004208840304208D02168096849
:103F5000890704D5A860606D40F00400606594F89E
:103F60005C1010208840304220D021680968090781
:103F70001CD5A8602068016849030CD500680003BF
:103F800004D4216C91B1204688470FE0A16C69B13F
:103F9000204688470AE00168C90503D4016821F07A
:103FA00008010160216C09B12046884794F85C1033
:103FB0002020884030424CD021680968C90648D585
:103FC000A86094F8350005280BD0206801684903E3
:103FD00030D50068000328D4616C51B3204688476F
:103FE00037E02068016821F016010160206841690E
:103FF00021F080014161206C08B9A06C20B12068DB
:10400000016821F00801016094F85C103F208840AD
:10401000A86084F8358084F83490216D00293BD065
:1040200001B02046BDE8F0430847E16B09B12046E6
:1040300088470EE00168C90507D4016821F0100126
:10404000016084F8358084F83490E16B09B1204632
:104050008847606D00281FD0606DC00714D0052010
:1040600084F835002068016821F0010101600098A2
:10407000401C0090B84203D820680068C007F6D101
:1040800084F8358084F83490E16C002904D001B0C4
:104090002046BDE8F0430847BDE8F8835C190020DE
:1040A0002DE9F041044600F0A7F905465CB1022075
:1040B00084F83500002684F834602068016821F017
:1040C000010101600DE00120BDE8F08100F094F9EC
:1040D000401B052805D920206065032084F83500A1
:1040E000F2E720680068C007F0D121680A6820481C
:1040F0000240D4E901031843D4E903352B431843A4
:1041000063691843A3691843E3691843236A184392
:104110001043626A042A03D1D4E90B231A431043E3
:1041200008602068406920F00700656A2946054359
:10413000012704290DD1A06A0543E06A48B1204651
:10414000FEF78AF928B14020606584F835700120B7
:10415000BAE7206845612046FEF768F994F85C20CC
:104160003F2191408160666584F835700020ABE79F
:104170003F8010F02DE9F04104460025A66D94F82B
:10418000340001280DD0012084F8340094F83570F3
:104190000020012F07D084F8340002252846BDE80E
:1041A000F0810220FBE7022784F835706065204625
:1041B000FEF78EF994F85C103F208840B0602068CC
:1041C000016841F016010160206C20B1206801688F
:1041D00041F0080101602068016841F001010160BF
:1041E000DCE7000070B5044600F006F90546601CE7
:1041F00002D004480078044400F0FEF8401BA042BE
:10420000FAD370BD501900202DE9F84F0022DFF8D5
:104210009C914FF0010803274FF00F0C09F1040A9D
:10422000A9F1040B08FA02F50B682B40AB426ED1E2
:104230000C7904F00304012C01D0022C15D18668FE
:10424000540007FA04FE26EA0E06D1F80CE00EFA36
:1042500004FE4EEA060EC0F808E04468AC430D794F
:10426000C5F300159540254345600C79E443A40748
:1042700008D0C568540007FA04F6B5438E68A64016
:104280002E43C6600C7904F00304022C11D1D4082B
:1042900000EB8406356A5407E40E0CFA04FE25EAA6
:1042A0000E05D1F810E00EFA04FE4EEA050EC6F82F
:1042B00020E00568540007FA04F6B5430E7906F0CD
:1042C0000306A6402E4306604C6814F4403F67D0B6
:1042D000374C256845F480452560246804F4804403
:1042E0000094344C22F003052E19D6F80858940790
:1042F0004FEA147E0CFA0EF4A5432F4CA04201D1D4
:10430000002424E02D4CA04202D101241FE047E00C
:104310002B4CA04201D1022419E02A4CA04201D129
:10432000032414E0284CA04201D104240FE0274CC0
:10433000A04201D105240AE0254CA04201D1062467
:1043400005E0244CA04201D1072400E0082404FA2F
:104350000EF42C43C6F80848D9F800409C434D6839
:10436000ED0200D51C43C9F80040DAF800409C4338
:104370004D68AD0200D51C43CAF80040DBF8004090
:104380009C434D68AD0300D51C43CBF80040074D5E
:10439000083D2C689C434E68F60300D51C432C60F6
:1043A000521C102AFFF43EAFBDE8F88F083C0140D4
:1043B0004438024000300140000002400004024046
:1043C00000080240000C02400010024000140240AD
:1043D00000180240001C0240426921EA02030A4020
:1043E00043EA024181617047002A01D08161704730
:1043F000090481617047000001488068704700002F
:104400005019002002488168027811448160704789
:104410005019002010B50B48016841F4007101608B
:10442000016841F480610160016841F480710160BC
:10443000032000F09FF80F2000F006F800F050F87D
:10444000002010BD003C024030B587B00546002476
:104450001F48016841F001010160006800F001009F
:10446000009001A902A800F03DF90598B0B100F054
:104470005DF940001749B0FBF1F1491E16484FF0B5
:104480008042026040F2E732C260416004618460B1
:10449000846100F0EFFE04461CB115E000F046F91F
:1044A000E8E70D4800F038FF04466CB91C2000F026
:1044B00033F8102D07D2002229461C2000F03AF8CC
:1044C0000648056000E0012407B0204630BD00002A
:1044D0004038024040420F00942A00205419002026
:1044E00082B00C48016841F480410160006800F42A
:1044F000804001900748001F016841F08051016031
:10450000006800F08050019000220F21901E02B040
:1045100000F010B844380240002809DB00F01F0208
:10452000012191404009800000F1E020C0F8001115
:1045300070470000F0B40D460D4B1B68C3F3022317
:10454000C3F10704042C00D90424191D072901D242
:10455000002300E0DB1E012606FA04F1491E294073
:1045600099409E40761E16403143F0BC04F078BE60
:104570000CED00E000F00701054A10684FF6FF035C
:10458000184040EA012003490843106070470000CA
:104590000CED00E00000FA052DE9F04704460D4659
:1045A000002C13D0DFF82891D9F80000EFB200F00A
:1045B0000700A8420CD289F80070D9F8000000F07A
:1045C0000700A84204D00120BDE8F0870120FBE7E6
:1045D0002068404E810712D5400703D5306840F46B
:1045E000E05030602078000703D5306840F4604028
:1045F00030603068A16820F0F00008433060207817
:10460000C00731D0334960680839012808D0022832
:104610000BD0032809D0096889070BD40120D3E700
:104620000968890306D40120CEE70968890101D40D
:104630000120C9E7316821F0030101433160FFF730
:10464000DBFE804641F2883A07E0FFF7D5FEA0EB9B
:104650000800504501D90320B6E73068616800F0D2
:104660000C00B0EB810FF0D1D9F8000000F007008A
:10467000A84209D989F80070D9F8000000F00700B5
:10468000A84201D001209FE72078400705D5306877
:10469000E16820F4E050084330602078000706D538
:1046A0003068216920F4604040EAC100306000F0C9
:1046B0005DF83168084AC1F30311515CC8400749ED
:1046C000086007480068FFF7BFFE00207CE7000095
:1046D000003C024008380240AC0801085C19002088
:1046E000541900200F2202600B4A136803F00303E1
:1046F0004360136803F0F0038360136803F4E0532E
:10470000C360126802F46042D20802610348006884
:1047100000F007000860704708380240003C024083
:1047200001480068704700005C19002000B5FFF7E1
:10473000F7FF04490968044AC1F38221515CC8406B
:1047400000BD000008380240BC08010800B5FFF7B2
:10475000E7FF04490968044AC1F34231515CC8408B
:1047600000BD000008380240BC08010810B5174819
:10477000006810F00C01164816D0164B042912D010
:10478000082911D1114C241F216801F03F02216832
:1047900049020AD52068C0F38810A0FB030100235A
:1047A000FBF7E2FD09E0184610BD21680023C1F3C4
:1047B0008811A1FB0001FBF7D7FD2168C1F301417E
:1047C000491C4900B0FBF1F010BD00000838024060
:1047D0000024F40040787D012DE9F84F0446002CB8
:1047E00013D02078DFF8A083C007A8F1040556D0C5
:1047F00008F104000168C1F3810101290CD00068AF
:10480000C0F38100022803D00DE00120BDE8F88F3D
:10481000D8F80000400206D5286880033FD56068BC
:1048200070BB0120F2E76068B0F5803F10D0B0F5B2
:10483000A02F12D0286820F480302860286820F447
:10484000802028606068E0B1FFF7D6FD064614E0DE
:10485000286840F480302860F4E7286840F480201D
:104860002860286840F480302860EBE7FFF7C4FD3B
:10487000801B642801D90320C8E728688003F5D588
:104880000DE0FFF7B9FD064606E0FFF7B5FD801B1A
:10489000642801D90320B9E728688003F5D420787B
:1048A000BA4F80074FF0000948D5B748001D01688E
:1048B00011F00C0F08D00068C0F38100022813D15A
:1048C000D8F8000040020FD42868800704D5E068BB
:1048D000012801D0012099E72868216920F0F8001B
:1048E00040EAC100286029E0E068B8B101203860E2
:1048F000FFF782FD064606E0FFF77EFD801B0228DB
:1049000001D9032082E728688007F5D52868216946
:1049100020F0F80040EAC10028600FE0C7F80090DE
:10492000FFF76AFD064606E0FFF766FD801B0228DA
:1049300001D903206AE728688007F5D420780007AA
:1049400029D5DFF844A2924861690AF1700A89B159
:1049500001210160FFF750FD064606E0FFF74CFD20
:10496000801B022801D9032050E7DAF800008007F5
:10497000F4D510E0C0F80090FFF73EFD064606E0D3
:10498000FFF73AFD801B022801D903203EE7DAF841
:1049900000008007F4D42078400778D54FF0000A53
:1049A00079483C300068C0000BD477483C3001683F
:1049B00041F080510160006800F0805000904FF09D
:1049C000010ADFF8D0B1DBF80000C00514D4DBF831
:1049D000000040F48070CBF80000FFF70DFD0646A4
:1049E00006E0FFF709FD801B022801D903200DE72F
:1049F000DBF80000C005F4D5634EA0686C360128D2
:104A00000FD0052812D0306820F0010030603068E7
:104A100020F004003060A068F8B1FFF7EDFC834699
:104A200017E0306840F001003060F4E7306840F093
:104A300004003060306840F001003060EBE7FFF7C1
:104A4000DBFCA0EB0B0141F28830814201D903204D
:104A5000DCE630688007F2D510E0FFF7CDFC834636
:104A600009E0FFF7C9FCA0EB0B0141F2883081425D
:104A700001D90320CAE630688007F2D4BAF1010FE9
:104A800005D141483C30016821F080510160A069A6
:104A9000C0B33D49091D09684FF0FF36C1F38101DC
:104AA000022946D0022805D0C7F86090FFF7A4FC81
:104AB00004463AE0C7F86090FFF79EFC814607E0A5
:104AC000FFF79AFCA0EB0900022801D903209DE61C
:104AD00028688001F4D4D4E907010843616AA26A16
:104AE000890106EB520241EA0241084394F82C1076
:104AF00040EA0160C8F8000001203866FFF77CFC3E
:104B0000044607E03DE0FFF777FC001B022801D9CF
:104B100003207BE628688001F5D532E0FFF76CFCC6
:104B2000001B022801D9032070E628688001F5D413
:104B300027E0012823D0D8F80000E26900F48001C2
:104B400091421AD1226A00F03F01914215D147F6F5
:104B5000C071626A0140B1EB821F0ED1A26A00F4FB
:104B6000403106EB5202B1EB024F06D194F82C1003
:104B700000F07060B0EB016F03D0012046E6012029
:104B800044E6002042E600000438024000004742AC
:104B9000800E47420070004070B50446002C09D0DA
:104BA000606A002540B125616561A56294F85100F5
:104BB00040B10CE0012070BD6068B0F5827FF4D098
:104BC000E561F2E784F85050204600F045F80220F5
:104BD00084F851002068016821F040010160A0883C
:104BE000218900F4827001F404410843A18901F491
:104BF00000610843217C01F002010843217D01F09E
:104C000001010843218B01F400710843217F01F069
:104C10003801084394F8201001F080010843218DE9
:104C200001F40051084321680860A069042101EAE9
:104C3000104094F8241001F01001084321684860E6
:104C40002068C16921F40061C1616565012084F8B3
:104C50005100002070BD000010B586B0044614213C
:104C600001A8FBF791FC14492068884221D100215A
:104C70001248026842F480420260006800F48040FA
:104C800000900E481038026842F00202026000688C
:104C900000F0020000904FF460400190022002906A
:104CA0000391032004900520059001A90448FFF713
:104CB000ABFA06B010BD000000380040403802409A
:104CC000000402402DE9F84F04468A4691461D46ED
:104CD000002660684FF0040BB0F5827F01D1A06818
:104CE00088B194F85000012818D0012084F85000B1
:104CF000FFF782FB074694F851004FF000080128A7
:104D00000ED0022682E084F851B04B4652465146FE
:104D10002046009500F048F9BDE8F88F0220FBE737
:104D2000BAF1000F1BD0B9F1000F18D084F851B0C0
:104D3000C4F85480C4F838A0A4F83C90A4F83E907D
:104D4000C4F83080A4F83480A4F83680C4F84080D9
:104D5000C4F84480A068B0F5004F02D00BE00126F3
:104D600054E02068016821F040010160206801687A
:104D700021F48041016020680168490603D401687C
:104D800041F040010160E068B0B131E02068816825
:104D9000C90709D0007BA16B0870A06B401CA06301
:104DA000E08F401EE08707E0FFF726FBC01BA8420C
:104DB00001D3681C04D11DB1E08F0028E6D11AE0B0
:104DC000032623E020688168C90709D0C068A16B69
:104DD0000880A06B801CA063E08F401EE08707E086
:104DE000FFF70AFBC01BA84201D3681C15D1A5B16F
:104DF000E08F0028E6D13A462946204602F046FEDA
:104E000008B120206065606D00B10126012084F8A2
:104E1000510084F8508030467EE70326F6E72DE9FE
:104E2000F84F04468B4692461D46002694F85000E3
:104E300001280DD04FF0010984F85090FFF7DCFAFB
:104E4000074694F85100B046012804D00226A5E098
:104E50000220BDE8F88FBBF1000F1CD05FEA0A000A
:104E600019D0032084F85100C4F85480C4F830B03D
:104E7000A4F834A0A4F836A0C4F83880A4F83C8084
:104E8000A4F83E80C4F84480C4F84080A068B0F51F
:104E9000004F02D00BE0012680E02068016821F07D
:104EA000400101602068016841F480410160206890
:104EB0000168490603D4016841F040010160E068DF
:104EC000B0F5006F05D0606878B3BAF1010F2DD04E
:104ED0004DE0606810B1BAF1010F20D1206B21685C
:104EE0000088C860206B801C2063E08E401EE08636
:104EF00015E020688168890709D5216B0988C160A0
:104F0000206B801C2063E08E401EE08607E0FFF7E8
:104F100073FAC01BA84201D3681C04D11DB1E08EF6
:104F20000028E6D126E0032638E0FFE7206B216861
:104F300000780873206B401C2063E08E401EE086E2
:104F400015E020688168890709D5216B097801730C
:104F5000206B401C2063E08E401EE08607E0FFF7D8
:104F60004BFAC01BA84201D3681C0ED16DB1E08E74
:104F70000028E6D13A462946204602F0CDFD08B188
:104F800020206065A06810B105E0032606E02068D7
:104F9000C16880680090606D00B1012684F851906E
:104FA00084F85080304654E72DE9F84F04460A9EB5
:104FB0008A4693461F4601254FF0000894F850009A
:104FC00001280ED0012084F85000FFF715FA814621
:104FD00094F85100616801280DD0B1F5827F07D1A6
:104FE00002E00220BDE8F88FA16809B9042802D0C8
:104FF0004FF00208C3E0BAF1000F28D0BBF1000F58
:1050000025D0380023D094F85100042802D0052080
:1050100084F8510000206065C4F838B0E787A7879E
:10502000C4F830A0E786A786206460642068016821
:10503000490603D4016841F040010160E068B0F521
:10504000006F07D06068E8B3012F48D07DE04FF0D3
:10505000010894E0606808B1012F39D1206B216804
:105060000088C860206B801C2063E08E401EE086B4
:105070002EE02068816889070DD5E18E59B1012D98
:1050800009D1216B0988C160206B801C2063E08EF0
:10509000401EE086002520688168C9070BD0E18F9B
:1050A00049B1C068A16B0880A06B801CA063E08F31
:1050B000401EE0870125FFF79FF9A0EB0900B042F1
:1050C00006D300E00BE0701C02D04FF0030856E05E
:1050D000E08E0028CDD1E08F0028CAD13BE0206BC4
:1050E000216800780873206B401C2063E08E401E0E
:1050F000E0862AE02068816889070DD5E18E59B1E4
:10510000012D09D1216B09780173206B401C2063AC
:10511000E08E401EE086002520688168C9070BD01C
:10512000E18F49B1C068A16B0870A06B401CA063FF
:10513000E08F401EE0870125FFF75EF9A0EB090034
:10514000B04201D3701C11D186B1E08E0028D1D1BC
:10515000E08F0028CED14A463146204602F0DCFCE2
:1051600038B14FF001082020606508E04FF00308D7
:1051700005E0A06818B92068C16880680090012027
:10518000503460700020207040462BE77047704715
:1051900010B590F83C20012A22D0012280F83C2052
:1051A000CA6800238C6822F4407222434C6822F4BF
:1051B000806222430C6822F4006222430C6922F4CC
:1051C000805222434C6922F400522243C96922F4DE
:1051D00080420A4301684A6480F83C30002010BDD8
:1051E000022010BD70B590F83C20012A31D0012674
:1051F00080F83C60022280F83D2002685468936881
:1052000024F070050C682C435460134C0268A242D1
:1052100014D0B2F1804F11D0104CA2420ED0104CDD
:10522000A2420BD00F4CA24208D00F4CA24205D094
:105230000E4CA24202D00E4CA24204D123F08003B5
:105240004968194391603C3046700021017000208C
:1052500070BD022070BD000000000140000400404D
:1052600000080040000C00400004014000400140E4
:105270000018004010B50446002C03D094F83D00FF
:1052800010B107E0012010BD002084F83C0020464A
:1052900000F016F8022084F83D00211D206803F07C
:1052A000A9FA01203D3460726070A070E070207136
:1052B0006071A071E07120722070002010BD0000AC
:1052C00008B500681149884209D11148016841F0C8
:1052D00001010160006800F00100009008BD0D4967
:1052E0008842FBD10A48001F016841F004010160B7
:1052F000006800F004000090002205211E20FFF746
:1053000019F9BDE808401E20FFF706B9000001406A
:10531000443802400008004090F83D10012901D0B7
:1053200001207047022180F83D100168CA6842F0F0
:105330000102CA6000681449884214D0B0F1804F5D
:1053400011D0124988420ED0114988420BD0114920
:10535000884208D01049884205D01049884202D0BE
:105360000F49884209D1816801F00701062908D058
:10537000016841F00101016003E0016841F00101B1
:105380000160002070470000000001400004004060
:1053900000080040000C00400004014000400140B3
:1053A0000018004070B50446002594F83C00012820
:1053B00017D0012684F83C60022084F83D00206864
:1053C000826822F0770222F47F42826008685028C7
:1053D00038D00DDC202853D005DC90B3102811D133
:1053E0004EE0022070BD30284AD040280AD13DE06E
:1053F000602831D070280CD0B0F5805F03D0B0F5B4
:10540000005F12D001253C346670002020702846D1
:1054100070BDCB68D1E90121206803F05EFA2068F5
:10542000816841F077018160EDE7CB68D1E9012126
:10543000206803F052FA2068816841F4804181605D
:10544000E1E71DE0CA684968206803F029FB5021A4
:10545000206803F04CFAD6E7CA684968206803F070
:1054600030FB6021206803F042FACCE7CA68496843
:10547000206803F015FB4021206803F038FAC2E7EA
:1054800022680146104603F032FABCE7704770B557
:105490000446206801694FF00005C943890716D406
:1054A000C168C943890712D4E91E01610120207730
:1054B00020688069800703D02046FFF7E7FF05E0FA
:1054C000204600F0C5F8204600F055F92577206801
:1054D0000169C943490718D4C168C943490714D4AD
:1054E0006FF004010161022020772068806910F4C8
:1054F000407F03D02046FFF7C9FF05E0204600F0BB
:10550000A7F8204600F037F9257720680169C943DC
:10551000090717D4C168C943090713D46FF00801FC
:105520000161042020772068C069800703D02046ED
:10553000FFF7ACFF05E0204600F08AF8204600F0B7
:105540001AF9257720680169C943C90618D4C168CA
:10555000C943C90614D46FF01001016108202077F7
:105560002068C06910F4407F03D02046FFF78EFF0B
:1055700005E0204600F06CF8204600F0FCF82577A6
:1055800020680169C943C90708D1C168C943C9076F
:1055900004D1891E0161204600F05CF92068016990
:1055A000C943090609D4C168C943090605D46FF087
:1055B000800101612046FFF7E9FD20680169C943C8
:1055C000490609D4C168C943490605D46FF04001B2
:1055D0000161204600F066F920680169C943890627
:1055E0000BD4C168C943890607D46FF0200101615B
:1055F0002046BDE87040FFF7CABD70BD10B586B04B
:105600000446142101A8FAF7BFFF0E482168814221
:1056100016D100210C48026842F0010202600068C5
:1056200000F0010000904FF4807001900220029081
:10563000039104910120059001A90448FEF7E4FDBF
:1056400006B010BD000001403038024000000240AA
:10565000704770B504460D46002694F83C000128BA
:105660000FD0012084F83C006AB1042A1FD0082A18
:1056700032D00C2A44D00126002084F83C00304669
:1056800070BD022070BD2946206803F039F92068FA
:10569000816941F0080181612068816921F004017C
:1056A0008161206881692A6911438161E4E72946A3
:1056B000206803F059F92068816941F40061816133
:1056C0002068816921F480618161206881692A698B
:1056D00041EA02218161CFE72946206803F07EF983
:1056E0002068C16941F00801C1612068C16921F0E9
:1056F0000401C1612068C1692A691143C161BBE726
:105700002946206803F0A2F92068C16941F40061CC
:10571000C1612068C16921F48061C1612068C169EB
:105720002A6941EA0221C161A6E710B50446002CAE
:1057300003D094F83D0010B107E0012010BD002017
:1057400084F83C00204600F015F8022084F83D0063
:10575000211D206803F04EF801203D346072607016
:10576000A070E07020716071A071E07120722070F3
:10577000002010BD7047704710B50446002909D0BD
:1057800004290AD008290BD094F8410001280AD036
:10579000012010BD94F83E00F8E794F83F00F5E7CB
:1057A00094F84000F2E70220A9B3042937D0082971
:1057B00038D084F841000122206803F081F81E49A6
:1057C00020681E4A884201D0904203D1436C43F4C2
:1057D000004343642068884213D0B0F1804F10D05A
:1057E000174988420DD0174988420AD01649884285
:1057F00007D0904205D01549884202D0144988420A
:1058000013D1816801F00701062912D0016841F027
:10581000010101600DE0FFE784F83E00CBE784F86A
:105820003F00C8E784F84000C5E7016841F0010186
:105830000160002010BD0000000001400004014094
:105840000004004000080040000C004000400140FF
:105850000018004010B504460F492068884212D154
:105860000E4801884A1C0280A1F56A42603A01D1C3
:10587000002101800A4890F8291009B1052902D1B8
:10588000016A074888472068B0F1804F03D1BDE81E
:105890001040FEF7B7BD10BD000800403A190020C7
:1058A000D00300207047704770470000F8B50446E9
:1058B00022681068D168536900F00F06002E08D1E5
:1058C000850606D58D0604D52046BDE8F84003F0D0
:1058D000B8B90025002E66D003F0010601F49077D8
:1058E000374360D0C20705D0CA0503D5226C42F009
:1058F00001022264420705D5DA0703D0226C42F088
:1059000002022264820705D5DA0703D0226C42F036
:1059100004022264020707D501F02002324303D0BB
:10592000226C42F008022264226C002A31D08006E8
:1059300004D5880602D5204603F083F92068406923
:10594000C0F38010216C090700D438B3204603F05F
:1059500036F92068406940061CD52068143050E8AC
:10596000001F21F0400140E80012002AF5D1A06B91
:1059700060B157490165A06BFEF797FA002808D07F
:10598000A06B016D01B0BDE8F04008472046FFF76D
:105990008BFFF8BD2046FFF787FFF8BD2046FFF7D5
:1059A00083FF2564F8BD236B012B7ED1C3067CD514
:1059B000CB067AD510685068009050694FF02003EC
:1059C000400643D5A16B0868406880B20028E9D042
:1059D000A28D8242E6D9E085C869B0F5807F2DD0DE
:1059E00020680C3050E8001F21F4807140E800125C
:1059F000002AF5D12068143050E8001F21F0010181
:105A000040E80012002AF5D12068143050E8001F49
:105A100021F0400140E80012002AF5D184F83E3020
:105A2000256320680C3050E8001F21F0100140E889
:105A30000012002AF5D1A06BFEF7F0F9A08DE18DE0
:105A4000401A81B22046FFF72EFFF8BDA08DE18DF0
:105A5000401A81B2E08D0028F7D00029F5D02068E7
:105A60000C3050E8002F22F4907240E80026002EFF
:105A7000F5D12068143050E8002F22F0010240E8F0
:105A80000026002EF5D184F83E30256320680C30C6
:105A900050E8002F22F0100240E80023002BF5D13F
:105AA0002046FFF700FFF8BDFFE7020606D50A060D
:105AB00004D52046BDE8F84003F0B0B94006F2D561
:105AC0004806F0D52046BDE8F84003F09FB8000036
:105AD000198B000870B50446002C04D094F83D00E2
