:020000040800F2
:10000000E860002029030008D9430008613D00088A
:100010007D430008890C0008BF4F00080000000065
:10002000000000000000000000000000690200085D
:10003000A713000800000000C5020008F5460008EC
:100040004303000843030008430300084303000878
:100050004303000843030008430300084303000868
:10006000430300084303000843030008390F000856
:10007000450F0008510F00085D0F0008690F0008C8
:10008000750F0008430300084303000843030008FA
:10009000E50C00084303000843030008430300087D
:1000A0004303000843030008430300084303000818
:1000B000E547000843030008F14700084303000830
:1000C00043030008430300084303000843030008F8
:1000D00043030008154E0008694E0008DD4E000875
:1000E00043030008430300084303000843030008D8
:1000F000430300084303000843030008810F00087E
:1001000043030008430300084303000843030008B7
:10011000314B0008494B0008430300084303000823
:10012000430300088D0F0008990F000843030008DF
:100130004303000843030008430300084303000887
:10014000DD0D0008430300084303000843030008D3
:1001500043030008A50F0008B10F00086D4F000809
:100160004303000843030008430300084303000857
:100170004303000843030008430300080000000095
:10018000430300084303000800F002F800F05CF8A5
:100190000AA090E8000C82448344AAF10107DA45E2
:1001A00001D100F051F8AFF2090EBAE80F0013F0D8
:1001B000010F18BFFB1A43F0010318475CBD000094
:1001C0007CBD00000A444FF0000C10F8013B13F016
:1001D000070408BF10F8014B1D1108BF10F8015BA0
:1001E000641E05D010F8016B641E01F8016BF9D193
:1001F00013F0080F1EBF10F8014BAD1C0C1B09D1EA
:100200006D1E58BF01F801CBFAD505E014F8016B5B
:1002100001F8016B6D1EF9D59142D6D370470000ED
:100220000023002400250026103A28BF78C1FBD8FF
:10023000520728BF30C148BF0B6070471FB509F097
:100240009EF91FBD10B510BD00F088F91146FFF7EB
:10025000F5FF06F0C7FD00F0A6F903B4FFF7F2FFC3
:1002600003BC00F0A9F900002C4B19680868B0E83D
:10027000F04F80F30988BFF36F8F4FF0000080F3D9
:10028000118870470000000008480068006880F38B
:1002900008884FF0000080F3148862B661B6BFF39F
:1002A0004F8FBFF36F8F00DF00BF00BF08ED00E08E
:1002B000DFF80C00016841F470010160704700BF75
:1002C00088ED00E0EFF30980BFF36F8F134B1A68DE
:1002D0001EF0100F08BF20ED108A20E9F04F1060CB
:1002E00009B44FF0500080F31188BFF34F8FBFF374
:1002F0006F8F08F0FFFC4FF0000080F3118809BCFD
:1003000019680868B0E8F04F1EF0100F08BFB0EC95
:10031000108A80F30988BFF36F8F704704000020B4
:10032000EFF30580704700000948804709480047FF
:10033000FEE7FEE7FEE7FEE7FEE7FEE7FEE7FEE795
:10034000FEE7FEE704480549054A064B70470000F2
:10035000BD47000889010008E85A0020E860002035
:10036000E85C0020E85C002053EA020C00F06980A1
:100370002DE9F04B4FF00006002B1FBFB3FA83F5B9
:1003800003FA05F424FA05F65E4012BF1643B2FAEA
:1003900082F502FA05F4C5F120051EBF22FA05FC1C
:1003A00044EA0C04203556EA044C4FEA144418BFC2
:1003B000641C4FF000084FF00009904271EB030CF1
:1003C00039D3002919BFB1FA81F701FA07F6B0FA5B
:1003D00080F700FA07F6C7F120071EBF20FA07FCD6
:1003E00046EA0C062037B6FBF4FCA7EB0507103FE6
:1003F00007F01F0BCBF120060CFA0BFB2CFA06F6CC
:1004000044BFB3460026202FA4BF5E464FF0000B2A
:100410005BEA060C08BF4FF0010B19EB0B09ABFBB5
:10042000027C48EB0608C01B06FB02CC0BFB03CC8E
:1004300071EB0C01C1E70B46024641464846BDE858
:10044000F08B13B54FF000004FF00001AFF30080C8
:10045000BDE81C40704710B5203AC0F00B80B1E8F1
:100460001850203AA0E81850B1E81850A0E81850E9
:10047000BFF4F5AF5FEA027C24BFB1E81850A0E8F2
:10048000185044BF18C918C0BDE810405FEA827C0C
:1004900024BF51F8043B40F8043B08BF7047D20723
:1004A00028BF31F8023B48BF11F8012B28BF20F8C4
:1004B000023B48BF00F8012B70474FF000020429AF
:1004C000C0F0128010F0030C00F01B80CCF1040C83
:1004D000BCF1020F18BF00F8012BA8BF20F8022BB7
:1004E000A1EB0C0100F00DB85FEAC17C24BF00F85D
:1004F000012B00F8012B48BF00F8012B70474FF08B
:10050000000200B5134694469646203922BFA0E863
:100510000C50A0E80C50B1F12001BFF4F7AF09076F
:1005200028BFA0E80C5048BF0CC05DF804EB890060
:1005300028BF40F8042B08BF704748BF20F8022BA3
:1005400011F0804F18BF00F8012B704770477047BB
:100550007047000000487047885A00207546FFF732
:10056000F9FFAE4605006946534620F00700854670
:1005700018B020B5FFF7E6FEBDE820404FF00006BA
:100580004FF000074FF000084FF0000B21F007017B
:10059000AC46ACE8C009ACE8C009ACE8C009ACE8BE
:1005A000C0098D46704710B50446AFF30080204661
:1005B000BDE81040FFF751BE01491820ABBEFEE771
:1005C00026000200704700002DE9F04104462DEDA1
:1005D000088BF0EE60AAB0EE619AF0EE429AB0EEAF
:1005E00062AA0D46164610EE100A08F057FF9FED5E
:1005F000528B53EC182B08F053FE08F01FFE0BEE45
:10060000100A1AEE900A08F049FF53EC182B08F074
:1006100047FE08F013FE0AEE900AFDEEC90A484FA5
:10062000B0EE000A10EE900A397B00B206F0C0FB73
:10063000F0EE408AFDEEE90A397BB0EE000A10EEDA
:10064000900A00B206F0B4FBB0EE409AFDEECA0A82
:10065000397BB0EE000A10EE900A00B206F0A8FB5B
:10066000B0EE408AB0EE4B0A04F0C8FEDFED359ADA
:1006700040EE298AB0EE6A0A04F0C0FEB0EE40AA4D
:10068000B0EE4B0A04F038FE2AEE000A00EE699A3A
:10069000B0EE6A0A04F030FEB0EE40AAB0EE4B0AAB
:1006A00004F02AFE2AEE000A00EE698AB0EE4B0A38
:1006B00004F022FE60EE289AB0EE4B0A04F09EFE93
:1006C00048EE009AC4ED009AB0EE6A0A04F014FEF7
:1006D00060EE099AB0EE6A0A04F090FE48EE409A85
:1006E000C5ED009AB0EE4B0A04F006FE20EE088A33
:1006F000B0EE6A0A04F000FE28EE008AB0EE4B0A63
:1007000004F07CFE60EE288AB0EE6A0A04F0F4FD84
:1007100008EEC08AB0EE6A0A04F070FE60EE098A44
:10072000B0EE4B0A04F0E8FD08EE808A86ED008A00
:10073000BDEC088BBDE8F081514CDE0033DF913F0A
:10074000B85900200AE81C412DE9F05F07462DED5D
:10075000028B0FA81646994690E80D100D46DDE96C
:100760000CABDDF84C800E99FE4CD1ED000AC4EDC7
:10077000130A90ED000A84ED140A92ED000A84ED4C
:10078000150A93ED000A84ED160A9CED000A84ED2B
:10079000170A98ED000A84ED180AFDEEE00ADFF86A
:1007A000C8839FEDF28A10EE900A98F80C10B0EE14
:1007B000480A00B206F0E9FA84ED130AD4ED140AEF
:1007C00098F80C10B0EE480AFDEEE00A10EE900A20
:1007D00000B206F0DAFA84ED140AD4ED150A98F89E
:1007E0000C10B0EE480AFDEEE00A10EE900A00B2DE
:1007F00006F0CBFA84ED150A94ED130A8AED000A8F
:1008000094ED140A89ED000A94ED150A8BED000AA7
:10081000E06C08F043FE9FEDD68B53EC182B08F0EC
:100820003FFD08F00BFDE064206D08F037FE53EC4F
:10083000182B08F035FD08F001FD2065606D08F00B
:100840002DFE53EC182B08F02BFD08F0F7FC60652B
:10085000D4ED160A94ED170A94ED181A20EE800ACA
:1008600020EE010AB5EEC00AF1EE10FA7DD0FDEEE1
:10087000E00A98F80C10B0EE000A10EE900A00B2F0
:1008800006F096FA84ED160AD4ED170A98F80C10C3
:10089000B0EE000AFDEEE00A10EE900A00B206F09B
:1008A00087FA84ED170AD4ED180A98F80C10B0EE08
:1008B000000AFDEEE00A10EE900A00B206F078FAA7
:1008C00084ED180AD4ED160A20EEA01AD4ED170A0A
:1008D00000EEA01A00EE001AB0EE410A06F0E8F9A8
:1008E00084ED0C0AD4ED160A60EE802AC4ED162AB7
:1008F000D4ED170A20EE803A84ED173AD4ED180AA9
:1009000060EE803AC4ED183A94ED060AD4ED080A78
:1009100094ED052A94ED071A60EE201AB8EE004A0D
:1009200042EE411A61EE841AC4ED0D1A62EE004ADD
:1009300041EE204A24EE844A84ED0E4A22EE022A39
:1009400000EE402A11EE012A00EEE02A84ED0F2A83
:1009500063EE840A43EE420AC4ED100A22EE821AC4
:1009600003EEE11A84ED111A00E019E063EE211A9A
:1009700042EEC41AC4ED121A94ED132A94ED030A40
:1009800000EE202A84ED132AD4ED140A40EE010A69
:10099000C4ED140AD4ED150A40EE210AC4ED150A7F
:1009A00094ED050A84ED190AD4ED060AC4ED1A0A7D
:1009B00094ED071A84ED1B1AD4ED081AC4ED1C1A25
:1009C00094ED132AF1EE602A94ED153A62EE824A14
:1009D000D4ED142AD4ED043AB0EE404A41EE624A16
:1009E00041EEC34A04EEA34A84ED054AB0EE445AF0
:1009F00060EE024AB0EE604A41EE034A41EEE24A3E
:100A000004EEA34A84ED064A60EE225AF0EE414A13
:100A100040EEC35A41EE825A45EEA34AC4ED074A5E
:100A200020EE030A00EEA20A01EE420A40EE231A6B
:100A3000C4ED081A25EE050A04EE040A04EEA40A21
:100A400001EEA10A06F034F984ED0C0AD4ED050A92
:100A500020EE802A84ED052AD4ED060A20EE801AC5
:100A600084ED061AD4ED070A60EE801AC4ED071A69
:100A7000D4ED080A20EE800A84ED080A62EE020A2C
:100A8000B0EE008A284641EE410A41EEE10A61EEED
:100A9000881A40EE000A21EE800A62EE081A01EE82
:100AA000810A04F015FB94ED060AD4ED080A94EDD2
:100AB000071A20EE080A20EE200AD4ED050A60EE9F
:100AC000880A00EEC10A84ED1D0AF7EE000A40EE26
:100AD000400A24487830F5EEC00AF1EE10FA04DB43
:100AE000B1EEE01A80ED001A03E0DFED230AC0ED5D
:100AF000000A3846D4ED1E0A04F0EAFA94ED050A1D
:100B000094ED061A94ED072A60EE000AD4ED081A57
:100B1000304641EE010A21EE021A00EE211A42EEA1
:100B2000420A21EE080A41EEE10A04F0D1FAD5EDBD
:100B3000000A9FED120A60EE800AC5ED000AD7EDAB
:100B4000000A9FED0F1A60EE810AC7ED000AD6ED8C
:100B5000000A20EE800A86ED000A0020BDEC028B20
:100B6000BDE8F09F28010020B85900200000FA4499
:100B7000514CDE0033DF913F00000000DF2E654264
:100B8000DF2E65C22DE9F04F87B00646DDE910ABD8
:100B90000F46904699460D2203A90C2003F00CF94C
:100BA0009DF80D009DF80E1040EA0121ADF80010EF
:100BB0009DF80F009DF8102040EA0222ADF80220B7
:100BC0009DF811009DF8123040EA0323ADF804307F
:100BD0009DF813009DF8144040EA0424ADF8064047
:100BE0009DF815009DF8165040EA0525ADF808500F
:100BF0009DF817009DF818C040EA0C20ADF80A00D7
:100C0000A9F80010AAF80020ABF8003034803D802D
:100C1000A8F8000007B0BDE8F08F000038B5044622
:100C200002226946222003F09DF89DF801009DF8FC
:100C3000022040EA022001B2DFED100A10060CD5B6
:100C4000C1F30E0000EE100AB8EEC01A9FED0C0AB8
:100C500001EE200A84ED000A38BD47F6FF70884394
:100C6000401C00B200EE100AB8EEC01A9FED050A53
:100C700001EE600A84ED000A38BD00000000003B70
:100C8000000024C20000AE42FEE7000000B587B0BD
:100C900040F2FF100190002003900490082005907E
:100CA0006B46034A01A9034800F0A2FB07B000BD50
:100CB00098000020404D002000B587B04FF4007030
:100CC0000190002003900490082005906B46034A91
:100CD00001A9034800F08CFB07B000BD9000002084
:100CE000404D0020014800F009BD0000404D0020AB
:100CF00010B5A0F2012006283CD2DFE800F0030B7B
:100D00001E1528311C4806F0DEFDBDE810401A48CB
:100D100006F090BD18489030044606F0D4FD2046F9
:100D2000BDE8104006F086BD1448044606F0CBFD31
:100D30002046BDE8104006F07DBD104890300446C6
:100D400006F0C1FD2046BDE8104006F073BD0C481A
:100D5000044606F0B8FD2046BDE8104006F06ABD26
:100D600007489030044606F0AEFD2046BDE810402E
:100D700006F060BD10BD00002C0800204C090020CA
:100D80006C0A002000B587B040F2FF1001900020EF
:100D900003900490082005906B46034A01A903487C
:100DA00000F026FB07B000BDA8000020684D002021
:100DB00000B587B04FF400700190002003900490BC
:100DC000082005906B46034A01A9034800F010FB78
:100DD00007B000BDA0000020684D0020014800F0D1
:100DE0008DBC0000684D002010B5A0F500700138E2
:100DF0000CD0012813D002281BD10E48044606F05F
:100E000062FD2046BDE8104006F014BD0A480446C5
:100E100006F059FD2046BDE8104006F00BBD054820
:100E20009038044606F04FFD2046BDE8104006F01D
:100E300001BD10BDAC0C00208C0B00204178007867
:100E400041EA00207047C178807841EA002000B272
:100E500070474179007941EA002000B270478079FB
:100E60007047000010B58AB0154800F045FD1548E0
:100E700000F042FD002004900121089106900791A6
:100E8000009001900290039005900E240994694609
:100E90000B4800F027FB0A4800F087FE02210848B3
:100EA00000F094FA05946946064800F01BFB0548DB
:100EB00000F07BFE0221034800F088FA0AB010BD62
:100EC000404D0020684D002010B5FFF7F5FEFFF7FC
:100ED0006FFFFFF7DBFEBDE81040FFF753BF0000D8
:100EE00007490020086048600649086048600649D4
:100EF00008604860054908604860FFF7E5BF0000EA
:100F00009000002098000020A0000020A8000020F1
:100F100010B5054C6068816888472068C1698847BA
:100F2000BDE8104005F0BABFF00D002001460148B1
:100F300003F02FBAAC0C0020014800F0C3BE000043
:100F4000D0500020014800F0BDBE0000B05200208B
:100F5000014800F0B7BE000010500020014800F02A
:100F6000B1BE000010530020014800F0ABBE0000ED
:100F700070500020014800F0A5BE00005052002033
:100F8000014800F09FBE000030510020014800F0F1
:100F900099BE000070530020014800F093BE00008D
:100FA00090510020014800F08DBE0000D053002079
:100FB000014800F087BE0000F05100202DE9F04FFD
:100FC000099E00248568802D18D0A24DC563A24DCE
:100FD000456490F83450012D15D0012580F8345027
:100FE00090F83550012D10D0002180F834100224E3
:100FF000002180F834102046BDE8F08F4FF4807156
:1010000041650120F8E70220F6E7022580F8355017
:101010000025456505682F6847F480272F6005681F
:101020002B6103685E608368402B25D0036899605C
:101030000168CA608A4D8A4E884FDFF820E2EA14C0
:10104000DFF81CC2DFF81482DFF81492DFF80CA27C
:1010500001687836303793020CF1300CA8F118088B
:1010600009F190090AF1480A4FF0006B71453BD92C
:10107000A94206D1202233E003689A600268D16059
:10108000D8E7764D483DA94201D1202228E0744D91
:101090006035A94201D1202222E0704D1835A942C5
:1010A00001D120221CE06E4D1835A94218D06B4D9D
:1010B000303DA94214D0B14212D0B94210D061459E
:1010C00001D11A460CE0414501D11A4608E04945D4
:1010D00001D11A4604E0514501D11A4600E05A46B2
:1010E0005E494C390A60AFE0DFF874E10EF1A80EFA
:1010F000714536D9A94201D120222EE0574D483DF5
:10110000A94201D1202228E0554D6035A94201D1E4
:10111000202222E0514D1835A94201D120221CE0A5
:101120004F4D1835A94218D04C4D303DA94214D02E
:10113000B14212D0B94210D0614501D11A460CE03B
:10114000414501D11A4608E0494501D11A4604E05B
:10115000514501D11A4600E05A46404950390A60CB
:1011600072E0DFF8FCE00EF1480E714536D9A94275
:1011700001D120222EE0394D483DA94201D1202243
:1011800028E0374D6035A94201D1202222E0334DBD
:101190001835A94201D120221CE0314D1835A94251
:1011A00018D02E4D303DA94214D0B14212D0B942D0
:1011B00010D0614501D11A460CE0414501D11A46D3
:1011C00008E0494501D11A4604E0514501D11A46CB
:1011D00000E05A4622491039CA6035E0A94201D1DF
:1011E00020222EE01D4D483DA94201D1202228E0B9
:1011F0001B4D6035A94201D1202222E0174D183540
:10120000A94201D120221CE0154D1835A94218D061
:10121000124D303DA94214D0B14212D0B94210D083
:10122000614501D11A460CE0414501D11A4608E05A
:10123000494501D11A4604E0514501D11A4600E062
:101240005A46074910398A6001680A6842F001026B
:101250000A60CDE6796000089D600008586402408D
:10126000106002400168CAB2103A1823B2FBF3F2D0
:10127000064B9B5CC3656FF30901032A02D9091D64
:10128000816500E08165806D70470000AA950008C7
:1012900010B5014600208A6A8B694FF0C074002B9C
:1012A0000ED0B3F5005F1AD062B3012A2AD0022A09
:1012B00028D0032A03D1C96AC90100D5012010BD75
:1012C0001AB1012A06D0022AF9D1C96AC901F6D594
:1012D000012010BDC96AA142FBD1012010BD52B14D
:1012E000012A0AD0022A06D0032AF7D1C96AA142EC
:1012F000F4D1012010BD012010BDC96AC901FBD580
:10130000012010BD012010BD70B5002490F83450AC
:10131000012D0CD0012580F8345090F8356000255F
:10132000012E06D080F834500224204670BD0220E1
:1013300070BD022680F83560456505682E6826F484
:1013400080262E6005686B608368402B09D0036897
:1013500099600168CA600068016841F0010101609C
:10136000E3E703689A600268D160F4E710B503F020
:101370005DFD03F085FD03F0BDFD03F0D9FD03F035
:1013800001FE03F023FA03F039FABDE81040FFF73D
:1013900069BD01680A68D20604D5C968C90601D5C5
:1013A00007F0B4BA7047704772B6FEE710B504464E
:1013B0002146054802F0EDFF604201B20248BDE857
:1013C0001040903002F0E5BF8C0B002090F82020F8
:1013D000012A07D0022A05D0416A41F480214162E6
:1013E00001207047006842690A434261002070474B
:1013F000F0B590F820500468A468012D07D0022DA4
:1014000005D0416A41F4802141620120F0BD04F021
:10141000806504F00066354301D1E5005BD5C4F377
:101420000164022C05D9416A41F4000141620120A6
:10143000F0BD0125A5401D608B684FF4C0759BB1C0
:10144000CE6805EB041733434E6843EAC6030668CB
:10145000F3514FF4C273076803EB04130E69FE5097
:10146000097D012909D00DE00E88CB6805EB041732
:1014700043EA46530668F351EBE70168CE5846F459
:101480008076CE501179D379567941EA0361937908
:101490001B0443EA062319434FF4C676036806EBA0
:1014A000041699511178D37841EA03619378527800
:1014B0001B0443EA022211434FF4C473026803EB96
:1014C0000413D150006805EB0411425842F00102A8
:1014D00042500020F0BD416A41F4001141620120F8
:1014E000F0BD000010B590F82020012A07D0022A94
:1014F00005D0416A41F480214162012010BD3C4881
:1015000000F50070026842F001020260026822F4F5
:101510007C52026002684B6A42EA032202600A7D42
:1015200002F01F0301229A40C3699343C361A0F5EF
:101530000070CB69B3B9D0F80C329343C0F80C32C9
:101540008C894B6864F31F434C6900EBC404C4F8F6
:1015500040320C890B6864F31F434C6900EBC404F0
:10156000C4F84432CB69012B16D1D0F80C321343A6
:10157000C0F80C320C884B6864F31F434C6900EBD5
:10158000C404C4F840320C89CB6864F31F434C692F
:1015900000EBC404C4F844328B697BB1D0F8043248
:1015A0001343C0F804320B6973B1D0F814321343FB
:1015B000C0F81432096A01290CD010E0D0F80432C6
:1015C0009343C0F80432EEE7D0F814329343C0F8E6
:1015D0001432EFE7D0F81C121143C0F81C12D0F8F7
:1015E000001221F00101C0F80012002010BD00001F
:1015F00000640040704730B590F82040012C07D0BF
:10160000022C05D0416A41F480214162012030BDA5
:1016100021B104682469A4075FD003E00468E4688A
:10162000A40754D04FF4D874056804EB01142D5965
:1016300005F004059560F5B305682D59ED08556072
:1016400005682C5904F00204D4604FF4DA7405687C
:1016500004EB01142D5905F00F05156105682D598E
:10166000C5F30725956105682C59240C54614FF486
:10167000DC72046802EB0112A4581C700468A458C0
:10168000240A5C700468A458240C9C700468A25856
:10169000120EDA704FF4DE72046802EB0112A458E5
:1016A0001C710468A458240A5C710468A458240CB2
:1016B0009C71046800E016E0A258120EDA71B9B10C
:1016C0000068016941F020010161002030BD416ADC
:1016D00041F400114162012030BD416A41F4001122
:1016E0004162012030BD05682D596D0D1560A7E7D9
:1016F0000068C16841F02001C160E6E72DE9F05FB4
:101700000546002428684669D0F804908768D0F818
:101710000CA0D0F810B0D0F81880F10748D0F90725
:1017200014D001218160B80703D5284600F06AFA79
:101730000CE0780702D54FF4006407E0380702D5C3
:101740004FF4805402E0284600F05BFAF80516D505
:1017500029684FF480708860B80503D5284600F0EA
:1017600053FA0CE0780502D544F4005407E038053C
:1017700002D544F4804402E0284600F044FAF8031D
:1017800016D529684FF480308860B80303D5284601
:1017900000F03CFA0CE0780302D544F4004407E082
:1017A000380302D544F4803402E0284600F02DFAD4
:1017B000300707D55FEACA6004D544F4007429688D
:1017C0001020C86070074FF0080707D55FEA0A705D
:1017D00004D52868C760284600F0B8F9B00706D5D8
:1017E0002868C068800702D0284600F0B1F970066A
:1017F00007D55FEACB6004D544F4806429681020E3
:101800000861B00607D55FEA0B7004D52868076148
:10181000284600F0C7F9F00606D528680069800759
:1018200002D0284600F0BFF9B00308D55FEAC960CE
:1018300005D5296810204860284600F0B5F9F00366
:1018400007D55FEA097004D528684760284600F08C
:10185000DEF9300446D55FEA497040D5F00504D57D
:101860005FEAC87001D044F00104B00504D55FEA16
:10187000887001D544F00204700504D55FEA487011
:1018800001D544F00404300529D518F0700F26D096
:1018900008F07000402815D006DC102809D0202858
:1018A0000AD0302816D10AE050280ED0602811D175
:1018B0000EE044F008040DE044F010040AE044F0A7
:1018C000200407E044F0400404E044F0800401E018
:1018D00044F480742868816921F07001816129686D
:1018E00004204860002C05D0686A204368622846BE
:1018F000FFF780FEBDE8F09F70B50446002C03D0D2
:1019000094F8200010B104E0012070BD204600F0E2
:101910009DF82068016841F00101016000F026FC9B
:10192000054605260CE000F021FC401B0A2807D9DB
:10193000606A40F40030606284F82060012070BD6D
:1019400020684068C007EED02068016821F00201DD
:10195000016000F00BFC05460CE000F007FC401BAA
:101960000A2807D9606A40F40030606284F8206079
:10197000012070BD206840688007EED4207E0128D9
:101980003FD02068016821F080010160607E01285D
:101990003DD02068016821F040010160A07E01284F
:1019A0003BD02068016821F020010160E07E012821
:1019B00039D02068016841F010010160207F0128C2
:1019C00037D02068016821F008010160607F01289C
:1019D00035D02068016821F004010160D4E90201DA
:1019E0000843D4E90412114308436168491E0843BF
:1019F0002168C86100206062012084F82000002076
:101A000070BD2068016841F080010160BEE7206878
:101A1000016841F040010160C0E72068016841F0C1
:101A200020010160C2E72068016821F01001016017
:101A3000C4E72068016841F008010160C6E720683A
:101A4000016841F004010160C8E700002DE9F041A0
:101A500086B00446142101A8FEF751FD364B374AE3
:101A6000DFF8D08018682168344C03260227401C18
:101A7000103200254FF0090C414527D1186001288C
:101A800007D1106840F000701060106800F000701E
:101A90000090206840F008002060206800F00800F6
:101AA00000900196029703950496CDF814C001A901
:101AB000234800F06BFA00220521142000F0F4FB0B
:101AC000142000F0E3FB06B0BDE8F081DFF874807D
:101AD0004145F8D1116841F080611160116801F051
:101AE000806100911860012807D1106840F00070F3
:101AF0001060106800F000700090206840F0020054
:101B00002060206800F002000090602001900297A1
:101B100003950496CDF814C001A90B4800F036FADD
:101B200000220521402000F0BFFB402000F0AEFB6A
:101B3000C9E70000006400408C00002030380240FB
:101B4000000C0240006800400004024070470000A2
:101B500010B5114988420DD1104B00211C46A3F14C
:101B60001C02FFF748FD0D4821461C380068FFF7AE
:101B7000BFF810BD0A498842FBD1084B002124332D
:101B80001C46A3F11C02FFF736FD0448214608302D
:101B90000068FFF729F910BD404D00209454002043
:101BA000684D002070477047704770B5044694F840
:101BB0002000012805D0606A40F400206062012006
:101BC00070BD022084F820002068016821F0010126
:101BD000016000F0CBFA05460DE000F0C7FA401BAB
:101BE0000A2808D9606A40F400306062052084F851
:101BF0002000012070BD20684068C007EDD1606200
:101C000070BD7047704770477047704770477047A6
:101C10002DE9F0410446A76D00F0A8FA054694F8B6
:101C200035000026022806D08020606584F83460E4
:101C30000120BDE8F0812068016821F016010160F3
:101C40002068416921F080014161206C08B9A06CD5
:101C500020B12068016821F0080101602068016856
:101C600021F0010101600BE000F080FA401B052823
:101C700006D9202034342062032060702670D8E713
:101C800020680068C007EFD134343F2094F8281052
:101C90008840B8600120607026700020C9E790F885
:101CA0003510022903D080214165012070470521AC
:101CB00080F835100068016821F001010160002002
:101CC000704700002DE9F84304464FF00009CDF8B5
:101CD00000906F484FF416510068B0FBF1F7A56D06
:101CE0002E6894F85C00082202FA00F1314210D00C
:101CF0002068016849070CD5016821F004010160E2
:101D000094F85C0002FA00F1A960606D40F00100F7
:101D1000606594F85C104FF0010808FA01F0304259
:101D200008D021684969090604D5A860606D40F0B3
:101D30000200606594F85C1004208840304208D0AE
:101D400021680968890704D5A860606D40F0040027
:101D5000606594F85C1010208840304220D02168E3
:101D6000096809071CD5A8602068016849030CD5DB
:101D70000068000304D4216C91B1204688470FE02D
:101D8000A16C69B1204688470AE00168C90503D4FF
:101D9000016821F008010160216C09B120468847E3
:101DA00094F85C102020884030424CD021680968AB
:101DB000C90648D5A86094F8350005280BD02068DE
:101DC0000168490330D50068000328D4616C51B321
:101DD0002046884737E02068016821F0160101603D
:101DE0002068416921F080014161206C08B9A06C34
:101DF00020B12068016821F00801016094F85C10AE
:101E00003F208840A86084F8358084F83490216DA4
:101E100000293BD001B02046BDE8F0430847E16B04
:101E200009B1204688470EE00168C90507D401685A
:101E300021F01001016084F8358084F83490E16B62
:101E400009B120468847606D00281FD0606DC0072B
:101E500014D0052084F835002068016821F00101C4
:101E600001600098401C0090B84203D820680068C8
:101E7000C007F6D184F8358084F83490E16C0029ED
:101E800004D001B02046BDE8F0430847BDE8F88320
:101E9000000000202DE9F041044600F067F90546F6
:101EA0005CB1022084F83500002684F83460206894
:101EB000016821F0010101600DE00120BDE8F08121
:101EC00000F054F9401B052805D920206065032047
:101ED00084F83500F2E720680068C007F0D1216877
:101EE0000A6820480240D4E901031843D4E90335C5
:101EF0002B43184363691843A3691843E3691843E4
:101F0000236A18431043626A042A03D1D4E90B23DD
:101F10001A43104308602068406920F00700656A92
:101F200029460543012704290DD1A06A0543E06A2B
:101F300048B12046FFF7ACF928B14020606584F82D
:101F400035700120BAE7206845612046FFF78AF91D
:101F500094F85C203F2191408160666584F835707B
:101F60000020ABE73F8010F070B5044600F0FEF8AB
:101F70000546601C02D004480078044400F0F6F8DE
:101F8000401BA042FAD370BD6C0000202DE9F84F31
:101F90000022DFF89C914FF0010803274FF00F0C4F
:101FA00009F1040AA9F1040B08FA02F50B682B40A9
:101FB000AB426ED10C7904F00304012C01D0022C49
:101FC00015D18668540007FA04FE26EA0E06D1F8F9
:101FD0000CE00EFA04FE4EEA060EC0F808E0446873
:101FE000AC430D79C5F300159540254345600C7948
:101FF000E443A40708D0C568540007FA04F6B543C3
:102000008E68A6402E43C6600C7904F00304022CAF
:1020100011D1D40800EB8406356A5407E40E0CFA9B
:1020200004FE25EA0E05D1F810E00EFA04FE4EEA91
:10203000050EC6F820E00568540007FA04F6B5431B
:102040000E7906F00306A6402E4306604C6814F491
:10205000403F67D0374C256845F4804525602468AB
:1020600004F480440094344C22F003052E19D6F871
:10207000085894074FEA147E0CFA0EF4A5432F4C2F
:10208000A04201D1002424E02D4CA04202D1012421
:102090001FE047E02B4CA04201D1022419E02A4C5A
:1020A000A04201D1032414E0284CA04201D1042411
:1020B0000FE0274CA04201D105240AE0254CA042A4
:1020C00001D1062405E0244CA04201D1072400E000
:1020D000082404FA0EF42C43C6F80848D9F8004046
:1020E0009C434D68ED0200D51C43C9F80040DAF866
:1020F00000409C434D68AD0200D51C43CAF8004027
:10210000DBF800409C434D68AD0300D51C43CBF881
:102110000040074D083D2C689C434E68F60300D5EF
:102120001C432C60521C102AFFF43EAFBDE8F88F10
:10213000083C0140443802400030014000000240A9
:102140000004024000080240000C0240001002405F
:102150000014024000180240001C0240002A01D076
:1021600081617047090481617047000001488068FF
:10217000704700006C00002002488168027811441A
:10218000816070476C00002010B50B48016841F475
:1021900000710160016841F480610160016841F4EF
:1021A00080710160032000F09FF80F2000F006F816
:1021B00000F050F8002010BD003C024030B587B060
:1021C000054600241F48016841F0010101600068D4
:1021D00000F00100009001A902A800F03DF9059867
:1021E000B0B100F05DF940001749B0FBF1F1491EB4
:1021F00016484FF08042026040F2E732C260416010
:1022000004618460846100F0EFFE04461CB115E0B7
:1022100000F046F9E8E70D4800F038FF04466CB9D5
:102220001C2000F033F8102D07D2002229461C2074
:1022300000F03AF80648056000E0012407B02046A7
:1022400030BD00004038024040420F0030540020B2
:102250007000002082B00C48016841F480410160A8
:10226000006800F4804001900748001F016841F0B9
:1022700080510160006800F08050019000220F2121
:10228000901E02B000F010B844380240002809DB6C
:1022900000F01F02012191404009800000F1E02080
:1022A000C0F8001170470000F0B40D460D4B1B68DC
:1022B000C3F30223C3F10704042C00D90424191D1D
:1022C000072901D2002300E0DB1E012606FA04F1F3
:1022D000491E294099409E40761E16403143F0BC6D
:1022E00002F0E6BE0CED00E000F00701054A1068C0
:1022F0004FF6FF03184040EA0120034908431060ED
:10230000704700000CED00E00000FA052DE9F047F1
:1023100004460D46002C13D0DFF82891D9F80000B0
:10232000EFB200F00700A8420CD289F80070D9F88B
:10233000000000F00700A84204D00120BDE8F087AB
:102340000120FBE72068404E810712D5400703D5E6
:10235000306840F4E05030602078000703D53068E2
:1023600040F4604030603068A16820F0F00008431D
:1023700030602078C00731D03349606808390128BF
:1023800008D002280BD0032809D0096889070BD48C
:102390000120D3E70968890306D40120CEE7096844
:1023A000890101D40120C9E7316821F0030101430B
:1023B0003160FFF7DBFE804641F2883A07E0FFF725
:1023C000D5FEA0EB0800504501D90320B6E73068E0
:1023D000616800F00C00B0EB810FF0D1D9F800007B
:1023E00000F00700A84209D989F80070D9F8000068
:1023F00000F00700A84201D001209FE720784007A5
:1024000005D53068E16820F4E0500843306020785A
:10241000000706D53068216920F4604040EAC10019
:10242000306000F05DF83168084AC1F30311515C77
:10243000C8400749086007480068FFF7BFFE002052
:102440007CE70000003C02400838024092950008FA
:1024500000000020700000200F2202600B4A136869
:1024600003F003034360136803F0F0038360136811
:1024700003F4E053C360126802F46042D2080261C0
:102480000348006800F00700086070470838024001
:10249000003C024001480068704700000000002036
:1024A00000B5FFF7F7FF04490968044AC1F3822128
:1024B000515CC84000BD000008380240A2950008E9
:1024C00000B5FFF7E7FF04490968044AC1F3423148
:1024D000515CC84000BD000008380240A2950008C9
:1024E00010B51748006810F00C01164816D0164BAE
:1024F000042912D0082911D1114C241F216801F0A0
:102500003F02216849020AD52068C0F38810A0FB69
:1025100003010023FDF728FF09E0184610BD2168DC
:102520000023C1F38811A1FB0001FDF71DFF216805
:10253000C1F30141491C4900B0FBF1F010BD00009E
:10254000083802400024F40040787D012DE9F84F5E
:102550000446002C13D02078DFF8A083C007A8F130
:10256000040556D008F104000168C1F38101012976
:102570000CD00068C0F38100022803D00DE00120D8
:10258000BDE8F88FD8F80000400206D5286880031F
:102590003FD5606870BB0120F2E76068B0F5803F0E
:1025A00010D0B0F5A02F12D0286820F48030286019
:1025B000286820F4802028606068E0B1FFF7D6FD2D
:1025C000064614E0286840F480302860F4E7286864
:1025D00040F480202860286840F480302860EBE7D1
:1025E000FFF7C4FD801B642801D90320C8E72868D1
:1025F0008003F5D50DE0FFF7B9FD064606E0FFF7CD
:10260000B5FD801B642801D90320B9E72868800341
:10261000F5D42078BA4F80074FF0000948D5B74865
:10262000001D016811F00C0F08D00068C0F3810094
:10263000022813D1D8F8000040020FD42868800780
:1026400004D5E068012801D0012099E728682169B4
:1026500020F0F80040EAC100286029E0E068B8B145
:1026600001203860FFF782FD064606E0FFF77EFD99
:10267000801B022801D9032082E728688007F5D54E
:102680002868216920F0F80040EAC10028600FE0C6
:10269000C7F80090FFF76AFD064606E0FFF766FD03
:1026A000801B022801D903206AE728688007F5D437
:1026B0002078000729D5DFF844A2924861690AF121
:1026C000700A89B101210160FFF750FD064606E05E
:1026D000FFF74CFD801B022801D9032050E7DAF8F0
:1026E00000008007F4D510E0C0F80090FFF73EFD31
:1026F000064606E0FFF73AFD801B022801D90320B9
:102700003EE7DAF800008007F4D42078400778D557
:102710004FF0000A79483C300068C0000BD477487D
:102720003C30016841F080510160006800F0805049
:1027300000904FF0010ADFF8D0B1DBF80000C005CF
:1027400014D4DBF8000040F48070CBF80000FFF7F1
:102750000DFD064606E0FFF709FD801B022801D9A2
:1027600003200DE7DBF80000C005F4D5634EA06838
:102770006C3601280FD0052812D0306820F00100F7
:102780003060306820F004003060A068F8B1FFF7D6
:10279000EDFC834617E0306840F001003060F4E75C
:1027A000306840F004003060306840F00100306074
:1027B000EBE7FFF7DBFCA0EB0B0141F28830814235
:1027C00001D90320DCE630688007F2D510E0FFF77E
:1027D000CDFC834609E0FFF7C9FCA0EB0B0141F2F9
:1027E0008830814201D90320CAE630688007F2D4DC
:1027F000BAF1010F05D141483C30016821F0805108
:102800000160A069C0B33D49091D09684FF0FF365A
:10281000C1F38101022946D0022805D0C7F8609093
:10282000FFF7A4FC04463AE0C7F86090FFF79EFC6F
:10283000814607E0FFF79AFCA0EB0900022801D9C6
:1028400003209DE628688001F4D4D4E907010843F9
:10285000616AA26A890106EB520241EA0241084319
:1028600094F82C1040EA0160C8F800000120386696
:10287000FFF77CFC044607E03DE0FFF777FC001B18
:10288000022801D903207BE628688001F5D532E0D3
:10289000FFF76CFC001B022801D9032070E62868B2
:1028A0008001F5D427E0012823D0D8F80000E269A0
:1028B00000F4800191421AD1226A00F03F01914256
:1028C00015D147F6C071626A0140B1EB821F0ED18B
:1028D000A26A00F4403106EB5202B1EB024F06D17E
:1028E00094F82C1000F07060B0EB016F03D0012061
:1028F00046E6012044E6002042E60000043802409B
:1029000000004742800E47420070004070B5044608
:10291000002C09D0606A002540B125616561A5627F
:1029200094F8510040B10CE0012070BD6068B0F532
:10293000827FF4D0E561F2E784F85050204600F041
:1029400045F8022084F851002068016821F0400118
:102950000160A088218900F4827001F404410843D9
:10296000A18901F400610843217C01F002010843C0
:10297000217D01F001010843218B01F4007108431E
:10298000217F01F03801084394F8201001F0800104
:102990000843218D01F40051084321680860A069B3
:1029A000042101EA104094F8241001F010010843BA
:1029B000216848602068C16921F40061C1616565D2
:1029C000012084F85100002070BD000010B586B0D1
:1029D0000446142101A8FDF792FD1449206888429D
:1029E00021D100211248026842F48042026000684E
:1029F00000F4804000900E481038026842F0020255
:102A00000260006800F0020000904FF46040019006
:102A1000022002900391032004900520059001A953
:102A20000448FFF7B3FA06B010BD000000380040BC
:102A300040380240000402402DE9F84F04468A461F
:102A400091461D46002660684FF0040BB0F5827F6A
:102A500001D1A06888B194F85000012818D0012055
:102A600084F85000FFF782FB074694F851004FF0BE
:102A7000000801280ED0022682E084F851B04B46AF
:102A8000524651462046009500F048F9BDE8F88FBF
:102A90000220FBE7BAF1000F1BD0B9F1000F18D0EC
:102AA00084F851B0C4F85480C4F838A0A4F83C901D
:102AB000A4F83E90C4F83080A4F83480A4F836809E
:102AC000C4F84080C4F84480A068B0F5004F02D03C
:102AD0000BE0012654E02068016821F0400101600C
:102AE0002068016821F4804101602068016849067E
:102AF00003D4016841F040010160E068B0B131E009
:102B000020688168C90709D0007BA16B0870A06BA1
:102B1000401CA063E08F401EE08707E0FFF726FB24
:102B2000C01BA84201D3681C04D11DB1E08F00284E
:102B3000E6D11AE0032623E020688168C90709D09E
:102B4000C068A16B0880A06B801CA063E08F401E52
:102B5000E08707E0FFF70AFBC01BA84201D3681C0F
:102B600015D1A5B1E08F0028E6D13A462946204686
:102B700001F0AEFC08B120206065606D00B1012657
:102B8000012084F8510084F8508030467EE7032607
:102B9000F6E72DE9F84F04468B4692461D4600267F
:102BA00094F8500001280DD04FF0010984F850909E
:102BB000FFF7DCFA074694F85100B046012804D02C
:102BC0000226A5E00220BDE8F88FBBF1000F1CD063
:102BD0005FEA0A0019D0032084F85100C4F8548039
:102BE000C4F830B0A4F834A0A4F836A0C4F83880F3
:102BF000A4F83C80A4F83E80C4F84480C4F8408027
:102C0000A068B0F5004F02D00BE0012680E02068FC
:102C1000016821F0400101602068016841F48041B1
:102C2000016020680168490603D4016841F0400151
:102C30000160E068B0F5006F05D0606878B3BAF164
:102C4000010F2DD04DE0606810B1BAF1010F20D115
:102C5000206B21680088C860206B801C2063E08E98
:102C6000401EE08615E020688168890709D5216B40
:102C70000988C160206B801C2063E08E401EE086C6
:102C800007E0FFF773FAC01BA84201D3681C04D108
:102C90001DB1E08E0028E6D126E0032638E0FFE7EC
:102CA000206B216800780873206B401C2063E08E45
:102CB000401EE08615E020688168890709D5216BF0
:102CC00009780173206B401C2063E08E401EE08673
:102CD00007E0FFF74BFAC01BA84201D3681C0ED1D6
:102CE0006DB1E08E0028E6D13A462946204601F033
:102CF00035FC08B120206065A06810B105E003260E
:102D000006E02068C16880680090606D00B101260F
:102D100084F8519084F85080304654E72DE9F84FFC
:102D200004460A9E8A4693461F4601254FF0000836
:102D300094F8500001280ED0012084F85000FFF7CD
:102D400015FA814694F85100616801280DD0B1F55B
:102D5000827F07D102E00220BDE8F88FA16809B99F
:102D6000042802D04FF00208C3E0BAF1000F28D0C7
:102D7000BBF1000F25D0380023D094F8510004286F
:102D800002D0052084F8510000206065C4F838B0F6
:102D9000E787A787C4F830A0E786A7862064606429
:102DA00020680168490603D4016841F040010160D0
:102DB000E068B0F5006F07D06068E8B3012F48D035
:102DC0007DE04FF0010894E0606808B1012F39D12F
:102DD000206B21680088C860206B801C2063E08E17
:102DE000401EE0862EE02068816889070DD5E18EBF
:102DF00059B1012D09D1216B0988C160206B801C5C
:102E00002063E08E401EE086002520688168C907A7
:102E10000BD0E18F49B1C068A16B0880A06B801C0A
:102E2000A063E08F401EE0870125FFF79FF9A0EB2C
:102E30000900B04206D300E00BE0701C02D04FF056
:102E4000030856E0E08E0028CDD1E08F0028CAD1DB
:102E50003BE0206B216800780873206B401C2063E6
:102E6000E08E401EE0862AE02068816889070DD543
:102E7000E18E59B1012D09D1216B09780173206BC5
:102E8000401C2063E08E401EE0860025206881689B
:102E9000C9070BD0E18F49B1C068A16B0870A06B66
:102EA000401CA063E08F401EE0870125FFF75EF91C
:102EB000A0EB0900B04201D3701C11D186B1E08EA5
:102EC0000028D1D1E08F0028CED14A463146204695
:102ED00001F044FB38B14FF001082020606508E0A4
:102EE0004FF0030805E0A06818B92068C168806841
:102EF00000900120503460700020207040462BE785
:102F00007047704710B590F83C20012A22D001226A
:102F100080F83C20CA6800238C6822F44072224367
:102F20004C6822F4806222430C6822F4006222433F
:102F30000C6922F4805222434C6922F4005222434D
:102F4000C96922F480420A4301684A6480F83C302F
:102F5000002010BD022010BD70B590F83C20012A61
:102F600031D0012680F83C60022280F83D200268C2
:102F70005468936824F070050C682C435460134C1B
:102F80000268A24214D0B2F1804F11D0104CA2427C
:102F90000ED0104CA2420BD00F4CA24208D00F4CC6
:102FA000A24205D00E4CA24202D00E4CA24204D145
:102FB00023F080034968194391603C30467000213A
:102FC0000170002070BD022070BD000000000140B3
:102FD0000004004000080040000C004000040140D4
:102FE000004001400018004010B50446002C03D0FA
:102FF00094F83D0010B107E0012010BD002084F8D6
:103000003C00204600F016F8022084F83D00211D07
:10301000206801F0FFFB01203D3460726070A070F9
:10302000E07020716071A071E0712072207000204A
:1030300010BD000008B500681149884209D1114847
:10304000016841F001010160006800F0010000909A
:1030500008BD0D498842FBD10A48001F016841F0B4
:1030600004010160006800F00400009000220521C6
:103070001E20FFF719F9BDE808401E20FFF706B92A
:1030800000000140443802400008004090F83D1024
:10309000012901D001207047022180F83D1001680C
:1030A000CA6842F00102CA6000681449884214D01C
:1030B000B0F1804F11D0124988420ED01149884298
:1030C0000BD01149884208D01049884205D01049D8
:1030D000884202D00F49884209D1816801F0070176
:1030E000062908D0016841F00101016003E0016890
:1030F00041F0010101600020704700000000014024
:103100000004004000080040000C004000040140A2
:10311000004001400018004070B50446002594F8B6
:103120003C00012817D0012684F83C60022084F876
:103130003D002068826822F0770222F47F4282609C
:103140000868502838D00DDC202853D005DC90B317
:10315000102811D14EE0022070BD30284AD04028FE
:103160000AD13DE0602831D070280CD0B0F5805FE6
:1031700003D0B0F5005F12D001253C34667000200A
:103180002070284670BDCB68D1E90121206801F08C
:10319000B4FB2068816841F077018160EDE7CB687E
:1031A000D1E90121206801F0A8FB2068816841F481
:1031B00080418160E1E71DE0CA684968206801F04C
:1031C0007FFC5021206801F0A2FBD6E7CA6849685D
:1031D000206801F086FC6021206801F098FBCCE7B4
:1031E000CA684968206801F06BFC4021206801F042
:1031F0008EFBC2E722680146104601F088FBBCE75F
:10320000704770B50446206801694FF00005C94356
:10321000890716D4C168C943890712D4E91E016120
:103220000120207720688069800703D02046FFF7BF
:10323000E7FF05E0204600F0C5F8204600F055F90C
:10324000257720680169C943490718D4C168C94373
:10325000490714D46FF0040101610220207720682F
:10326000806910F4407F03D02046FFF7C9FF05E0D6
:10327000204600F0A7F8204600F037F925772068AF
:103280000169C943090717D4C168C943090713D4A1
:103290006FF008010161042020772068C069800771
:1032A00003D02046FFF7ACFF05E0204600F08AF887
:1032B000204600F01AF9257720680169C943C9063C
:1032C00018D4C168C943C90614D46FF01001016154
:1032D000082020772068C06910F4407F03D0204682
:1032E000FFF78EFF05E0204600F06CF8204600F066
:1032F000FCF8257720680169C943C90708D1C1686E
:10330000C943C90704D1891E0161204600F05CF958
:1033100020680169C943090609D4C168C94309067F
:1033200005D46FF0800101612046FFF7E9FD2068B8
:103330000169C943490609D4C168C943490605D48E
:103340006FF040010161204600F066F920680169D4
:10335000C94389060BD4C168C943890607D46FF0F5
:10336000200101612046BDE87040FFF7CABD70BD75
:1033700010B586B00446142101A8FDF7C0F80E4828
:103380002168814216D100210C48026842F01002E7
:103390000260006800F0100000904FF4007001908F
:1033A00002200290039104910120059001A9044894
:1033B000FEF7ECFD06B010BD0000014030380240C1
:1033C00000100240704770B504460D46002694F880
:1033D0003C0001280FD0012084F83C006AB1042A87
:1033E0001FD0082A32D00C2A44D00126002084F8AD
:1033F0003C00304670BD022070BD2946206801F0B7
:103400008FFA2068816941F0080181612068816933
:1034100021F004018161206881692A691143816179
:10342000E4E72946206801F0AFFA2068816941F499
:10343000006181612068816921F480618161206877
:1034400081692A6941EA02218161CFE72946206822
:1034500001F0D4FA2068C16941F00801C161206817
:10346000C16921F00401C1612068C1692A69114361
:10347000C161BBE72946206801F0F8FA2068C169FC
:1034800041F40061C1612068C16921F48061C161BA
:103490002068C1692A6941EA0221C161A6E710B525
:1034A0000446002C03D094F83D0010B107E0012041
:1034B00010BD002084F83C00204600F015F80220E2
:1034C00084F83D00211D206801F0A4F901203D345D
:1034D00060726070A070E07020716071A071E07126
:1034E00020722070002010BD7047704710B5044650
:1034F000002909D004290AD008290BD094F84100EA
:1035000001280AD0012010BD94F83E00F8E794F895
:103510003F00F5E794F84000F2E70220A9B3042940
:1035200037D0082938D084F841000122206801F002
:10353000D7F91E4920681E4A884201D0904203D123
:10354000436C43F4004343642068884213D0B0F1D5
:10355000804F10D0174988420DD0174988420AD0B1
:103560001649884207D0904205D01549884202D0BA
:103570001449884213D1816801F00701062912D04D
:10358000016841F0010101600DE0FFE784F83E00B1
:10359000CBE784F83F00C8E784F84000C5E701683E
:1035A00041F001010160002010BD00000000014059
:1035B000000401400004004000080040000C0040EE
:1035C000004001400018004010B504460F49206833
:1035D000884212D10E4801884A1C0280A1F56A4235
:1035E000603A01D1002101800A4890F8291009B100
:1035F000052902D1016A074888472068B0F1804F49
:1036000003D1BDE81040FEF7B7BD10BD0008004073
:10361000780000205002002070477047704700007B
:10362000F8B5044622681068D168536900F00F06A7
:10363000002E08D1850606D58D0604D52046BDE8A6
:10364000F84001F0C9BA0025002E66D003F001064B
:1036500001F49077374360D0C20705D0CA0503D57F
:10366000226C42F001022264420705D5DA0703D03A
:10367000226C42F002022264820705D5DA0703D0E9
:10368000226C42F004022264020707D501F02002F6
:10369000324303D0226C42F008022264226C002ADA
:1036A00031D0800604D5880602D5204601F094FA70
:1036B00020684069C0F38010216C090700D438B33A
:1036C000204601F055FA2068406940061CD5206864
:1036D000143050E8001F21F0400140E80012002A99
:1036E000F5D1A06B60B157490165A06BFEF7D7FA21
:1036F000002808D0A06B016D01B0BDE8F04008477C
:103700002046FFF78BFFF8BD2046FFF787FFF8BD87
:103710002046FFF783FF2564F8BD236B012B7ED184
:10372000C3067CD5CB067AD51068506800905069E6
:103730004FF02003400643D5A16B0868406880B273
:103740000028E9D0A28D8242E6D9E085C869B0F5AB
:10375000807F2DD020680C3050E8001F21F480714C
:1037600040E80012002AF5D12068143050E8001F0C
:1037700021F0010140E80012002AF5D12068143040
:1037800050E8001F21F0400140E80012002AF5D166
:1037900084F83E30256320680C3050E8001F21F08B
:1037A000100140E80012002AF5D1A06BFEF730FAB4
:1037B000A08DE18D401A81B22046FFF72EFFF8BDA3
:1037C000A08DE18D401A81B2E08D0028F7D000294C
:1037D000F5D020680C3050E8002F22F4907240E8B9
:1037E0000026002EF5D12068143050E8002F22F07A
:1037F000010240E80026002EF5D184F83E30256312
:1038000020680C3050E8002F22F0100240E800231E
:10381000002BF5D12046FFF700FFF8BDFFE70206B9
:1038200006D50A0604D52046BDE8F84001F0C2BA24
:103830004006F2D54806F0D52046BDE8F84001F034
:10384000BEB90000614B000870B50446002C04D0DE
:1038500094F83D00002510B106E0012070BD84F809
:103860003C50204600F022F8242084F83D002068D7
:10387000C16821F40051C160204601F011FA2068AE
:10388000016921F4904101612068416921F02A0118
:1038900041612068C16841F40051C1602564202065
:1038A00084F83D0084F83E00002070BD2DE9F04F03
:1038B00087B00446142102A8FCF721FEFE48FD4B08
:1038C0001038D4F800C0FC4A032702210025061551
:1038D0004FF0400A4FF4003B4FF000694FF48078FE
:1038E0009C4554D1136843F400231360126802F41A
:1038F00000220192026842F001020260006800F0BA
:103900000100019002970391049505970820069005
:1039100002A9EA48FEF73AFBEA4FE9483860C7F8DF
:103920000490BD60FD603E617D61BD61C7F81C8093
:10393000C7F820B07D623846FEF7ACFA08B1FDF753
:1039400033FDA763BC63DE48DE4F3030603738603C
:10395000C7F80490C7F808A0FD603E617D61BD61B5
:10396000FD61C7F820B07D623846FEF793FA08B1D2
:10397000FDF71AFD6763BC63002205213420FEF7C2
:1039800093FC3420FEF782FC07B0BDE8F08FCE4BED
:103990009C456AD1136843F480131360126802F4E3
:1039A00080120192026842F004020260026802F092
:1039B00004020192026842F008020260006800F00E
:1039C000080001904FF4805002900220039004956B
:1039D00005970820069002A9BC48FEF7D7FA0420F4
:1039E000029002200390049505970820069002A9F2
:1039F000B748FEF7CBFAB248B24F3038C03738601C
:103A0000C7F80490BD60FD603E617D61BD61C7F88F
:103A10001C80C7F820B07D623846FEF73BFA08B13B
:103A2000FDF7C2FCA763BC63A548AA4F7830386095
:103A3000C7F80490C7F808A0FD603E617D61BD61D4
:103A4000FD61C7F820B07D623846FEF723FA08B161
:103A5000FDF7AAFC6763BC63002205213520FEF751
:103A600023FC3520FEF712FC8EE7DFF86CE207231B
:103A7000F44558D1904A121DD2F800C04CF0100CF9
:103A8000C2F800C0126802F010020192026842F00F
:103A900001020260006800F0010001904FF4C06074
:103AA0000290039104950597069302A98348FEF7B7
:103AB0006DFA884F894860373860C7F80490BD6058
:103AC000FD603E617D61BD61C7F81C80C7F820B014
:103AD0007D623846FEF7DEF908B1FDF765FCA763A5
:103AE000BC637E487B4F7830C0373860C7F804909D
:103AF000C7F808A0FD603E617D61BD61FD61C7F84A
:103B000020B07D623846FEF7C5F908B1FDF74CFCE0
:103B10006763BC63002205212520FEF7C5FB252035
:103B2000FEF7B4FB30E7DFF8B8E1F4453CD1D2F85A
:103B300000C04CF4003CC2F800C0126802F400322D
:103B40000192026842F001020260006800F0010088
:103B500001900C200290039104950597069302A909
:103B60005648FEF713FA56485E4F48303860C7F89B
:103B70000490BD60FD603E617D61BD61C7F81C8041
:103B8000C7F820B07D623846FEF784F908B1FDF72A
:103B90000BFCA763BC63002205212620FEF784FBF3
:103BA0002620FEF773FBEFE6DFF83CB1DC4555D18C
:103BB000D2F800C04CF4802CC2F800C0126802F4A5
:103BC00080220192026842F002020260006800F066
:103BD000020001904FF44060029003910495059714
:103BE000069302A94148FEF7D1F935483D4F1838F0
:103BF00060373860C7F80490BD60FD603E617D614C
:103C0000BD61C7F81C803D627D623846FEF742F90F
:103C100008B1FDF7C9FBA763BC632948314F1830D1
:103C2000C0373860C7F80490C7F808A0FD603E614F
:103C30007D61BD61FD613D627D623846FEF72AF916
:103C400008B1FDF7B1FB6763BC63002205212720A3
:103C5000FEF72AFB2720FEF719FB95E6244A944538
:103C6000A1D1154A121D136843F020031360126896
:103C700002F020020192026842F004020260006831
:103C800000F004000190C020029003910495059774
:103C90000820069002A90D48FEF778F90F48154F45
:103CA000183838604FF02069C7F80490BD60FD6097
:103CB0003E6121E0004C00404038024000000240DC
:103CC00040600240105000200050004000080240B8
:103CD000000C0240305100200010014040640240BE
:103CE00000440040505200200048004000040240C0
:103CF00000140140705300207D61BD61C7F81C8035
:103D00003D627D623846FEF7C5F808B1FDF74CFB11
:103D1000A763BC63104F0F483860C7F80490C7F81A
:103D200008A0FD603E617D61BD61C7F81C803D62F9
:103D30007D623846FEF7AEF808B1FDF735FB6763E4
:103D4000BC63002205214720FEF7AEFA4720FEF7AC
:103D50009DFA19E6A0640240D053002070477047D6
:103D6000FEE700002DE9F74388461746104D4FF453
:103D70008054002221462846FEF7F0F99DF80030D5
:103D800043F0800300934FF47A763346012269466C
:103D90000848FEF7FEFE33467A1C41460548FEF70A
:103DA0004BFE012221462846FEF7D8F9BDE8FE83E6
:103DB00000040240904D00202DE9F7438846174645
:103DC000144D4FF48054002221462846FEF7C6F9D0
:103DD0000021012001F098FC9DF8003043F08003A1
:103DE00000934FF47A763346012269460A48FEF77B
:103DF000D0FE33467A1C41460748FEF71DFE0021DF
:103E0000012001F081FC012221462846FEF7A6F997
:103E1000BDE8FE8300040240904D002010B510481C
:103E20000E4901600321416000218160C1604FF4AF
:103E3000002202614FF44012426101760122427673
:103E40008176C17601774177FDF756FD002803D0D2
:103E5000BDE81040FDF7A8BA10BD000000640040A6
:103E6000404D002010B510480E490160032141600B
:103E700000218160C1604FF4002202614FF44012C2
:103E800042610176012242768176C17601774177DF
:103E9000FDF732FD002803D0BDE81040FDF784BADD
:103EA00010BD000000680040684D002008B535488E
:103EB000016841F400110160016801F400110091F2
:103EC000016841F480010160006800F48000009006
:103ED000002205210B20FEF7E7F90B20FEF7D6F9AB
:103EE000002205210C20FEF7DFF90C20FEF7CEF9A9
:103EF000002205210D20FEF7D7F90D20FEF7C6F9A7
:103F0000002205210E20FEF7CFF90E20FEF7BEF9A4
:103F1000002205210F20FEF7C7F90F20FEF7B6F9A2
:103F2000002205211020FEF7BFF91020FEF7AEF9A0
:103F3000002205212F20FEF7B7F92F20FEF7A6F962
:103F4000002205213920FEF7AFF93920FEF79EF94E
:103F5000002205213A20FEF7A7F93A20FEF796F94C
:103F6000002205214520FEF79FF94520FEF78EF936
:103F7000002205214620FEF797F9BDE808404620BB
:103F8000FEF784B93038024010B59CB01C221649A7
:103F900015A8FCF760FA002115A803F026F8134CC9
:103FA00020601C2210491C310EA8FCF754FA002195
:103FB0000EA803F01AF860601C220B49383107A8DC
:103FC000FCF749FA002107A803F00FF8A0601C22B3
:103FD000054954316846FCF73EFA0021684603F073
:103FE00004F8E0601CB010BDB49500087C0000200F
:103FF0002DE9F04186B0142101A8FCF780FA0024D5
:104000002648016841F080010160016801F08001EB
:104010000091016841F004010160016801F00401B0
:104020000091016841F001010160016801F00101A6
:104030000091016841F002010160016801F0020194
:104040000091016841F008010160006800F008007B
:104050000090DFF84C8001220E214046FEF77EF8EA
:10406000104F4FF48055002229463846FEF776F867
:104070000E200190012602960394049401A9404663
:10408000FDF784FF0195029603940220049001A994
:104090003846FDF77BFF06B0BDE8F08130380240BE
:1040A000000802400004024010B510480E490160AB
:1040B0004FF48271416000218160C1600161416102
:1040C0004FF4007282611022C2610162416281621A
:1040D0000A21C162FEF71AFC002803D0BDE8104097
:1040E000FDF762B910BD000000380040904D00207F
:1040F00010B596B00024129413941494159410944F
:1041000011941C2109A8FCF7FAF9202101A8FCF759
:10411000F6F929482749016040F28F6141608460C7
:1041200040F2CF71C160046144618461FEF75CFFBD
:1041300008B1FDF739F94FF48050129012A91E48CA
:10414000FEF7EAFF08B1FDF72FF91B48FFF7A7F9C3
:1041500008B1FDF729F91094119410A91648FEF73B
:10416000FBFE08B1FDF720F9602009900A940B943A
:104170000C940D940E940F94002209A90E48FFF799
:1041800022F908B1FDF710F9019402940394049404
:1041900005944FF400500690089401A90648FEF7D4
:1041A000B1FE08B1FDF700F90348FFF7E1F816B0DA
:1041B00010BD000000000140E84D002010B586B0A1
:1041C00000240294039404940594009401941448E8
:1041D0001249016053214160846040F2F311C160D3
:1041E000046180218161FEF7FFFE08B1FDF7DCF874
:1041F0004FF48050029002A90948FEF78DFF08B1E4
:10420000FDF7D2F80094019469460548FEF7A4FE34
:10421000002801D0FDF7C8F806B010BD0008004026
:10422000304E002010B50C480A4901604FF4E131CE
:10423000416000218160C16001610C2242618161A5
:10424000C161FFF701FB002803D0BDE81040FDF776
:10425000ABB810BD004C0040784E002010B50C48A3
:104260000A4901604FF4E131416000218160C16081
:1042700001610C2242618161C161FFF7E5FA00280A
:1042800003D0BDE81040FDF78FB810BD00500040CE
:10429000BC4E002010B50C480A4901604FF4E121E2
:1042A000416000218160C16001610C224261816135
:1042B000C161FFF7C9FA002803D0BDE81040FDF73F
:1042C00073B810BD00100140004F002010B50D481C
:1042D0000B4901600C49416000218160C1604FF4CD
:1042E00080620261042242618161C161FFF7ACFA20
:1042F000002803D0BDE81040FDF756B810BD0000FF
:1043000000440040444F0020A086010010B50C4836
:104310000A4901604FF4E131416000218160C160D0
:1043200001610C2242618161C161FFF78DFA0028B1
:1043300003D0BDE81040FDF737B810BD004800407D
:10434000884F002010B50C480A4901604FF4E13154
:10435000416000218160C16001610C224261816184
:10436000C161FFF771FA002803D0BDE81040FDF7E6
:104370001BB810BD00140140CC4F0020FEE710B563
:10438000047C43690A0A1A554269007C1044417052
:1043900010BD10B504462068B0F9020000EE100A06
:1043A000B8EEC00A84ED030A00EE901AF8EEE00AB7
:1043B00030EEC00A84ED040A04F1080004F058F954
:1043C00094ED0C0ABDEEC00A10EE100A01B260684E
:1043D000BDE81040FFF7D3BFFEE7000002680021F0
:1043E000118102685181026891810268D18103685C
:1043F00003221A7403685A74026851830268918315
:104400000268D18302689FED280A82ED080A0268DB
:1044100082ED090A026882ED0A0A026882F82C100D
:10442000026882F834100268A2F8BC10026882F8B0
:104430004410026882F86410026882F85C10026816
:1044400082F86C10026882F8AC10026882F8B4102E
:10445000026882F83C10026882F84C10026882F808
:104460005410026882F87410026882F87C100268A6
:1044700082F88410026882F88C10026882F8941026
:10448000026882F89C10026882F8A4100268918287
:1044900002685182026891750268D175026851768E
:1044A00000680176704700000000000010B5064863
:1044B000FEF72CFA012211030448FDF74FFEBDE878
:1044C00010400120FDF750BD904D00200004024037
:1044D000F8B504464FF4827560684FF48063A842D3
:1044E0000AD1A068B0F5004F01D0984204D12068ED
:1044F000066826F0400606606068A8421ED1A068E3
:1045000098420DD00B46009200228021204600F0F8
:1045100053F808B3606D40F0200060650320F8BDDB
:104520000B46009200220121204600F045F898B188
:10453000606D40F0200060650320F8BD0B460092DE
:1045400000220121204600F037F828B1606D40F0CC
:10455000200060650320F8BD0020F8BD7CB504464E
:104560001348144D0068B0FBF5F04FF47A756843BA
:1045700001906068B0F5827F0DD10B460092002259
:104580008021204600F018F878B1606D40F02000DE
:10459000606503207CBD019838B10198401E0190F0
:1045A00020688068C0430006F5D500207CBD00006F
:1045B0000000002000366E012DE9F84304460F4646
:1045C00091461E46089DFDF7D1FD401B351AFDF7AB
:1045D000CDFD804626480068C0F3CB30684300908C
:1045E0003AE0701C38D0FDF7C1FDA0EB0800A842EE
:1045F00003D215B1009858B32BE02068416821F030
:10460000E00141606068B0F5827F0BD1A068B0F531
:10461000004F02D0B0F5806F04D12068016821F00E
:1046200040010160A06AB0F5005F09D1206801680F
:1046300021F4005101602068016841F400510160DB
:10464000012050346070002020700320BDE8F88302
:1046500000250098401E00902068806837EA00001E
:1046600004D000204845BCD10020EFE70120F9E745
:1046700000000020012002F0ABFCFBE7064C207E8E
:1046800028B1FCF72DFC012002F0A2FCF7E702F0B4
:1046900049FBFCF719FCF6E748030020094C01220E
:1046A00002212046FDF75AFD012204212046FDF794
:1046B00055FD012208212046FDF750FD012002F0A2
:1046C00087FCFBE700080240084C094D04F128066E
:1046D000616A30468847216A044888476969044806
:1046E0008847012002F074FCF2E70000500200202D
:1046F0004803002010B5502080F31188BFF34F8F7E
:10470000BFF36F8F04F0CCFC18B104494FF0805018
:104710000860002080F3118810BD000004ED00E067
:1047200030B593B0302107A8FBF7E9FE142102A8A9
:10473000FBF7E5FE00251F48016841F0805101604C
:10474000006800F0805001901B48016841F48041EE
:104750000160006800F480400190092007904FF448
:104760008030089001200C9002240D9480050E905A
:1047700019200F904FF4A8701090119404201290FB
:1047800007A8FDF7E3FE08B1FCF70EFE0F2002902C
:10479000039404954FF4A05005904FF48050069078
:1047A000052102A8FDF7B2FD002801D0FCF7FCFDB1
:1047B00013B030BD4038024000700040024801682C
:1047C00041F470010160704788ED00E010B50448C5
:1047D000FEF70AFCBDE8104000210148FEF786BE46
:1047E000E84D00200148FEF70CBD000030540020C9
:1047F0000148FEF706BD0000304E002010B5044809
:10480000FEF7F2FBBDE810400148FEF73FBC000098
:10481000304E00202DE9F0410268264D264E274FEC
:10482000DFF89CC0274B4FF08048A84209D0404594
:1048300007D0B04205D0B84203D0604501D09842BD
:1048400003D122F070044A682243A8421BD040459D
:1048500019D0B04217D0B84215D0604513D0984255
:1048600011D0194CA0420ED0184CA0420BD0184CBD
:10487000A04208D0174CA04205D0174CA04202D04D
:10488000164CA04203D122F44074CA6822434C69FA
:1048900022F08002224302608A68C2620A68826251
:1048A000A84201D0984201D1096901630121416107
:1048B000BDE8F08100000140000400400008004015
:1048C000000C004000040140004001400044014051
:1048D0000048014000180040001C0040002000403B
:1048E00010B501F01F0101238B40046A9C43046250
:1048F000036A8A401343036210BD10B5846824F430
:104900007F4442EA03220A432243826010BD826848
:1049100022F070020A4342F00701816070470000F4
:10492000F0B5026A22F001020262026A43688469F9
:1049300024F0700424F003050C682C4322F00205D7
:104940008A682A430E4E0F4FB04201D0B84205D1BB
:1049500022F00805CA682A4322F00402B04201D0BE
:10496000B84207D123F4807323F400734D691D43CB
:104970008B692B4343608461496841630262F0BDE7
:104980000000014000040140F0B5026A22F010026C
:104990000262036A4268846924F4E04424F44074A7
:1049A0000D6844EA052423F020038D6843EA0513CB
:1049B000104D114EA84201D0B04206D123F0800321
:1049C000CF6843EA071323F04003A84201D0B04266
:1049D00009D122F4806222F400624D6942EA850224
:1049E0008D6942EA8502426084614968816303629D
:1049F000F0BD00000000014000040140F0B5026A73
:104A000022F480720262026A4368C46924F070046E
:104A100024F003050C682C4322F400728D6842EAEE
:104A20000522104D104EA84201D0B04206D122F40A
:104A30000062CF6842EA072222F48062A84201D0D5
:104A4000B04209D123F4805323F400534D6943EA63
:104A500005138D6943EA05134360C4614968C16366
:104A60000262F0BD000001400004014030B5026A5E
:104A700022F480520262046A4268C36923F4E0436C
:104A800023F440730D6843EA052324F400548D6831
:104A900044EA0534084DA84202D0084DA84204D18A
:104AA00022F480424D6942EA85124260C36149683E
:104AB0000164046230BD00000000014000040140B8
:104AC00010B5036A046A24F001040462846924F0C6
:104AD000F00444EA021423F00A020A4384610262E9
:104AE00010BD10B5036A23F0100303628469036AE2
:104AF00024F4704444EA023223F0A00343EA011193
:104B00008261016210BD00000349024809684088C3
:104B100048637047B4000020E84D00200349024874
:104B20000968008848637047B4000020E84D002001
:104B300010B50448FCF72DFCBDE810400148FEF715
:104B40006FBD0000784E002010B50448FCF721FC32
:104B5000BDE810400148FEF763BD0000BC4E0020D8
:104B600010B5806B0021C185C184FEF757FD10BDD3
:104B700001680C3151E8002F22F4907241E80023C3
:104B8000002BF5D10168143151E8002F22F0010209
:104B900041E80023002BF5D1016B012909D10168FF
:104BA0000C3151E8002F22F0100241E80023002BC5
:104BB000F5D1202180F83E1000210163704710B527
:104BC0000168CA6822F04002CA60202180F83D10C6
:104BD000FFF7C5F8002010BD08B590F83E10222957
:104BE00001D0022008BD82684FF480539A4201D15F
:104BF000016921B1816A9A421DD052B10BE0816AEC
:104C000002685268C2F308020A80816A891C8162C4
:104C100009E002697AB10268526802F07F020A7004
:104C2000816A491C8162C18D491E0904090CC18534
:104C300005D0002008BD026852680A70F0E70168DC
:104C4000CA6822F02002CA600168CA6822F4807231
:104C5000CA6001684A6922F001024A61202180F895
:104C60003E10016B012903D0FFF778F8002008BD42
:104C70000021016301680C3151E8002F22F010027D
:104C800041E80023002BF5D101680A68D20602D55D
:104C90000A6849680091818DFEF7BFFCE6E70000D5
:104CA0002DE9F041044620680169E26821F4405191
:104CB00011430161A1682069E26901436069104301
:104CC00001432068C26849F20C639A430A43C260F8
:104CD00020684169A26921F440711143416133495F
:104CE0002068884202D03249884202D1FDF7E8FBB1
:104CF00001E0FDF7D5FBE169002319276425322681
:104D0000B1F5004F28D061688B0F8A00A0FB070126
:104D1000FBF72AFB0146B0FBF5F07A42504301EB6A
:104D2000800006EB0010B0FBF5F000F0F002B1FBE4
:104D3000F5F002EB0012B1FBF5F07B42584301EBBA
:104D4000800006EB0010B0FBF5F0216800F00F00CA
:104D500010448860BDE8F08161684A18A0FB070133
:104D60005B41FBF701FB0146B0FBF5F00201B1FB33
:104D7000F5F06FF01803584301EB800006EBC0001C
:104D8000B0FBF5F000F0F80002EB4002B1FBF5F0EB
:104D9000584301EB800006EBC000B0FBF5F0216842
:104DA00000F0070010448860D4E7000000100140C4
:104DB0000014014090F83D10212901D002207047D5
:104DC0008168B1F5805F01D1016961B1016A4A1C56
:104DD0000262026809785160C18C491E0904090CFD
:104DE000C1840AD013E0016A02680988C1F308018E
:104DF0005160016A891C0162EEE70168CA6822F00D
:104E00008002CA600068C16841F04001C1600020B2
:104E10007047000010B50448FCF7BBFABDE810402D
:104E20000148FEF7FDBB0000004F002082B00B4A96
:104E30001068016841680191C16841F01001C160CA
:104E40001068416941F0400141611168906B091D92
:104E50006423034A02B0FCF757BA0000004F002059
:104E6000C05400207047000010B50448FCF791FAC8
:104E7000BDE810400148FEF7D3BB0000444F0020BE
:104E800008B50C4A1068016841680091C16841F09A
:104E90001001C1601068416941F040014161122078
:104EA00000901168044B906B091DA3F11802FCF7E8
:104EB00085F808BD444F00203C55002010B5064C35
:104EC00001462046E26890472169204688472046EF
:104ED000BDE8104002F0F2BA4803002010B50448C3
:104EE000FCF757FABDE810400148FEF799BB0000F7
:104EF000884F002082B00B4A106801684168019118
:104F0000C16841F01001C1601068416941F0400181
:104F100041611168906B091DC823034A02B0FCF778
:104F2000F3B90000884F002054550020704700005E
:104F300082B00B4A1068016841680191C16841F074
:104F40001001C1601068416941F040014161116880
:104F5000906B091DC823034A02B0FCF7D5B90000C5
:104F6000BC4E00201C5600207047000010B50448BD
:104F7000FCF70FFABDE810400148FEF751BB0000F6
:104F8000CC4F002082B00B4A106801684168019143
:104F9000C16841F01001C1601068416941F04001F1
:104FA00041611168906B091DC823034A02B0FCF7E8
:104FB000ABB90000CC4F0020E45600207047FEE75C
:104FC0002DE9F0470AACDDED080A94E8F0039DED09
:104FD000091A00EE100A3448B8EEC00A80ED000A43
:104FE00000EE101AB8EEC00A80ED010A00EE102A99
:104FF000B8EEC00A80ED020A00EE103A1830B8EEA2
:10500000C00A80ED000AB8EEE00A80ED010AB8EEB1
:10501000C10A80ED020A244B03220121234800F03B
:10502000AFF9214B21480C3303220121083000F055
:10503000A7F91E4A1D480832A2F1100100F0A4F998
:1050400019480C3090ED000A84ED000A90ED010A39
:1050500085ED000A90ED020A86ED000A00F10C03CE
:1050600003220121114800F08BF90F4B0F48243324
:1050700003220121083000F083F90C4A0B48083262
:10508000A2F1100100F080F90748243090ED000AE9
:1050900087ED000A90ED010A88ED000A90ED020A02
:1050A00089ED000ABDE8F08784590020AC0100209A
:1050B0000907090E002804DB00F1E02080F8001445
:1050C000704700F00F0000F1E02080F8141D7047D9
:1050D00010B59FED823A4FF07E51F7EE003ADFEDCA
:1050E000801ADFED802AF5EEC00A7F4AF1EE10FA51
:1050F0003CDD80EE201A0023B5EEC01AF1EE10FA66
:1051000002D20123B1EE411A11EE104A8C4214DD95
:1051100083EE810A0121C1F1090402EB8404F0EE5F
:10512000610A94ED001AF0EE411A40EE201A491C73
:105130000A29F0DB32EEE10A11E00121C1F1090494
:1051400002EB8404F0EE610A94ED000AF0EE401ADE
:1051500041EE201A491C0A29F0DB31EE830A0BB11B
:10516000B1EE400A80ED000A002010BDF5EEC00A45
:10517000F1EE10FA7ED29FED5D2AB5EEC00AF1EE97
:1051800010FA3DDD80EE201A0023B5EEC01AF1EED4
:1051900010FA02D20123B1EE411A11EE104A8C42EC
:1051A00014DD83EE810A0121C1F1090402EB8404BC
:1051B000F0EE610A94ED001AF0EE411A40EE201A6A
:1051C000491C0A29F0DB32EEE10A11E00121C1F1AC
:1051D000090402EB8404F0EE610A94ED000AF0EE9B
:1051E000401A41EE201A491C0A29F0DB31EE830AED
:1051F0000BB1B1EE400A30EE020A80ED000A4FE03A
:10520000B5EEC00AF1EE10FA3FD280EE201A00236C
:10521000B5EEC01AF1EE10FA02D20123B1EE411A36
:1052200011EE104A8C4214DD83EE810A0121C1F196
:10523000090402EB8404F0EE610A94ED001AF0EE2A
:10524000411A40EE201A491C0A29F0DB32EEE10A2D
:1052500013E00121C1F1090402EB8404F0EE610ABC
:1052600094ED000AF0EE401A41EE201A491C0A297A
:10527000F0DB00E016E031EE830A0BB1B1EE400A3C
:1052800030EE420A80ED000A0AE010EE101AC90F53
:1052900021B19FED170A80ED000A01E080ED002AA0
:1052A000002010BDF5EEC00AF1EE10FA13D1B5EEF4
:1052B000C00AF1EE10FA03DDC0ED002A002010BD97
:1052C000B5EEC00AF1EE10FA05D29FED0A0A80EDA4
:1052D000000A002010BD6FF0030010BD00000000A8
:1052E000A59204BDDB0FC93F78BE0008DB0F494023
:1052F000DB0F49C0DB0FC9BF9FED1E1AF5EE000A98
:1053000040EE010ABDEEE00A10EE100AF5EEC00A0A
:10531000F1EE10FA00D2401E00EE100AB8EEC00AFC
:1053200030EEC00ADFED140A20EE200ABCEEC01AEF
:1053300011EE100A80B2B0F5007F02D3002030EEEB
:10534000600A00EE900AF8EE600A70EE600A0B49FF
:1053500001EB800292ED000A401C01EB800090ED11
:10536000001AF7EE001A71EEE01A21EE800A00EE44
:10537000810A704783F9223E0000004474B6000899
:1053800001804280436070472DE9F04F4768D1F8B3
:105390000490D2F804A0B0F800C04D88B0F802B074
:1053A0004FF00008DFED141A0AEB88062C46486817
:1053B000B0EE610A3B465A4608E0F3EC010A90ED74
:1053C000001A00EE810A00EB8500521E002AF4D17B
:1053D000A6EC010A641E281B09EB8000002CE7D113
:1053E000A84407EB8B07ACF1010CBCF1000FDBD13B
:1053F0000020BDE8F08F000000000000DFED1D0A76
:1054000020EE200AFDEEC00A10EE900AB5EEC00AAA
:10541000F1EE10FA00D2401E00EE900AF8EEE00A1B
:1054200030EE600ADFED140A20EE200ABCEEC01A4E
:1054300011EE100A80B2B0F5007F02D3002030EEEA
:10544000600A00EE900AF8EE600A70EE600A0B49FE
:1054500001EB800292ED000A401C01EB800090ED10
:10546000001AF7EE001A71EEE01A21EE800A00EE43
:10547000810A704783F9223E0000004474B6000898
:1054800010B504461E21201DFBF739F89FED040AD4
:1054900084ED1F0A0020208084ED200A10BD00004A
:1054A0000000000070B504462DED028BB0EE408A7E
:1054B0000D461E2D00D91E2500EE905A94ED201A9F
:1054C000F8EE600AB4EE601AF1EE10FA08D0204649
:1054D000FFF7D6FF00EE905AF8EE600AC4ED200AFE
:1054E000B4F9000000EE905A04EB8000F8EE601A68
:1054F00090ED011AC1EE210A94ED1F1A71EE600AB7
:10550000C4ED1F0A80ED018A00EE105A2088F8EEE3
:10551000400A88EE200AD4ED1F0A30EE200A84EDFE
:105520001F0A401C00B290FBF5F105FB1100208022
:10553000BDEC028B70BD2DE9F04105460F4690464B
:10554000404601F038FDA8BBA5B398F84760002499
:1055500024E004EB840101EBC40215F8221051B1E0
:10556000012908D0022906D0092904D004290DD325
:10557000012E07D00AE005EB82004246012100F02F
:10558000FAF909E04146002000F01AFB40B9424612
:105590002146284600F0FAFE641CE4B2BC42D8D38F
:1055A000012E09D1002807D14146BDE8F041012074
:1055B00000F006BB4FF0FF30BDE8F08110B50446A7
:1055C000204601F0F8FC00282CD1242020704FF454
:1055D0000050A4F84A000320A4F84800607A20B1E3
:1055E0000020E072206918B104E00120E072F9E7C0
:1055F0000D482061204600F0ABFA002812D10B487C
:10560000E061333020620820207511216175072187
:10561000A1750749E16584F860002046BDE81040A7
:1056200000F02EB910BD00002A9600082AB6000826
:10563000BC0100207CB505460E46144600220092AF
:105640000192204601F0B7FC68B965B16A4631465F
:10565000284602F04EF9002804D1DDE90001224677
:1056600002F0D0F97CBD4FF0FF307CBD2DE9F04158
:1056700005460F469046404601F09DFC98BB95B309
:1056800098F84760002422E004EB840101EBC40297
:1056900015F8221041B1012906D0022904D00929A8
:1056A00002D0012E07D00AE005EB8200424601211C
:1056B00000F0EDFA09E04146002000F081FA40B91F
:1056C00042462146284602F017FB641CE4B2BC4265
:1056D000DAD3012E09D1002807D14146BDE8F041B7
:1056E000012000F06DBA4FF0FF30BDE8F08170B5D9
:1056F00004464FF47A7503E00021284600F004F8D0
:10570000641E601CF8D170BD70B5054600F00EFA3D
:10571000044600F00BFA001BA842FAD370BD704794
:10572000F0B500230026547D11E0D56903EB430753
:10573000ED5D8D4209D1D16903EB430211440A8822
:10574000028089788170012603E05B1CDBB29C42F9
:10575000EBD83046F0BD2DE9F743884617461025B3
:1057600000244FF030090026B8F1000F0DD067B1CA
:10577000387D9DF80010884240D93B460122694699
:105780002F2000F046FA20B12FE04FF0FF30BDE8A7
:10579000FE83F989102928D2CA0723D0491EF9812E
:1057A00020E0FA89AA420FD808EB06013B4648469A
:1057B00000F0A0F8BA7B9119CEB202EB090101F01A
:1057C000FF091119CCB208E008EB06013B462A4656
:1057D000484600F08FF86119CCB2C4F11001CDB287
:1057E0000028D4D1002DDCD1D1E70028CFD13B4611
:1057F00010224146302000F07DF8C8E76FF0090024
:10580000C5E72DE9F047074688469146484601F02E
:10581000C5FB88BB87B399F84760002428E007EBF5
:1058200004152978042905D3012E03D14946002007
:1058300000F0C6F940B9287809280DD0292806D0EB
:105840006FF00700002815D1012E0AD00EE0281DA8
:10585000494600F000FEF5E7281D494600F079FEB4
:10586000F0E718B94946012000F0AAF9641CE4B237
:105870004445D4D3BDE8F087FFE74FF0FF30F9E7A8
:105880001FB5044694F84800800716D5204601F05D
:1058900085FB18B14FF0FF3004B010BD29208DF802
:1058A0000000224601216846FFF7ABFF0028F3D134
:1058B000BDF80410A4F84410EEE76FF00700EBE722
:1058C00070B505460C46204601F068FB60B95DB135
:1058D000226C07486168904723462946BDE870401E
:1058E0000122212000F006B84FF0FF3070BD00000B
:1058F000E02202002DE9F043A1B081460F46904618
:105900001C460025204601F049FB064630002CD1FC
:105910005FB3607A08B949F08009E07AD4F838C0FA
:1059200000EB080201A948466368E047A07294F8BA
:105930004700012808D0226C022061689047A07AB5
:1059400040B16FF0010612E0226C4FF4E170616823
:105950009047F4E701A805E0E17A4219895C79559E
:105960006D1CADB24545F7D301E04FF0FF3621B0D5
:105970003046BDE8F0832DE9F0470446884691465D
:10598000484601F00BFB80BB7CB399F847700026BA
:105990003CE006EB860101EBC60514F8251004294E
:1059A00001D2022905D1012F03D14946002000F080
:1059B00007F950B914F8250048B101280ED0022883
:1059C00014D0092819D06FF0070008BB1CE004EBC5
:1059D0008500801C494600F009FCF6E704EB8500D1
:1059E000801C494600F008FDEFE71BE004EB850052
:1059F000801C494600F06FFCE7E704EB8500801C43
:105A0000494600F067FDE0E7761CF6B24645C0D394
:105A1000012F09D1002807D14946BDE8F0470120F0
:105A200000F0CEB84FF0FF30BDE8F08770B5044607
:105A30000D46284601F0B2FA40B93CB12B4621464A
:105A4000BDE8704001220320FFF754BF4FF0FF3044
:105A500070BD000010B50024631E00281CD0012971
:105A600002D0002339B10CE00D4A692111700121E7
:105A70004172184610BD43721AB90A4981630A4936
:105A8000C16307494160094901642E21C181036155
:105A90006420FFF72CFE00E01C46204610BD0000ED
:105AA000CC010020995D0008F95D00080957000845
:105AB0002DE9F84305460C4690462E462807070E6A
:105AC000002000904346012269465820FFF712FF4C
:105AD000002825D1042C25D2280745EA106534B1C9
