:020000040800F2
:10000000C85E00205D0200086B480008593F0008E8
:100010006948000835100008195400080000000065
:100020000000000000000000000000009D0100082A
:10003000211B000800000000F9010008E94B00083E
:1000400077020008770200087702000877020008AC
:10005000770200087702000877020008770200089C
:100060007702000877020008770200085D17000891
:100070007702000869170008770200087702000875
:100080007517000877020008770200087702000859
:100090006110000877020008770200087702000864
:1000A000770200087702000877020008770200084C
:1000B000B94C0008770200087702000877020008B0
:1000C000770200087702000877020008770200082C
:1000D00077020008AD5200081953000877020008A3
:1000E000770200087702000877020008770200080C
:1000F00077020008770200087702000881170008DD
:1001000077020008770200087702000877020008EB
:10011000994F0008B14F00087702000877020008E5
:1001200077020008770200088D17000877020008A0
:1001300077020008770200087702000877020008BB
:10014000091100087702000877020008770200080A
:10015000770200087702000877020008770200089B
:10016000770200087702000877020008770200088B
:1001700077020008770200087702000800000000FC
:100180007702000877020008DFF80CD000F05AFB75
:1001900000480047F9830008C85E00202C4B19680E
:1001A0000868B0E8F04F80F30988BFF36F8F4FF015
:1001B000000080F3118870470000000008480068C4
:1001C000006880F308884FF0000080F3148862B65E
:1001D00061B6BFF34F8FBFF36F8F00DF00BF00BF6B
:1001E00008ED00E0DFF80C00016841F470010160E7
:1001F000704700BF88ED00E0EFF30980BFF36F8F19
:10020000134B1A681EF0100F08BF20ED108A20E96A
:10021000F04F106009B44FF0500080F31188BFF325
:100220004F8FBFF36F8F0BF043F84FF0000080F358
:10023000118809BC19680868B0E8F04F1EF0100F6B
:1002400008BFB0EC108A80F30988BFF36F8F704746
:10025000380B0020EFF30580704700000648804708
:1002600006480047FEE7FEE7FEE7FEE7FEE7FEE79B
:10027000FEE7FEE7FEE7FEE79D4C00088901000867
:100280002DE9F05F0546002092469B4688460646CB
:10029000814640241BE0284641464746224600F05E
:1002A000ACF953465A46C01A914110D3114618462C
:1002B000224600F093F92D1A67EB01084F462246BB
:1002C0000120002100F08AF917EB00094E41201EA1
:1002D000A4F10104DFDC484631462A464346BDE826
:1002E000F09F40EA01039B0703D009E008C9121FF1
:1002F00008C0042AFAD203E011F8013B00F8013BE0
:10030000521EF9D27047D2B201E000F8012B491E0B
:10031000FBD270470022F6E710B513460A460446A2
:100320001946FFF7F0FF204610BD2DE9FE4F80462D
:1003300081EA0300C00F0C46009021F0004123F039
:100340000045B8EB0200A94105D24046214690463F
:100350001C460B46024623F00040104347D0270DB1
:10036000C7F30A00C3F30A510290401A01904028D3
:100370006BDAC3F3130040F4801B0098924620B15F
:100380000023D2EB030A63EB0B0B01985946C0F133
:100390004002504600F022F906460D4650465946A6
:1003A000019A00F03AF910EB08006141002487EA55
:1003B000115284EAE7731A4340D0009A62B3019A5B
:1003C000012A4FEA075215DC001B61EB02014FF0D6
:1003D000004202EA0752CDE90042001C41F58011BB
:1003E00032462B4600F071F903B0BDE8F08F40466D
:1003F0002146F9E7001B61EB0201001C41F5801367
:1004000000185B412018A2F5001747EB030140EAF2
:10041000D570B6196D4111E06D084FEA360645EA10
:10042000C0754FEA0752001B61EB0201001C41F549
:10043000801149084FEA30000019514132462B46DD
:1004400003B0BDE8F04F00F031B900980122400040
:100450000023D0EB020263EBE073009821464FEAE1
:10046000E074B8EB000061EB0401E9E783F00043BE
:100470005BE781F0004158E72DE9FE4F81EA030474
:1004800004F0004421F0004100944FF0000B23F0F1
:10049000004350EA01045ED052EA03045BD0C3F388
:1004A0000A54C1F30A552C44A4F2F3340194A0FB7E
:1004B0000254C1F3130141F48011C3F3130343F455
:1004C000801301FB024400FB034E840A970A44EAAE
:1004D000815447EA8357A4FB076802958D0A05FB00
:1004E00007854FEA932C04FB0C542705029D4FEA25
:1004F000065847EA1637B5EB08056EEB070C870E72
:10050000920E47EA811742EA8312A7FB0201B6EB7B
:100510000B0164EB00042B0D43EA0C335E1844EB33
:100520001C50DA465146E7FB0201C5F313044FEABB
:100530000B3343EA14534FEA0432019C43EA0603A7
:10054000A4F10C040294009CCDE900B400F0BDF8C5
:1005500003B0BDE8F08F00200146F9E70EB5C10FEA
:1005600080EAE0700844CA07002140F233438DE876
:100570000E000A460B4600F0A8F803B000BD00F0DC
:10058000004230F000400AD0C10D01F56071C0F3A7
:10059000160042EA0151C20840071143704700208B
:1005A0000146704701F0004330B421F0004150EAA9
:1005B000010206D00A0DA2F56072C1F31301002AF0
:1005C00002DC30BC00207047440F44EAC104C10083
:1005D000E01830BC00EBC25000F031B8202A04DB38
:1005E000203A00FA02F1002070479140C2F1200346
:1005F00020FA03F3194390407047202A04DB203A85
:1006000021FA02F00021704721FA02F3D040C2F132
:1006100020029140084319467047202A06DBCB1779
:10062000203A41FA02F043EAE07306E041FA02F3AD
:10063000D040C2F12002914008431946704700297A
:10064000A8BF7047401C490008BF20F00100704758
:1006500010B4B0FA80FC00FA0CF050EA010404BFB8
:1006600010BC704749B1CCF1200421FA04F411FA0E
:100670000CF118BF012121430843A3EB0C01CB1D52
:100680004FEA00614FEA102042BF002010BC7047C3
:1006900000EBC35010440029A4BF10BC7047401C9D
:1006A000490008BF20F0010010BC704710B5141EAF
:1006B00073F1000408DA401C41F1000192185B411B
:1006C0001A4301D120F0010010BD2DE9F04D9246F2
:1006D0009B4611B1B1FA81F202E0B0FA80F2203209
:1006E0009046FFF77BFF04460F4640EA0A0041EAC6
:1006F0000B0153465A46084313D0114653EA0100F2
:1007000019D0C8F140025046FFF777FF05460E4664
:10071000504659464246FFF761FF084305D0012085
:1007200004E020463946BDE8F08D0020054346EA46
:10073000E0762C4337430A986305E40AA0EB0800EF
:100740000022FD0A44EA47540A3002D5002001463F
:10075000E9E7010510196941DDE90845001969411A
:10076000BDE8F04DA2E72DE9F04D81EA030404F065
:10077000004B21F0004514464FF0000A23F00041E1
:1007800050EA050220D054EA01021DD0C5F30A57F1
:100790000246C5F31303C1F31300C1F30A5640F434
:1007A000801543F48013A7EB0608101BD64608F209
:1007B000FD3873EB050002D308F1010801E092183F
:1007C0005B41B8F1000F03DA00200146BDE8F08D6F
:1007D00000204FF48011064684460EE0171B73EB91
:1007E000050705D3121B63EB050306434CEA010C16
:1007F00049084FEA300092185B4150EA0107EDD1F9
:1008000052EA030012D082EA040083EA0501084399
:1008100005D0101BAB4106D20122002306E00022C6
:100820004FF0004302E06FF0010253101AEB060094
:100830004CEB085110EB0A0041EB0B01BDE8F04D09
:10084000FFF734BF064C074D06E0E06840F00103B7
:1008500094E8070098471034AC42F6D3FFF798FCB1
:1008600038DD000858DD00082DE9F04D00231A4658
:100870001B1A8A4103DB00200146BDE8F08DC1F35D
:100880000A52C1F3130141F480154FF0000BD10758
:1008900002D100186D41521E0027044640F2FF119C
:1008A000384601EB620A3E468046024600204FF47D
:1008B0008011FFF7A2FEC2197141BB1846EB01007F
:1008C000B4EB030C75EB000C04D3E41A65EB0005E4
:1008D00017460E46241908F101006D418046342860
:1008E000E3DDF91946EB0600091BA84103D24FF0DE
:1008F000FF32134601E0002213461BEB070046EBD4
:100900000A51BDE8F04DFFF7D1BE70B58C1810F854
:10091000015B15F0070301D110F8013B2A1106D144
:1009200010F8012B03E010F8016B01F8016B5B1E5E
:10093000F9D12B0705D40023521E0DD401F8013B39
:10094000FAE710F8013BCB1A921C03E013F8015BA5
:1009500001F8015B521EF9D5A142D8D3002070BD29
:1009600070470000464910B54A6822F440324A6098
:100970004A6843681A434A6001684A6822F48072F0
:100980004A6001684A68036942EA03224A600168D2
:100990004A6822F040724A6001684A6883681A43D4
:1009A0004A6001688A6822F400628A6001688A6885
:1009B000C3681A438A60816A6FF07062D14201682D
:1009C0008A6822F070628A6001688A680CD0836A43
:1009D0001A438A6001688A6822F040528A6001687E
:1009E0008A68C36A1A4301E022F040528A600168B3
:1009F0008A6822F002028A6001688A68037E42EAFD
:100A000043028A6090F82010002901684A680FD0DC
:100A100042F400624A6001684A6822F460424A6017
:100A200001684A68174C436A04EB43331A4301E0F8
:100A300022F400624A600168CA6A22F47002CA6243
:100A40000168CA6A838B104C04EB03531A43CA62D1
:100A500001688A6822F400728A6001688A6890F8E6
:100A6000303042EA43228A6001688A6822F4806258
:100A70008A6001688A68406942EA8020886010BD07
:100A80000023014000E0FFFF0000F0FF30B50C46FE
:100A900005000CD0022C0AD90548A11E0288284660
:100AA00001F084F9291901F8020D000A487030BDDF
:100AB000220A002030B50C4605000AD0022C08D9C5
:100AC000601E81B2FF22284601F086F9291901F83B
:100AD000010C30BD2DE9F04116462DED0A8B0F4675
:100AE0008046B3F90030DDE9131000EE103ADDE97D
:100AF0001152F8EEC00AFE4CDDF840C0C4ED0E0AFB
:100B0000BCF9003000EE103AB8EEC00A84ED0F0ACE
:100B1000B5F90030032593FBF5F31BB203EB430358
:100B200000EE103AB8EEC00A84ED100AB2F90020C7
:100B300000EE102AB8EEC01A84ED111AB1F90010B7
:100B400000EE101AB8EEC00A84ED120AB0F90000E7
:100B500021EE000A01EE900AF8EEE11AC4ED131A34
:100B600020EE210AB5EEC00AF1EE10FA7DD0E14D7B
:100B7000297B9FEDE18AFDEEE00AB0EE480A10EE17
:100B8000900A00B207F00AFC84ED0E0AD4ED0F0AB9
:100B9000297BB0EE480AFDEEE00A10EE900A00B2A2
:100BA00007F0FCFB84ED0F0AD4ED100A297BB0EEB0
:100BB000480AFDEEE00A10EE900A00B207F0EEFBE4
:100BC00094ED0E1ADFEDCD0A21EE201A20EE200A58
:100BD00084ED0E1A94ED0F1A21EE201A84ED0F1AEF
:100BE00084ED100AD4ED110A297BB0EE000AFDEE67
:100BF000E00A10EE900A00B207F0E4FB84ED110A5F
:100C0000D4ED120A297BB0EE000AFDEEE00A10EEE8
:100C1000900A00B207F0D6FB84ED120AD4ED130A55
:100C2000297BB0EE000AFDEEE00A10EE900A00B259
:100C300007F0C8FBF0EE400AC4ED130A94ED110A68
:100C400094ED121A20EE000A01EE010A00EEA00A4D
:100C500007F064FA84ED070AD4ED110A60EE802AE9
:100C6000C4ED112AD4ED120A00E05CE160EE804A86
:100C7000B0EE008AC4ED124AD4ED130A20EE803A99
:100C800084ED133A94ED040AD4ED060AD4ED031A68
:100C900094ED051A20EE202A01EEC12A22EE084A20
:100CA00021EE802A84ED084A01EE202A22EE085A1D
:100CB00021EEA12A84ED095A00EE402A01EE412AD4
:100CC00000EEA02A84ED0A2A64EE823A43EE453A09
:100CD00023EE043A02EEC23A62EE852AC4ED0B3AE4
:100CE00044EEC42A84ED0C3AC4ED0D2A94ED142A86
:100CF00094ED015A03EE852A84ED142A94ED154AE9
:100D000003EE054A84ED154AD4ED164A42EE854AB3
:100D1000C4ED164AD4ED0E5A94ED005A45EE235A0E
:100D200035EE822A84ED0E2AD4ED0F3A45EE033AD1
:100D300033EE843A20EE424A84ED0F3AD4ED103A75
:100D400001EE434A61EE835A45EE223AB0EE615A13
:100D500073EEA42A61EE824AC4ED102AC4ED171A7C
:100D600041EE224A84ED180A00EEE24A84ED191A97
:100D7000C4ED1A0AD4ED023A40EEC34A40EE625A7C
:100D800004EE235AB0EE404A04EEA34A40EE825AE3
:100D900084ED035A84ED044A61EEA21AF0EE414A52
:100DA00045EEA34A40EE031A25EE050AC4ED054AB6
:100DB00004EE040A41EE421A04EEA40A41EEA30A2C
:100DC000C4ED060A00EEA00A07F0A8F984ED070AB0
:100DD000D4ED030A20EE80BA84ED03BAD4ED040A00
:100DE00060EE808AC4ED048AD4ED050A20EE809A74
:100DF00084ED059AD4ED060A60EE809A2BEE0B0A7C
:100E0000C4ED069A08EEE80A09EE490A09EEA90AB5
:100E100010EE100AFFF7B3FB29EE080A6BEE080A82
:100E200041EC1A0B20EE290A00EEA80A10EE100A77
:100E3000FFF7A5FB41EC100BB0EE4A1AF0EE6A1A70
:100E400004F076FE9FED2EBB51EC100B53EC1B2BE8
:100E5000FFF712FBFFF7A6FB386094ED040AD4ED10
:100E6000060A94ED051A20EE080A20EE200AD4EDB9
:100E7000030A60EE880A00EEC10A10EE100AFFF7BE
:100E80007EFB41EC100B04F037FB9FED1F1B51EC78
:100E9000100B53EC112BFFF7EFFAFFF783FBC8F8A9
:100EA000000094ED03CAD4ED048AD4ED05AA2CEE1B
:100EB0000C0A94ED06AA08EEA80A0AEEEA0A0AEE5F
:100EC0004A0A10EE100AFFF75AFB28EEAA0A41EC74
:100ED000190B0CEE0A0A20EE080A10EE100AFFF7B2
:100EE0004EFB41EC100BB0EE491AF0EE691A0FE020
:100EF00004000020501200200000FA44728A8E3C48
:100F00000000006066A64C400000006066A64CC071
:100F100004F00EFE53EC1B2B51EC100BFFF7ACFA58
:100F2000FFF740FB30600020BDEC0A8BBDE8F0818C
:100F30002DE9F047804691460F46122003F064F9F0
:100F40000446132003F060F944EA0026142003F05D
:100F50005BF90446152003F057F944EA00251620F2
:100F600003F052F90446172003F04EF9A8F8006088
:100F700044EA00203D80A9F80000BDE8F0872DE993
:100F8000FE4F1546DDE90C9A0E4607460C221C461C
:100F90006946104603F05EF9BDF80080BDF802C056
:100FA000BDF80430BDF80620BDF80810BDF80A00F1
:100FB000A4F80080A9F800C0AAF800303A80318077
:100FC0002880BDE8FE8F000038B5194805F00EFCFA
:100FD00005F080F8164805F041F8044605F07AF867
:100FE00024BB01208DF800000146114A684605F037
:100FF0008BFC05F06FF80E4803F0A6FC00208DF87E
:1010000000000B4A0121684605F07EFC05F062F8FD
:10101000074803F06FFC02208DF80000044A01210C
:10102000684605F071FC044605F054F8204638BDCA
:1010300050120020FEE7000000B58BB0684600F0BB
:1010400072F86946054801F04DF80221034800F0A6
:10105000D3FF024801F05EFB0BB000BD84150020F9
:10106000014801F03AB90000841500200A46014603
:10107000014800F091B800008415002070B5174CAD
:10108000A0F50072023A14D0A0F50072013A16D011
:10109000B0F5027F1AD0A0F50072073A1DD104F115
:1010A0005400226E05469047616E2846BDE87040A8
:1010B0000847E2680948904708482169F6E7074869
:1010C000A26A1C3005469047E16AEEE70348626C6D
:1010D000383005469047A16CE7E770BD94010020C9
:1010E00000B58BB0684600F01EF86946054800F070
:1010F000F9FF0221034800F07FFF024801F00AFBDC
:101100000BB000BDAC150020014801F0E6B80000AE
:10111000AC1500200A460146014800F03DB8000029
:10112000AC15002070470021016041608160C16002
:10113000016101224161C0E90612C0E9082170473E
:1011400010B5124A016891420DD1114B00211C4685
:10115000A3F11C0201F04DF80D4821461C3800682F
:10116000FFF78CFF10BD0B4A9142FBD1084B0021C9
:1011700024331C46A3F11C0201F03BF8044821462D
:1011800008300068FFF7CEFF10BD0000006400408B
:10119000C00E00200068004038B50B46164C0168B0
:1011A000A14201D1154904E0154CA14222D11349B5
:1011B00020310B6000238B60CB6008230B61138808
:1011C0001B0A0B7613784B7653881B0A8B76937821
:1011D000CB7693881B0A0B7713794B77D3881B0A3E
:1011E0008B779279CA776B4601F1180200F016FFEF
:1011F000002800D0012038BD00640040EC0E002023
:10120000006800401CB5002200920192027B6B46F0
:101210002DF81210017831B1012903D180681946E7
:10122000FFF778FF1CBD80681946FFF71FFF1CBD44
:1012300010B500F001F9BDE8104000F04BB9000016
:101240002DE9F05F4A4DE87902287DD1297ADFF84F
:101250002491DFF824A100274FF0804B4FF00108C4
:10126000A9F55774022933D1DAF838004E46B0F99F
:101270000200A0F69800404200EE100A4846B8EE80
:10128000C00A89ED020A09F043FD96ED021AD6ED77
:10129000030A31EE600AB5EEC00AF1EE10FA01DC85
:1012A00030EEC10A10EE100A58450DDCB4F9060004
:1012B000400009D0E068401CE060962804DB85F817
:1012C0000880DAF83800876096ED0A0A84ED0C0A87
:1012D000687A2A4E022832D1DAF85400B0F90200B6
:1012E000A0F69800404200EE100A3046B8EEC00A60
:1012F00086ED020A09F00CFD96ED021AD6ED030AFE
:1013000031EE600AB5EEC00AF1EE10FA01DC30EE03
:10131000C10A10EE100A58450DDCB4F9080040006F
:1013200009D02069401C2061962804DB85F80980DB
:10133000DAF85400876096ED0A0A84ED0D0A67809A
:10134000A780287A012800E010E00FD1687A0128F0
:101350000CD10B4985F80780484681F8008007F0DA
:1013600001F93046BDE8F05F07F0FCB8BDE8F09F3A
:10137000FD0900205C06002094010020E007002009
:1013800000030020054810B50078032805D2FFF7B8
:1013900057FFBDE8104000F003B810BD0003002067
:1013A00070B51E4D2C462878012827D0022824D15C
:1013B000D4ED100A94ED0F0A00F090FC1848006874
:1013C00090ED080AB5EEC00AF1EE10FA01DCB1EEBC
:1013D000400A10EE100A134988420EDC6069401C76
:1013E0006061502809DB03209FED0F0A287084ED0F
:1013F0000F0A9FED0E0A84ED100A70BD9FED0C0AD6
:10140000DFED0C0A84ED0F0AC4ED100A00F066FC53
:101410000220287000206080A080C9E7000300201F
:10142000E40000200000C04000007AC500409CC5D8
:101430000060EAC6002807C700B500F007F800F012
:1014400004F85DF804EB00F02DB970470D4910B5B4
:101450000C7800230C48012214B1012C02D002E0C8
:10146000037000E00270CC7844B1012C06D0022C4D
:1014700005D18378032B02D0827000E08370497815
:10148000417010BDFD0900204403002030B50F4815
:101490000F49046862680A6043685A684A60826853
:1014A00055688D60C5686868C86001F11000C56046
:1014B0000460C0E9013210302168016019684160A0
:1014C000116881602968C16030BD00006409002096
:1014D000B81200202DE9F0413D4F3C4E3868A6F18E
:1014E000540590ED080A3B4895ED0E1A0068B0F9D6
:1014F000060000EE900AF8EEE00A00EEC10A86ED62
:10150000220A8036304609F003FC386805F58A74F3
:10151000B0F90E000A3000EE100A2F48B8EEC00AEB
:10152000006802F043FE84ED010AD6ED0A0A204667
:1015300030EEC00A84ED020A09F0EAFB94ED0A0AD3
:10154000264985ED060AB1EE400A85ED070ACE6907
:10155000D1F800801D4FB6F90210B8F90200081A40
:1015600000EE100AB8EEC00A87ED400A07F5807752
:10157000384604F0A3FC97ED0A0AD4ED040AC03CF7
:1015800020EE200A85ED080AB1EE400A85ED090A31
:10159000B8F90200B6F90210D4ED520A084400EE80
:1015A000100AB8EEC00A30EE200A84ED520A04F5A3
:1015B000A074204604F0E6FC94ED0A0A85ED0A0AC0
:1015C000B1EE400A85ED0B0ABDE8F081540300201E
:1015D000E40000208C000020E40A00209401002098
:1015E00002480021418081807047000000030020F4
:1015F000284810B502799FED280A2849012A03D00E
:1016000081ED070A81ED060A4279012A03D081EDB6
:10161000090A81ED080A8079012803D081ED0B0ABF
:1016200081ED0A0A91ED060AD1ED080A42F228334B
:10163000B1EE400A5C4230EE600AD1ED0A0A30EEAB
:10164000600ABDEEC00A10EE100A00B2488091EDAB
:10165000070AD1ED090A9842B1EE400A30EE600A5D
:10166000D1ED0B0A30EE200ABDEEC00A10EE102AB2
:1016700012B28A8001DD184602E0A04200DA20465C
:1016800048809A4201DD1A4602E0A24200DA224670
:101690008A8010BDFD09002000000000000300202A
:1016A0007047704714480168B1F9021000EE101A33
:1016B0001249B8EEC00A81ED010A4268B2F902206F
:1016C00000EE102AB8EEC00A81ED620A8268B2F913
:1016D000022000EE102AB8EEC00A81EDC30AC068ED
:1016E000B0F9020000EE100A01F58060B8EEC00A01
:1016F00080ED240A70470000D81200205403002017
:10170000064800F14A0182880A80408848800A46DB
:101710004FF400710248FFF73FBD000000030020B6
:10172000841500200021014801F08CB8D415002058
:1017300010B5094C206881688847A068816888478F
:10174000E0688168884720698168884760698168A6
:10175000BDE810400847000004020020014801F0E5
:10176000B9B80000C8170020014801F0B3B8000064
:1017700068170020014801F0ADB80000E81800200B
:10178000014801F0A7B8000028180020014801F026
:10179000A1B80000881800202DE9F04F85680024CA
:1017A000099E802D18D0894DC563894D456490F8F8
:1017B0003450012D15D0012580F8345090F8355063
:1017C000012D10D0002180F834100224002180F86F
:1017D00034102046BDE8F08F4FF480714165012040
:1017E000F8E70220F6E7022580F835500025456528
:1017F00005682F6847F480272F6005682B61036810
:101800005E608368402B03682AD099600168CA60D3
:10181000714D704E704FDFF8BC81DFF8B891DFF882
:10182000B8A1DFF8B4B1EA14DFF8A8E1016818360E
:1018300030379302A9F148090AF1600A0BF1180B3D
:10184000AEF1300E4FF0006C41452DD9A94205D0C4
:10185000494503D0514501D0B14205D1202220E0B5
:101860009A600268D160D3E759451AD0714518D003
:10187000594D7835A94214D0564D3035A94210D073
:10188000B9420BD0534A183A914207D0524A90328B
:10189000914203D04F4A4832914201D11A4600E0AA
:1018A00062464C494C392EE0DFF82C8108F1A8083B
:1018B00041452AD9A94205D0494503D0514501D017
:1018C000B14201D120221CE059451AD0714518D0EF
:1018D000414D7835A94214D03E4D3035A94210D043
:1018E000B9420BD03B4A183A914207D03A4A90325B
:1018F000914203D0374A4832914201D11A4600E062
:101900006246344950390A605AE0DFF8CC8008F169
:10191000480841452AD9A94205D0494503D0514537
:1019200001D0B14201D120221CE059451AD07145A5
:1019300018D0294D7835A94214D0264D3035A9420A
:1019400010D0B9420BD0234A183A914207D0224A0C
:101950009032914203D01F4A4832914201D11A4637
:1019600000E062461C491039CA6029E0A94205D04E
:10197000494503D0514501D0B14201D120221CE09C
:1019800059451AD0714518D0134D7835A94214D055
:10199000104D3035A94210D0B9420BD00D4A183A3B
:1019A000914207D00C4A9032914203D0094A483202
:1019B000914201D11A4600E06246074910398A6017
:1019C00001680A6842F001020A60FFE61D6F000824
:1019D000356F000858640240106002400168182307
:1019E000CAB2103AB2FBF3F2054B6FF30901032AB6
:1019F0009B5CC36500D9091D8165084670470000DE
:101A0000E4DB000810B5014600208B698A6A4FF0BC
:101A1000C07453B1B3F5005F15D072B1012A0CD078
:101A2000022A0AD0032A09D104E01AB1012A06D0F9
:101A3000022A03D1C96AC90100D5012010BDC96AB3
:101A4000A142FAD010BD002AF7D0012AF2D0022A12
:101A5000F3D0032AF3D010BD30B50468256825F40F
:101A600080252560046863608368402B036803D089
:101A700099600068C26030BD9A600068C16030BD86
:101A800070B590F834500024012D0CD0012580F859
:101A9000345090F835600025012E06D080F834507F
:101AA0000224204670BD022070BD022680F83560F9
:101AB000456505682E6826F480262E6005686B60F3
:101AC0008368402B036808D099600168CA60006889
:101AD000016841F001010160E3E79A600268D160AA
:101AE000F5E710B502F0C2FEFEF73AFFFFF71AFE67
:101AF00003F0E8FB03F01CFC03F046FC03F062FC7F
:101B0000FFF79AFABDE81040FFF7EABA01680A68E1
:101B1000D20604D5C968C90601D509F0B7B970471E
:101B200070470000F0B5404890F847100A2945D2A8
:101B30000122A0F89C200222A0F89E200322A0F8F7
:101B4000A0200422A0F8A2200522A0F8A42040F2A0
:101B500001170622A0F8A6207E1C0722A0F8A820C4
:101B6000751C6C1CA0F8AA70A0F8AC60631CA0F8EF
:101B7000AE50A0F8B0405A1CA0F8B230A0F8B42083
:101B800001290CD002290DD003290ED004290FD031
:101B9000052910D0062901D1A0F8B620F0BDA0F883
:101BA000B670F0BDA0F8B660F0BDA0F8B650F0BDBC
:101BB000A0F8B640F0BDA0F8B630F0BD6522A0F8A0
:101BC0009C206622A0F89E206722A0F8A020682210
:101BD000A0F8A2206922A0F8A42040F265176A228A
:101BE000A0F8A6207E1C6B22A0F8A820751C6C1CF7
:101BF000A0F8AA70A0F8AC60631CA0F8AE50A0F8E2
:101C0000B0405A1CA0F8B230A0F8B4206529C6D064
:101C10006629C7D06729C8D06829C9D06929CAD020
:101C20006A29B9D0F0BD00001C02002070470000F6
:101C30002DE9F0411F48204D204E007830B1012899
:101C400002D1002028803080BDE8F0811C4FDFEDFC
:101C50001D0A9FED1D0A38781C4C032802D0042869
:101C600009D011E000F03AF82068407A03280BD13F
:101C70000420387008E02068407A032802D0022847
:101C800012D001E000F02AF8114890ED000ABDEEF4
:101C9000C00A10EE100A28800E4890ED000ABDEE32
:101CA000C00A10EE100ACEE79FED0B0AF0EE400AD4
:101CB000E8E70000FD0900200603002008030020DB
:101CC0000003002000409CC500007AC58C00002065
:101CD000300300203403002000401CC62DE9F041F1
:101CE0002B4E2A4D2DED028BB0EE608AB06BD0EDFD
:101CF000020AF8EEE00A30EE600A85EDD40A05F536
:101D00005275284609F004F8B06BD5ED0A0A1F4C4D
:101D1000B0F9020000EE100AB8EEC00A30EEC00AB8
:101D200084EDC40A04F54274204608F0F1FF174F11
:101D300094ED0A0A543F07F5A46587ED0C0A706D0F
:101D400090ED020A2846B8EEC00A38EE400A85ED4A
:101D5000020A08F0DDFF706DD5ED0A0AA5F1400416
:101D6000B0F9020000EE100A2046B8EEC00A30EECC
:101D7000C00A84ED020A08F0CBFF94ED0A0A87ED51
:101D80000D0ABDEC028BBDE8F08100005403002079
:101D900094010020044A00F57A701060101D01F5CE
:101DA0007A710160704700003404004010B558B1EA
:101DB000084C491E0BD310F8013B5340DBB234F8FA
:101DC000133083EA1222F4E74FF6FF7010BD10467D
:101DD00010BD000058D9000810B5064C04E000BF43
:101DE00010F8013B5340E25C491E89B2F8D210461C
:101DF00010BD000058D8000878B50024009490F871
:101E00003C20012A19D0012280F83C200A680723CF
:101E10000568092A13D9EE680A3A02EB4202934098
:101E20009E43EE600B788A680A3B03EB43039A40BB
:101E30000368DD682A43DA6010E0022078BD2E696D
:101E400002EB420293409E432E610B788A6803EBBB
:101E500043039A4003681D692A431A614A681F2395
:101E6000072A13D205686E6B521E02EB8202934062
:101E70009E436E630B790A885B1E92B203EB830369
:101E80009A4003685D6B2A435A6327E005680D2A70
:101E900012D22E6BD21F02EB820293409E432E631E
:101EA0000B790A88DB1F92B203EB83039A40036825
:101EB0001D6B2A431A6311E0EE6A0D3A02EB8202AF
:101EC00093409E43EE620B790A880D3B92B203EB7E
:101ED00083039A400368DD6A2A43DA62164B056879
:101EE000144A9D4206D10D68122D03D1556845F460
:101EF0008005556005689D4218D10B68102B01D0F4
:101F0000112B13D1536843F400035360096810295F
:101F10000CD10A490A4A0968B1FBF2F101EB8101CF
:101F2000490000E0491E00910029FBD180F83C40A7
:101F3000002078BD0023014000200140340B002028
:101F400040420F0070B504004FF0000503D0206C34
:101F5000002610B107E0012070BD204600F01CF8FB
:101F6000666484F83C60206CC00610D4206C20F4B9
:101F7000885040F0020020642046FEF7F3FC6664BF
:101F8000206C20F0020040F00100206400E00125F8
:101F900084F83C60284670BD10B586B00446142114
:101FA0006846FEF7B7F91149206888421CD11048ED
:101FB0000021026842F480720260006800F48070C0
:101FC00005900B481438026842F004020260006871
:101FD00000F004000590012000900320CDE90101EC
:101FE0006946044800F0E8FD06B010BD002001403D
:101FF000443802400008024090F82020012A07D00F
:10200000022A05D0416A41F48021416201207047D3
:10201000006842690A43426100207047F0B590F8B9
:1020200020500468A468012D05D0022D03D0416A18
:1020300041F4802153E014F0406F01D1E5004BD50D
:10204000C4F30164022C03D9416A41F4000146E063
:102050000125A5401D608D684FF4C0739DB1CE6809
:1020600035434E6845EAC605066803EB0417F5518B
:102070004FF4C275076805EB04150E697E51097DA2
:10208000012905D009E00E88CD6845EA4655EBE701
:1020900001684E5946F480764E511179D2F80550B8
:1020A0004FF4C67641EA0525016806EB04168D510A
:1020B0001178D2F801204FF4C47541EA0221026878
:1020C00005EB04155151006803EB0411425842F02E
:1020D000010242500020F0BD416A41F4001141620A
:1020E0000120F0BD10B590F82020012A07D0022A67
:1020F00005D0416A41F480214162012010BD3B4876
:10210000D0F8002242F00102C0F80022D0F80022EC
:1021100022F47C52C0F80022D0F800224B6A42EA36
:102120000322C0F800220A7D02F01F0301229A4018
:10213000D0F81C329343C0F81C32CB69B3B9D0F845
:102140000C329343C0F80C328C894B6864F31F4304
:102150004C6900EBC404C4F840320C890B6864F38A
:102160001F434C6900EBC404C4F84432CB69012B13
:1021700016D1D0F80C321343C0F80C320C884B68DF
:1021800064F31F434C6900EBC404C4F840320C896B
:10219000CB6864F31F434C6900EBC404C4F84432B9
:1021A0008B69002BD0F804320ED01343C0F80432F0
:1021B0000B69002BD0F8143208D01343C0F8143246
:1021C000096A012904D008E09343EFE79343F5E758
:1021D000D0F81C121143C0F81C12D0F8001221F0E4
:1021E0000101C0F80012002010BD00000064004092
:1021F000704730B590F82040012C05D0022C03D058
:10220000416A41F480215DE00468002955D02469C9
:10221000A40754D04FF4D874056804EB01142D5969
:1022200015F00405956005682D594ED0ED085560F0
:1022300005682C5904F00204D4604FF4DA74056880
:1022400004EB01142D5905F00F05156105682D5992
:10225000C5F30725956105682C59240C54614FF48A
:10226000DC72046802EB0112A4581C700468A458C4
:10227000240A5C700468A458240C9C700468A2585A
:10228000120EDA704FF4DE72046802EB0112A458E9
:102290001C710468A458240A5C710468A458240CB6
:1022A0009C710468A258120EDA71006881B101694C
:1022B00041F020010161002030BDE468A8E7416AD7
:1022C00041F400114162012030BD6D0D1560AFE792
:1022D000C16841F02001C160EDE72DE9F05F0546DE
:1022E000006800244669D0F804908768D0F80CB0E4
:1022F000D0F810A0D0F81880F10748D0F90714D012
:1023000001218160B80703D5284600F030FA0CE0BF
:10231000780702D54FF4006407E0380702D54FF480
:10232000805402E0284600F021FAF80516D5296805
:102330004FF480708860B80503D5284600F019FA7C
:102340000CE0780502D544F4005407E0380502D5C6
:1023500044F4804402E0284600F00AFAF80316D557
:1023600029684FF480308860B80303D5284600F010
:1023700002FA0CE0780302D544F4004407E0380385
:1023800002D544F4803402E0284600F0F3F9300727
:1023900007D55FEACB6004D52968102044F40074A7
:1023A000C86070074FF0080707D55FEA0B7004D5C7
:1023B0002868C760284600F099F9B00706D5286854
:1023C000C068800702D0284600F092F9700607D551
:1023D0005FEACA6004D52968102044F4806408616B
:1023E000B00607D55FEA0A7004D528680761284659
:1023F00000F08CF9F00606D528680069800702D045
:10240000284600F084F9B00308D55FEAC96005D515
:10241000296810204860284600F07AF9F00307D5B3
:102420005FEA097004D528684760284600F0A4F9DF
:10243000300446D55FEA497040D5F00504D55FEA1F
:10244000C87001D044F00104B00504D55FEA88707B
:1024500001D544F00204700504D55FEA487001D547
:1024600044F00404300529D518F0700F26D008F088
:102470007000402815D006DC102809D020280AD08A
:10248000302816D10AE050280ED0602811D10EE075
:1024900044F008040DE044F010040AE044F0200485
:1024A00007E044F0400404E044F0800401E044F418
:1024B00080742868816921F0700181612968042095
:1024C0004860002C05D0686A204368622846FFF700
:1024D0008FFEBDE8F09F70B5040003D094F8200093
:1024E00010B104E0012070BD204600F081F82068A2
:1024F000016821F00201016000F046FC0546052656
:1025000004E000F041FC401B0A2811D82068406814
:102510008007F6D42068016841F00101016000F0F5
:1025200033FC05460BE000F02FFC401B0A2806D9BF
:10253000606A40F40030606284F82060D2E720686E
:102540004068C007EFD0207E0128206801683DD098
:1025500021F080010160607E01282068016838D088
:1025600021F040010160A07E01282068016833D07D
:1025700021F020010160E07E0128206801682ED052
:1025800041F010010160207F01282068016829D0F6
:1025900021F008010160607F01282068016824D0D3
:1025A00021F004010160D4E902010843D4E90412D6
:1025B000114308436168491E08432168C86100202F
:1025C0006062012084F82000002070BD41F080018D
:1025D000C0E741F04001C5E741F02001CAE721F022
:1025E0001001CFE741F00801D4E741F00401D9E739
:1025F000F0B587B0044614216846FDF78BFE364BD4
:102600003648DFF8D0E01968D4F800C0334A032513
:102610000226092710300024491CF44522D11960F4
:10262000012907D1016841F000710160006800F0E4
:1026300000700590106840F0080010601068CDE947
:10264000005600F00800CDE9047069462448CDE941
:10265000024500F0B1FA00220521142000F020FC10
:10266000142032E0DFF87CE0F44530D1D0F800C02F
:102670004CF0806CC0F800C0D0F800C001290CF00C
:10268000806CCDF814C0196007D1016841F0007169
:102690000160006800F000700590106840F00200D2
:1026A0001060106802AB00F0020005906020CDE9D8
:1026B000000683E8B00069460B4800F07DFA00226E
:1026C0000521402000F0ECFB402000F0DBFB07B0D0
:1026D000F0BD000000640040240B002030380240B0
:1026E000000C0240006800400004024070470000F7
:1026F000044A0168914202D0034A914201D1FEF797
:102700001FBD70470064004000680040704770477C
:102710007047000070B5044690F82000012804D0EE
:10272000606A40F40020606218E0022084F8200013
:102730002068016821F00101016000F025FB0546D9
:102740000EE000BF00F020FB401B0A2808D9606A99
:1027500040F400306062052084F82000012070BD44
:1027600020684068C007EDD1606270BD7047704757
:102770007047704770477047704770B54379012BB9
:102780001AD0012646710223037105682C6840F6B1
:10279000FE7393409C43D1E900310B4393402343A4
:1027A0002B6001680B68C0249440A3430B60067142
:1027B00000214171084670BD022070BD70B5040053
:1027C00003D02079002510B105E0012070BD6571AE
:1027D000204600F007F802202071256101202071B9
:1027E000002070BD10B586B0044614216846FDF780
:1027F00091FD1149206888421CD1104800210268CF
:1028000042F000520260006800F0005005900B4852
:102810001038026842F001020260006800F0010016
:102820000590102000900320CDE90101694604487D
:1028300000F0C2F906B010BD0074004040380240FC
:102840000000024030B54279012A16D001224271BF
:102850000223037103681D6802FA01F425431D6019
:10286000002901680B680AD00C6803F4802304F483
:102870006014B3F5802F0FD015E0022030BD0C6836
:1028800003F0040304F03804042B0CD1382C0AD1D3
:102890004B6843F0010305E0B4F5601F03D14B68BA
:1028A00043F002034B60027100214171084630BDC4
:1028B00090F83510022903D080214165012070472E
:1028C000052180F835100068016821F001010160E0
:1028D000002070472DE9F84304464FF00009CDF879
:1028E000009063484FF41651A56D0068B0FBF1F7F6
:1028F0002E6894F85C10082000FA01F131420FD0E4
:1029000021680A6852070BD50A6822F004020A609F
:1029100094F85C108840A860606D40F0010060652C
:1029200094F85C104FF0010808FA01F0304208D02A
:1029300021684969090604D5A860606D40F002006D
:10294000606594F85C1004208840304208D021680B
:102950000968890704D5A860606D40F004006065CF
:1029600094F85C1010208840304218D02168096823
:10297000090714D5A86020680168490304D50068D8
:10298000000308D5A16C07E00168C90503D40168FC
:1029900021F008010160216C09B12046884794F8B4
:1029A0005C1020208840304231D021680968C90677
:1029B0002DD5A86094F8350005282068016806D058
:1029C000490347D5006800031DD4616C1CE021F069
:1029D000160101602068416921F080014161206C8D
:1029E00008B9A06C20B12068016821F008010160DD
:1029F00094F85C103F208840A86084F8349084F8F4
:102A00003580216D1FE0E16B09B120468847606D7C
:102A100000282BD0606DC00714D0052084F8350045
:102A20002068016821F0010101600098401C0090BD
:102A3000B84203D820680068C007F6D184F8349003
:102A400084F83580E16C002910D001B02046BDE843
:102A5000F04308470168C905D5D4016821F0100189
:102A6000016084F8349084F83580CCE7BDE8F883C1
:102A7000340B00202DE9F041044600F085F90646AC
:102A80005CB1002584F83450022084F835002068B9
:102A9000016821F0010101600DE00120BDE8F08135
:102AA00000F072F9801B052805D9202060650320FD
:102AB00084F83500F2E720680068C007F0D122688A
:102AC000116820480140D4E901031843D4E90336D2
:102AD0003343184363691843A3691843E3691843F0
:102AE000236A18430843616A042903D1D4E90B130C
:102AF00019430843106020684069666A20F00701A6
:102B000030460E43012704280CD1A06A0643E06A30
:102B100040B12046FEF776FF20B14020606584F882
:102B20003570BAE7206846612046FEF757FF94F8F3
:102B30005C203F2191408160656584F835700020FC
:102B4000ACE700003F8010F02DE9F0410446866DAF
:102B500090F83400002501280DD0012084F83400BD
:102B600094F835700020012F07D084F83400022536
:102B70002846BDE8F0810220FBE7022784F8357083
:102B800060652046FEF768FF94F85C103F2088409F
:102B9000B0602068016841F016010160206C20B12E
:102BA0002068016841F0080101602068016841F077
:102BB00001010160DCE700002DE9F84F00224FF031
:102BC000010803254FF00F0E0B6808FA02F42340AA
:102BD000A3426ED14E68012E05D0022E03D0112ED5
:102BE00001D0122E12D186684FEA420C05FA0CF77A
:102BF000BE43CF6807FA0CF7374387604668A643A1
:102C00000C79C4F30014944034434460C668570000
:102C100005FA07FC8C6826EA0C06BC403443C46005
:102C20004C68022C01D0122C13D1D40800EB840480
:102C3000A346D4F8209054074FEAD46A0EFA0AF655
:102C400029EA06090E6906FA0AF646EA0906CBF8E9
:102C5000206006680C7926EA0C0604F00304BC40E8
:102C6000344304604C68E40065D5364C266846F46D
:102C700080462660246822F0030604F48044009411
:102C8000314C3444A446D4F808489607370F0EFA5E
:102C900007F6B4432D4EB04201D1002624E02C4E5D
:102CA000B04201D101261FE02A4EB04202D10226D5
:102CB0001AE040E0284EB04201D1032614E0274E2E
:102CC000B04201D104260FE0254EB04201D10526C5
:102CD0000AE0244EB04201D1062605E0224EB04261
:102CE00001D1072600E00826BE402643CCF808683C
:102CF0001E4E34684F689C43FF0300D51C4334606C
:102D00001A4C241D26684F689E43BF0300D51E43FE
:102D10002660164E083634684F689C43FF0200D583
:102D20001C433460114E0C3634684F689C43BF021C
:102D300000D51C433460521C102AFFF445AFBDE897
:102D4000F88F00004438024000300140000002408B
:102D50000004024000080240000C02400010024043
:102D60000014024000180240001C0240003C0140D8
:102D7000426931EA020200D10904816170470AB157
:102D8000816170470904FBE70148806870470000D3
:102D9000280B002002488168027811448160704746
:102DA000280B00200B4810B5016841F40071016048
:102DB000016841F480610160016841F48071016043
:102DC000032000F08DF8002000F006F800F03EF837
:102DD000002010BD003C024010B5014688B0002222
:102DE0001C2000F05DF81C2000F04CF81448002472
:102DF000016841F001010160006805A900F00100CF
:102E00000690684600F018F900F036F90D494000C8
:102E1000B0FBF1F10C484FF08042491E026040F2D5
:102E2000E732C0E90324C0E9011400F099FB10B1B6
:102E3000012008B010BD044800F0D0FBF9E7000005
:102E40004038024040420F00481900200C4882B030
:102E5000016841F480410160006800F48040009006
:102E60000748001F016841F080510160006800229E
:102E700000F0805000900F21901E02B000F010B8BA
:102E800044380240002809DB00F01F020121914074
:102E90004009800000F1E020C0F8001170470000F8
:102EA000F0B40E4B1B680C46C3F30223C3F10705B5
:102EB000042D00D90425191D072901D2002300E0A3
:102EC000DB1E012606FA05F1491E214099409E406D
:102ED000761E16403143F0BC02F0EBBA0CED00E078
:102EE000064900F0070208684FF6FF03184040EA61
:102EF0000220034A10430860704700000CED00E018
:102F00000000FA052DE9F0470E46050065D0DFF810
:102F10001481D8F80000F7B200F00F00B04207D2D9
:102F200088F80070D8F8000000F00F00B04254D1CB
:102F300028683D4C810712D5400703D5206840F42E
:102F4000E05020602878000703D5206840F46040F6
:102F500020602068A96820F0F000084320602878ED
:102F6000C0072DD0304968680839012812D00228DE
:102F700013D0032811D00968890700292DDA2168A8
:102F800021F0030101432160FFF7FEFE814641F27B
:102F9000883A0EE009688903EFE709688901ECE7E0
:102FA000FFF7F2FEA0EB0901514502D90320BDE86D
:102FB000F0872068696800F00C00B0EB810FEFD15A
:102FC000D8F80010404601F00F01B14207D9077050
:102FD000006800F00F00B04201D00120E7E7287838
:102FE000400705D52068E96820F4E05008432060D8
:102FF0002878000706D52068296920F4604040EA57
:10300000C100206000F058F82168084AC1F303119C
:10301000515CC8400649086006480068FFF7DCFEBE
:103020000020C4E7003C024008380240ECDB000806
:10303000340B00202C0B00200F2202600C4A136876
:1030400003F003034360136803F0F0038360136825
:1030500003F4E053C36012684FF4E05303EAD20272
:1030600002610448006800F00F000860704700002B
:1030700008380240003C02400448054900680968DD
:10308000044AC1F38221515CC8407047340B0020D0
:1030900008380240FCDB000804480549006809685C
:1030A000044AC1F34231515CC8407047340B0020E0
:1030B00008380240FCDB0008154810B5006810F025
:1030C0000C02144813D01449042A0FD0082A0ED138
:1030D0000F4C241F2268236802F03F025B0207D5D1
:1030E0002068C0F38810A0FB010106E0084610BD6F
:1030F0002168C1F38811A1FB00010023FDF7C0F88E
:103100002168C1F30141491C4900B0FBF1F010BD39
:10311000083802400024F40040787D012DE9F84F82
:1031200004006ED02078DFF83C93C007A9F10405B5
:103130004AD009F104000168C1F38101012908D0D6
:103140000068C0F3810002280AD1D9F800004002CB
:1031500006D52868800337D560680028E1D033E0C1
:103160006068B0F5803F10D0B0F5A02F286810D06F
:1031700020F480302860286820F48020286060686F
:10318000A8B1FFF701FE06460DE0286840F4803044
:10319000F4E740F480202860F7E700BFFFF7F4FD74
:1031A000801B642873D828688003F7D50CE0FFF7EC
:1031B000EBFD064605E000BFFFF7E6FD801B642837
:1031C000F0D828688003F7D42078DFF89C82800745
:1031D0004FF0000A3ED5A348001D016811F00C0F06
:1031E00008D00068C0F3810002280BD1D9F8000094
:1031F000400207D42868800716D5E068012800D16E
:1032000012E02BE1E068B8B10120C8F80000FFF738
:10321000BBFD064605E000BFFFF7B6FD801B022898
:10322000C0D828688007F7D52868216920F0F80001
:1032300040EAC10028600DE0C8F800A0FFF7A4FD37
:10324000064604E0FFF7A0FD801B02281FD828686F
:103250008007F7D42078000722D5824E8348616921
:10326000703671B101210160FFF78EFD074604E061
:10327000FFF78AFDC01B022809D830688007F7D500
:103280000EE0C0F800A0FFF77FFD074605E082E0F2
:10329000FFF77AFDC01B02287DD830688007F7D47D
:1032A0002078400768D5DFF8BCB100270BF13C0B54
:1032B000DBF80000C0000BD4DBF8001041F08051B7
:1032C000CBF80010DBF80000012700F080500090E0
:1032D000674E3068C00510D4306840F480703060AC
:1032E000FFF752FD009005E0FFF74EFD0099401AF0
:1032F000022850D83068C005F6D55A4EA0686C3602
:1033000001280FD00528306810D020F0010030606F
:10331000306820F004003060A068B8B1FFF734FDD9
:1033200000900FE0306840F00100F4E740F0040046
:103330003060F7E7FFF728FD0099411A41F2883025
:10334000814266D830688007F4D50EE0FFF71CFD97
:10335000009007E0FFF718FD0099411A41F288300C
:10336000814256D830688007F4D42FB1DBF80010C2
:1033700021F08051CBF80010A069C8B33949091D6C
:103380000968C1F3810102294AD00228504607D0BA
:10339000C8F8600000E03CE0FFF7F6FC04463BE0C4
:1033A0004746C8F86000FFF7EFFC064605E000BF9F
:1033B000FFF7EAFC801B02282BD828688001F7D48D
:1033C000D4E907010843A16A2A4A490802EB0141EE
:1033D000626A41EA8211084394F82C1040EA0161C4
:1033E000C9F8001001203866FFF7CEFC044606E05D
:1033F00036E000BFFFF7C8FC001B022809D8286888
:103400008001F7D52CE000BFFFF7BEFC001B0228AF
:1034100002D90320BDE8F88F28688001F4D41FE0AA
:103420000128F7D0D9F80000E26900F48001914248
:1034300014D1226A00F03F0191420FD147F6C071CA
:10344000626A0140914209D1A26A00F4403191427E
:1034500004D1E16A00F07060884201D00120D9E710
:103460000020D7E70438024000004742800E474260
:10347000007000400000FFFF7047704710B590F8E3
:103480003C20012A22D0012280F83C20CA688C68A6
:1034900022F4407222434C6822F4806222430C687A
:1034A00022F4006222430C6922F4805222434C69C8
:1034B00022F400522243C969002322F480420A43C5
:1034C00001684A6480F83C30002010BD022010BD25
:1034D00070B590F83C20012A32D0012480F83C409D
:1034E000022280F83D2003685A689D6822F0700629
:1034F0000A6832435A60134B02689A4214D0B2F100
:10350000804F11D0104B9A420ED0104B9A420BD0E4
:103510000F4B9A4208D00F4B9A4205D00E4B9A425D
:1035200002D00E4B9A4204D1496825F0800319431A
:10353000916080F83D40002180F83C10084670BD45
:10354000022070BD0000014000040040000800405F
:10355000000C004000040140004001400018004001
:1035600010B5040003D094F83D0010B107E001202D
:1035700010BD002084F83C00204600F00DF8022029
:1035800084F83D00211D206801F09CFB012084F897
:103590003D00002010BD000008B500680C498842BD
:1035A00008D10C48016841F001010160006800F099
:1035B00001000BE00849884209D10648001F016854
:1035C00041F002010160006800F00200009008BDB7
:1035D0000000014044380240000400400168CA680D
:1035E00042F00102CA600068816801F00701062903
:1035F00003D0016841F0010101600020704770B5FF
:10360000044690F83C00012817D0012584F83C506E
:10361000022084F83D002068826822F0770222F4BC
:103620007F4282600868502830D00DDC20284DD0C1
:1036300005DC98B310283BD148E0022070BD30284B
:1036400044D0402834D139E0602828D0702806D0F2
:10365000B0F5805F2CD0B0F5005F29D10AE0CB68CF
:10366000D1E90121206801F09EFB2068816841F0CA
:10367000770109E0CB68D1E90121206801F093FBD3
:103680002068816841F48041816011E0CA6849681E
:10369000206801F05DFC5021206807E016E0CA6850
:1036A0004968206801F065FC6021206801F085FB15
:1036B00084F83D50002084F83C0070BDCA68496819
:1036C000206801F045FC40212068EFE722680146B0
:1036D0001046EBE7704770B50446006801694FF08B
:1036E0000005C943890715D4C168C943890711D4A6
:1036F000E91E01610120207720688069800720464B
:1037000002D0FFF7E7FF04E000F0DAF8204600F00F
:103710005CF9257720680169C943490717D4C16856
:10372000C943490713D46FF00401016102202077D7
:103730002068806910F4407F204602D0FFF7CAFF5E
:1037400004E000F0BDF8204600F03FF9257720683E
:103750000169C943090716D4C168C943090712D4CE
:103760006FF008010161042020772068C06980079C
:10377000204602D0FFF7AEFF04E000F0A1F820469B
:1037800000F023F9257720680169C943C90617D4D9
:10379000C168C943C90613D46FF010010161082044
:1037A00020772068C06910F4407F204602D0FFF7E0
:1037B00091FF04E000F084F8204600F006F9257738
:1037C00020680169C943C90708D1C168C943C9074D
:1037D00004D1891E0161204600F01AF920680169B0
:1037E000C943090609D4C168C943090605D46FF065
:1037F000800101612046FFF73FFE20680169C9434F
:10380000490609D4C168C943490605D46FF040018F
:103810000161204600F003F920680169C943890667
:103820000BD4C168C943890607D46FF02001016138
:103830002046BDE87040FFF720BE70BD10B586B0D1
:10384000044614216846FCF765FD2368174C0021E7
:1038500017480222A34211D1036843F0100303600A
:10386000006800F01000059090020090CDE9012161
:103870000120CDE9031069460E4812E00E4CA34228
:1038800011D1036843F001030360006800F00100F8
:103890000590C0200090CDE90121CDE903126946D1
:1038A0000648FFF789F906B010BD0000000001408E
:1038B0003038024000100240000400400000024086
:1038C000704770B5044690F83C000D4601280DD0B5
:1038D000012684F83C60022084F83D0042B1042AAD
:1038E00018D0082A2AD00C2A4DD139E0022070BD08
:1038F000206801F06BFA2068816941F0080181615C
:103900002068816921F004018161206881692A6948
:10391000114311E0206801F089FA2068816941F4BF
:10392000006181612068816921F480618161206882
:1039300081692A6941EA0221816124E0206801F05D
:10394000ABFA2068C16941F00801C1612068C16912
:1039500021F00401C1612068C1692A69114311E0A5
:10396000206801F0CDFA2068C16941F40061C161AD
:103970002068C16921F48061C1612068C1692A6938
:1039800041EA0221C16184F83D60002084F83C00D6
:1039900070BD10B5040003D094F83D0010B107E0ED
:1039A000012010BD002084F83C00204600F00CF8F7
:1039B000022084F83D00211D206801F083F90120D8
:1039C00084F83D00002010BD7047704710B50446D4
:1039D0000068012201F0DAF90B492068884202D020
:1039E0000A49884203D1416C41F400414164206896
:1039F000816801F00701062903D0016841F0010147
:103A00000160002010BD00000000014000040140E2
:103A10000068B0F1804F01D1FFF7BCB97047704723
:103A20007047000070B5026804461068D168536999
:103A300010F00F0F52D003F0010501F490762E43E1
:103A40005FD0C20705D0CA0503D5E26B42F0010280
:103A5000E263420705D5DA0703D0E26B42F00202C7
:103A6000E263820705D5DA0703D0E26B42F0040275
:103A7000E263020707D501F020022A4303D0E26B7C
:103A800042F00802E263E26B002A33D0800604D5DC
:103A9000880602D5204601F0F7FA20684069E16BFC
:103AA000C0F38010090700D428B3204601F0D5FAEE
:103AB0002068416949061AD5416921F040014161F8
:103AC000606BA0B11B490165606BFEF7F1FE002839
:103AD00010D0606B016DBDE870400847830610D5BB
:103AE0008B060ED52046BDE8704001F0CDBA2046C9
:103AF000FFF796FF70BD2046FFF792FF0020E063BE
:103B000070BD030606D50B0604D52046BDE87040FF
:103B100001F09ABB4006F3D54806F1D5D16820469E
:103B200021F04001D160202184F8391000F012FA10
:103B300070BD0000C94F000870B5040004D094F8AF
:103B40003900002510B106E0012070BD84F838501E
:103B5000204600F023F8242084F839002068C1684A
:103B600021F40051C160204601F0DAFA20680169B1
:103B700021F4904101612068416921F02A014161ED
:103B80002068C16841F40051C160E563202084F8D9
:103B9000390084F83A00002070BD00002DE9F04F94
:103BA00087B0054614216846FCF7B4FBBD48DFF832
:103BB000F08210380222D5F800C0BA4B0321DFF89A
:103BC000E8B20024960607154FF0010E4FF0080AE0
:103BD0004FF48079C4453BD1D3F800C04CF4002C9D
:103BE000C3F800C01B6803F400230593036843F087
:103BF00001030360006800F0010005908DE80640B5
:103C0000CDE9031A69465846FEF7D6FFDFF8A082D1
:103C1000A6494046C8F80010C0E90164C0E903475E
:103C2000C8F81440C0E90649C8F82040C8F8244044
:103C3000FEF720FF08B1FDF7F9FFC5F83480002238
:103C400005213420C8F83850FFF72AF934207AE0EB
:103C5000DFF86082C4457CD1D3F800C04CF4801CEE
:103C6000C3F800C01B6803F480130593036843F096
:103C700004030360036803F004030593036843F03F
:103C80000803036000688B4600F0080005904FF4BD
:103C90008050009001AA0220F046CDF810A082E8E2
:103CA000010969468448FEF787FF0420009001AAB5
:103CB0000220CDF810A082E8010969467F48FEF78E
:103CC0007BFFDFF8EC81794908F160084046303924
:103CD00002C0B246E0E80264BB46E0E803474E4655
:103CE00040F8044C4FF4403780E8D0004046C8F814
:103CF0002440FEF7BFFE08B1FDF798FFC5F83480F9
:103D0000C8F83850DFF8A881684908F1C008404673
:103D10007831E0E8021A4021A0E8120810C080E8DB
:103D2000D0004046C8F82440FEF7A4FE08B1FDF7D5
:103D30007DFFC5F83080002205213520C8F83850B5
:103D4000FFF7AEF83520FFF79DF807B0BDE8F08F1C
:103D5000FFE7DFF86C814FF0070EC44543D1514BAC
:103D60001B1DD3F800C04CF0100CC3F800C01B683A
:103D700003F010030593036843F001030360006838
:103D8000CDE9024100F0010005904FF4C060CDE99B
:103D90000002CDF810E069465846FEF70DFFDFF847
:103DA000288148494046C8F80010C0E90164C0E9CC
:103DB0000347C8F814404FF40031C8F81840C8E968
:103DC0000791C8F82440FEF755FE08B1FDF72EFF15
:103DD000C5F83480002205212520C8F83850FFF7A7
:103DE0005FF82520AFE7DFF8E480C445ADD1D3F814
:103DF00000C04CF4003CC3F800C01B6803F400335F
:103E00000593036843F001030360036803F00103B3
:103E10000593036843F0080303600068CDF800A031
:103E200000F00800059088460720CDE90380CDE921
:103E30000124924669465846FEF7BEFE2020CDE991
:103E4000000A02940720CDE9038069461B48FEF76B
:103E5000B3FEDFF87480154908F160084831404628
:103E6000C8F80010C0E90164C0E90347C8F814406D
:103E70004FF44031C8F81840C8E90791C8F8244009
:103E8000FEF7F8FD08B1FDF7D1FEC5F83480002239
:103E900005212620C8F83850FFF702F8262052E7FF
:103EA000004C0040403802400000024040600240A8
:103EB000681700200050004000080240000C02403B
:103EC0000010014040640240881800200044004077
:103ED0007047000070B5044690F83900202830D1B2
:103EE00069B362B394F8380001282AD0012084F81D
:103EF00038002162A284E2840025E563212084F851
:103F00003900236B1048D863236B10481864236B67
:103F10000F48D864206B134605652668206B321D58
:103F2000FEF712FE21686FF04000086084F83850F8
:103F30002068416941F080014161002070BD01208D
:103F400070BD022070BD00002350000851500008D1
:103F5000D94F000870477047FEE7000070B50D4C60
:103F60000025C4F8B4520C48016821F040410160BA
:103F7000016841F080410160C4F8BC52022004F5A0
:103F80002D7402F0BFFF01202060022002F0BAFF72
:103F9000256070BD008040420004024070B50D4CA9
:103FA0000025C4F8B4520C48016821F0404101607A
:103FB000016841F0804101600126C4F8BC62022022
:103FC00004F52D7402F09EFF2660022002F09AFF95
:103FD000256070BD00804042000402402DE9F0479A
:103FE000814616480024016821F0404101600168C3
:103FF0000160134E254627464FF00108C6F8B472FB
:10400000022002F07FFFC6F8B4826006040ED6F8E4
:104010003C0208B1641CE4B2012002F073FF6D1C85
:10402000EDB2082DEAD3B9F1000F04D0FFF796FFE7
:104030002046BDE8F087FFF7B1FFF9E70004024032
:10404000008040422DE9F04106461448016821F005
:1040500040410160016841F080410160104C00273F
:10406000C4F8B4723D464FF00108F009C4F8BC0230
:104070007006060E022002F045FFC4F8B48202204A
:1040800002F040FFC4F8B472022002F03BFF6D1C46
:10409000EDB2082DE9D3BDE8F08100000004024034
:1040A0000080404270B50D48016821F04041016038
:1040B000016841F080410160094C0120C4F8BC0254
:1040C000C4F8B402042004F52D7402F01BFF00258F
:1040D000A560042002F016FF256070BD00040240B8
:1040E000008040420E4810B5016821F04041016057
:1040F000016841F0804101600A4C0020C4F8B4021C
:10410000C4F8BC02042004F52D7402F0FBFE01206B
:104110002060A060BDE81040042002F0F3BE000063
:10412000000402400080404270B51248002401683B
:1041300021F040410160016801600F4D0126C5F882
:10414000BC62304602F0DEFEC5F8B462012002F027
:10415000D9FE07E0641CE4B2FA2C03D9FFF7C2FFD2
:10416000012070BDD5F83C020028F3D1C5F8B40297
:1041700070BD000000040240008040429FED0A1A1A
:1041800080ED001A80ED051A80ED090AC0ED0A0ADB
:10419000B7EE000A80ED070A80ED081A80ED0B0AE1
:1041A00080ED011A7047000000000000D0ED071AF2
:1041B000D0ED000A21EEA01A80ED011AD0ED090A17
:1041C00090ED052A41EE820AC0ED030AD0ED0A1AED
:1041D00030EEA12AC0EE821A30EE412AB0EE410A3A
:1041E000B7EE001AC0ED061A31EE611A01EE820A2E
:1041F00061EE200A80ED020AC0ED040AC0ED050A56
:1042000080ED000A7047000070B50546FFF74AFFD1
:104210000F4C20784006000EFFF714FFFFF784FFD5
:104220002846FFF70FFFFFF77FFFFFF73BFF2078E0
:10423000012101EB4000C0B2FFF704FFFFF774FF5C
:104240000020FFF7CBFE0446FFF74CFF204670BD71
:10425000700000202DE9F04116460D460746FFF795
:1042600021FF134C20784006000EFFF7EBFEFFF70E
:104270005BFF3846FFF7E6FEFFF756FFFFF712FF3A
:104280002078012101EB4000C0B2FFF7DBFEFFF711
:104290004BFF002406E00120FFF7A0FE641C05F898
:1042A000010BE4B2B442F6D3BDE8F041FFF71ABF08
:1042B000700000207FB500241548009401940294FA
:1042C0001249039401604FF48031C0E90114046184
:1042D000047680F820400F49C0E90A140125C56121
:1042E000C46080F830404561FDF72CFE08B1FDF751
:1042F0009DFC0A20CDE90005694602940448FDF7BB
:104300007BFD002801D0FDF791FC7FBD002001401E
:104310003C1500200100000F104810B50E49016047
:104320000321416000214FF400228160C0E90312A3
:104330004FF440124261017641768176C176017771
:1043400001214177FEF7C7F8002803D0BDE81040EF
:10435000FDF76CBC10BD0000006400408415002017
:10436000104810B50E4901600321416000214FF44F
:1043700000228160C0E903124FF4401242610176CD
:1043800041768176C176017701214177FEF7A3F866
:10439000002803D0BDE81040FDF748BC10BD000068
:1043A00000680040AC1500201CB500240C490094A6
:1043B0000A48019408600846FEF700FA08B1FDF7C4
:1043C00035FC0220CDE90040002269460448FEF792
:1043D000D4F9002801D0FDF729FC1CBD0074004071
:1043E000D41500201D4808B5016841F40011016092
:1043F000016801F400110091016841F4800101603D
:104400000068002200F48000009005210B20FEF7D8
:1044100047FD0B20FEF736FD002205210D20FEF79B
:104420003FFD0D20FEF72EFD002205211020FEF796
:1044300037FD1020FEF726FD002205212F20FEF774
:104440002FFD2F20FEF71EFD002205213A20FEF74A
:1044500027FDBDE808403A20FEF714BD3038024081
:1044600010B5A4B01C221C496846FBF73AFF002196
:10447000684604F04DF8194C17491C2220601C3185
:1044800007A8FBF72EFF002107A804F041F8124906
:1044900060601C2238310EA8FBF723FF00210EA814
:1044A00004F036F80C49A0601C22543115A8FBF723
:1044B00018FF002115A804F02BF80749E0601C2222
:1044C00070311CA8FBF70DFF00211CA804F020F898
:1044D000206124B010BD000058DB0008100B002044
:1044E0002DE9F04F87B014216846FBF713FF4348CE
:1044F0000024016841F004010160016801F0040139
:104500000591016841F080010160016801F08001BE
:104510000591016841F001010160016801F00101AC
:104520000591016841F010010160016801F010017E
:104530000591016841F002010160016801F002018A
:104540000591016841F0080101600068DFF8B09052
:1045500000F008004FF4D84505900122294648464E
:10456000FEF70DFC002208214846FEF708FCDFF8A4
:1045700094A0002224215046FEF701FCDFF888B009
:104580004FF42047012239465846FEF7F8FB4FF416
:104590000078012241461D48FEF7F1FB00950125F8
:1045A000CDE90154694648460394FEF705FB08200F
:1045B0000326CDE90005CDE9024669464846FEF7E7
:1045C000FBFA2420CDE90005CDE9024669465046B4
:1045D000FEF7F2FA00970396CDE901546946584672
:1045E000FEF7EAFACDF80080CDE9015469460748A4
:1045F0000394FEF7E1FA07B0BDE8F08F30380240CF
:10460000000802400000024000040240000C02408A
:1046100010B596B000240F94109411941294139432
:104620001C2108A81494FBF775FE20216846FBF7AF
:1046300071FE29482749016040F61F51C0E9011465
:1046400040F2E731C0E9031444618461FEF788FF5A
:1046500008B1FDF7EBFA4FF480500F900FA91E48F8
:10466000FEF7CDFF08B1FDF7E1FA1B48FFF791F91E
:1046700008B1FDF7DBFA139413A917481494FEF759
:1046800027FF08B1FDF7D2FA6020CDE908040A94AB
:104690000B940C940D94042208A90F480E94FFF774
:1046A00010F908B1FDF7C2FA00944FF40050CDE9BB
:1046B0000440029401940394694607480794FEF766
:1046C000DDFE08B1FDF7B2FA0348FFF7B7F816B000
:1046D00010BD000000000140E815002010B58EB0AC
:1046E00000240794089409940A940B941C216846AA
:1046F0000C94FBF70FFE2248204901605321C0E9CA
:10470000011440F6C311C0E903148461FEF728FFC9
:1047100008B1FDF78BFA4FF48050079007A91848AD
:10472000FEF76DFF08B1FDF781FA1548FFF731F983
:1047300008B1FDF77BFA0B940BA911480C94FEF716
:10474000C7FE08B1FDF772FA6020CDE900040294BB
:10475000002269460A480494FFF7B3F808B1FDF750
:1047600065FA042269460648FFF7ABF808B1FDF781
:104770005DFA0348FFF762F80EB010BD0004004078
:10478000281600200C4810B50A4901604FF4E131A9
:104790004160002181600C22C160C0E90412816186
:1047A000C161FFF7C9F9002803D0BDE81040FDF74B
:1047B0003DBA10BD004C0040681600200C4810B5F2
:1047C0000A4901604FF4E1314160002181600C220F
:1047D000C160C0E904128161C161FFF7ADF9002831
:1047E00003D0BDE81040FDF721BA10BD00500040D5
:1047F000A81600200C4810B50A4901604FF4E131B9
:104800004160002181600C22C160C0E90412816115
:10481000C161FFF791F9002803D0BDE81040FDF712
:1048200005BA10BD00100140E81600200C4810B574
:104830000A4901600B494160002181600C22C1607E
:10484000C0E904128161C161FFF776F9002803D045
:10485000BDE81040FDF7EAB910BD0000004400407B
:1048600028170020A0860100FEE7704710B5002140
:104870000948FFF7ABF804210748FFF7A7F8002124
:104880000846FDF787FA04210448FFF79FF804491A
:104890000020886310BD000028160020E8150020C5
:1048A0000000014002680021118002685180026806
:1048B00091800268D180036803221A7203685A72D9
:1048C00002685181026891810268D1810268117485
:1048D00002685174026851820068818270474068A2
:1048E000A0F20120042802D24FF40070704740F279
:1048F000FF10704770B58EB00646002502468DF851
:1049000000500121684601F0D1FC01F0E3FB324682
:104910000121042001F08AFF044601F0DBFB84B989
:104920000C208DF8020002208DF8030001208DF884
:1049300005508DF8040001463246684602F080F8C2
:1049400004460EB0204670BD70B58EB001240646F8
:1049500002468DF800402146684601F0A7FC01F0B0
:10496000B9FB32460221042001F060FF054601F048
:10497000B1FB95B90C208DF8020000208DF80600DF
:1049800002208DF803008DF807408DF80440324670
:104990000121684602F054F805460EB0284670BD65
:1049A0000B48006980470B4CFCF742FCA07810B123
:1049B000012805D006E0FCF71BFEFCF7E3FC01E054
:1049C000FCF70EFEFCF79CFE042003F095FDEBE7E0
:1049D000C8090020FD0900200EB5394C354E04F100
:1049E0001C0002901C300190DFF8CCA0DFF8CC80D6
:1049F0001C30DFF8D090344D4FF4FA7B00903088B3
:104A0000401C80B23080584506D9002030804FF4D9
:104A100000512846FEF7ACF9DAF81410264888470A
:104A2000D8F81410474625488847616924488847C4
:104A3000216B02988847E16C01988847A16E009825
:104A40008847F9681D48884799F801004F460128B2
:104A500001D040B112E000224FF400512846FEF789
:104A60008EF9012205E0012251032846FEF787F95D
:104A700000224FF480612846FEF781F9387801283A
:104A800001D040B112E000224FF480412846FEF7E9
:104A900076F9012205E0012291032846FEF76FF91D
:104AA00000224FF400612846FEF769F9012003F067
:104AB00023FDA4E7080A00208C000020E400002069
:104AC00094010020FD090020000802400125164E37
:104AD0000027164C06F0EAFA04F040F9307E01286F
:104AE00001D028B117E0A5700F48FFF7DBFE12E0F8
:104AF000707E40B1C0B2032813D00320A07085F3AC
:104B0000138800F0E7FCA078012802D12770A77075
:104B1000E77006F097F906F0E9FA072003F0ECFCDD
:104B2000D8E70220EAE700008C000020FD09002001
:104B3000114881688847114881688847104E114C98
:104B40001E27DFF84480DFF8449001252068401CD0
:104B500020603040052801D104F004F8206890FB63
:104B6000F7F107FB110018B988F8005089F80050D8
:104B70001E2003F0C1FCE9E7DC0200207C0E0020CF
:104B800007000080140A00209A0B0020C90B0020A7
:104B9000104F114D114E124C4FF0000840F2FF190A
:104BA000B87810B1012803D006E0FDF741F803E022
:104BB000A5F80080A6F800803088A0802888E080D2
:104BC000074A49460748FCF7E7FA0D2003F094FC32
:104BD000E6E70000FD09002006030020080300208E
:104BE0000A0A00208415002010B5502080F3118897
:104BF000BFF34F8FBFF36F8F06F042FD18B104492A
:104C00004FF080500860002080F3118810BD000034
:104C100004ED00E030B593B030216846FBF77AFB35
:104C200014210CA8FBF776FB1A480025016841F017
:104C300080510160006800F08050119016480168B2
:104C400041F4804101600068022400F4804011902A
:104C500001200090000401908001CDE90640192058
:104C600008904FF4A870CDE9090404200B90684621
:104C7000FEF754FA0CA90F2081E831004FF4A05040
:104C80000F90E002109005210CA8FEF73BF913B03D
:104C900030BD000040380240007000400548016807
:104CA00041F47001016003494FF0006080390860F1
:104CB0007047000088ED00E00148FEF70CBD0000E1
:104CC00048190020F0B50268254C264D264E274F86
:104CD000274B4FF0804CA04209D0604507D0A84236
:104CE00005D0B04203D0B84201D0984204D122F09E
:104CF000700E4A6842EA0E02A0421BD0604519D0ED
:104D0000A84217D0B04215D0B84213D0984211D063
:104D1000184DA8420ED0184DA8420BD0174DA842EE
:104D200008D0174DA84205D0164DA84202D0164D06
:104D3000A84203D122F44075CA682A434D6922F083
:104D400080022A4302608A68C2620A688262A042C4
:104D500001D0984201D10969016301214161F0BD8F
:104D6000000001400004004000080040000C00402A
:104D7000000401400040014000440140004801405F
:104D800000180040001C00400020004010B501F059
:104D90001F030121046A99408C430462016A9A400E
:104DA0001143016210BD10B5846842EA032224F465
:104DB0007F440A432243826010BD826822F0700261
:104DC0000A4342F00701816070470000F0B5026AB3
:104DD00022F001020262036A42688469124E24F0E2
:104DE00073050C682C4323F002058B682B430D4D93
:104DF000A84201D0B04205D123F00807CB683B435D
:104E000023F00403A84201D0B04205D14D6922F439
:104E1000407215438A692A4342608461496841634C
:104E20000362F0BD0000014000040140F0B5026AD9
:104E300022F010020262026A436884690D6824F459
:104E4000E64444EA05248D6822F0200242EA051275
:104E50000F4D104EA84201D0B04206D1CF6822F0CB
:104E6000800242EA071222F04002A84201D0B0427A
:104E700007D14D6923F4406343EA85038D6943EA12
:104E8000850343608461496881630262F0BD00006C
:104E90000000014000040140F0B5026A22F4807273
:104EA0000262026A4368C46922F4007224F0730546
:104EB0000C68124E2C438D6842EA05220E4DA84222
:104EC00001D0B04206D1CF6822F4006242EA072244
:104ED00022F48062A84201D0B04207D14D6923F488
:104EE000405343EA05138D6943EA05134360C461E7
:104EF0004968C1630262F0BD000001400004014046
:104F000030B5026A22F480520262046A4268C369C0
:104F10000D6823F4E64343EA05238D6824F4005426
:104F200044EA0534084DA84202D0084DA84204D1F5
:104F30004D6922F4804242EA85124260C3614968A9
:104F40000164046230BD0000000001400004014023
:104F500010B5036A046A24F001040462846924F031
:104F6000F00444EA021423F00A020A438461026254
:104F700010BD10B5036A23F0100303628369046A4D
:104F800023F4704343EA023224F0A00343EA011100
:104F90008261016210BD000010B50448FCF7B6FD47
:104FA000BDE810400148FEF73DBD00006816002036
:104FB00010B50448FCF7AAFDBDE810400148FEF713
:104FC00031BD0000A816002010B5806B0021C185FE
:104FD000C184FEF725FD10BD70B5846B2068406963
:104FE00094F83910C0F3C0100025212904D118B15C
:104FF000E584204600F03FF82068406994F83A10B4
:10500000C0F38010222904D118B1E585204600F0B4
:1050100024F8E06B40F01000E0632046FEF700FD4E
:1050200070BD10B50146806B09680968C9050CD4CC
:105030000021C18401684A6922F080024A61006847
:10504000C16841F04001C16010BDFEF783FF10BD93
:1050500010B5806BFEF77FFF10BD0168CA6822F4AF
:105060009072CA6001684A6922F001024A612021F7
:1050700080F83A1070470168CA6822F0C002CA601E
:10508000202180F83910704710B590F83A10222985
:1050900001D0022010BD8168B1F5805F11D0016997
:1050A000002901681FD0496801F07F03816A4A1C0A
:1050B00082620B70C18D491E0904090CC18518D08C
:1050C0002BE00269816A002A0268526805D0D2B2D8
:1050D0000A80816A491C8162ECE7C2F308020A80F7
:1050E000816A891CF7E74A68816A4B1C83620A70EF
:1050F000E0E70168CA6822F02002CA600168CA6855
:1051000022F48072CA6001684A6922F001024A6191
:10511000202180F83A10FEF7DBFE002010BD0000D1
:105120002DE9F041044600680169E26821F440512C
:10513000114301612169A068E26908436169114373
:1051400008432168CA6849F20C639A430243CA6063
:1051500020684169A26921F4407111434161E0690D
:10516000192764253226B0F5004F354A35492068A5
:105170004FF0000806D0884201D0904236D1FDF7AA
:105180008BFF35E0884201D0904202D1FDF784FFC9
:1051900001E0FDF771FF61684A18A0FB070148EBC9
:1051A0000803FBF76DF80146B0FBF5F00201B1FB17
:1051B000F5F06FF01803584301EB800006EBC000D8
:1051C000B0FBF5F000F0F80002EB4002B1FBF5F0A7
:1051D000584301EB800006EBC000B0FBF5F000F097
:1051E0000700216810448860BDE8F081FDF744FFA6
:1051F00061688B0F8A00A0FB0701FBF741F80146AD
:10520000B0FBF5F06FF01802504301EB800006EBA5
:105210000010B0FBF5F000F0F002B1FBF5F002EB8E
:105220000012B1FBF5F06FF01803584301EB80005A
:1052300006EB0010B0FBF5F000F00F00D1E7000026
:10524000001401400010014090F83910212901D0CC
:10525000022070478168B1F5805F016A0BD04A1C5B
:105260000262026809785160C18C491E0904090C68
:10527000C1840ED017E009880268C1F308015160AB
:1052800001690029016A02D0491C0162ECE7891C0E
:10529000FBE70168CA6822F08002CA600068C16842
:1052A00041F04001C16000207047000010B5044883
:1052B000FCF72CFCBDE810400148FEF7B3BB000032
:1052C000E81600200B4882B001680A684A6800921C
:1052D000CA6842F01002CA6001684A6942F040029E
:1052E0004A610168406B4FF4AF73034A091D02B075
:1052F000FCF7C6BBE81600202C0F002010B5054CAB
:1053000001462046E268904720462169BDE81040EA
:10531000084700007C0E002010B50448FCF7F6FB9F
:10532000BDE810400148FEF77DBB000028170020B3
:105330000C4808B501680A684A680092CA6842F0D9
:105340001002CA6001684A6942F040024A611221B3
:1053500000910168044B406BA3F11802091DFCF792
:105360001BFA08BD28170020A210002010B5054C1C
:1053700001462046E268904720462169BDE810407A
:10538000084700008C0000200B4882B001680A68C2
:105390004A680092CA6842F01002CA6001684A690D
:1053A00042F040024A610168406BC823034A091D6C
:1053B00002B0FCF765BB000068160020BA100020A0
:1053C000704700000B4882B001680A684A68009282
:1053D000CA6842F01002CA6001684A6942F040029D
:1053E0004A610168406BC823034A091D02B0FCF7FB
:1053F00047BB0000A81600208211002010B5054C04
:1054000001462046E268904720462169BDE81040E9
:1054100008470000DC020020FEE7000030B50C4623
:10542000050014D0022C12D90A48A11E0288284671
:10543000FCF7BCFC2919C2B211F8023C9A4206D111
:1054400011F8011CB1EB102F01D1012030BD00205B
:1054500030BD0000220A002030B50C4605000ED0F9
:10546000022C0CD9601E81B2FF222846FCF7B4FC46
:10547000291911F8011C814201D1012030BD002001
:1054800030BD03B401984100009850EAC12018BF14
:1054900004204A0D18BF40F0010040F2FF72B2EB49
:1054A000515F08BF40F00200012808BF052002B08C
:1054B00070470907090E002804DB00F1E02080F89E
:1054C0000014704700F00F0000F1E02080F8141D78
:1054D00070470000BFF34F8F05480168054A01F48B
:1054E000E06111430160BFF34F8F00BFFDE7000093
:1054F0000CED00E00400FA0570B5C1482DED020B7B
:105500002DED0E8B82B0119D25F000449FEDBEDB8A
:105510009FEDBFEB84423EDBA4F140511098A1F116
:105520007F6108430FD0BC48844202DC28D1109828
:1055300030B39DED100B02B0BDEC0E8B02B0BDE898
:10554000704000F069BC9DED100B53EC1D2B51EC2D
:10555000100BFAF791FF9DED100B41EC180B53EC7B
:105560001E2B51EC100BFAF787FF53EC182BFAF7B0
:10557000DCFE41EC100B02B0BDEC0E8B02B070BD36
:10558000012000F08DFC02B0BDEC0E8B02B0BDE836
:10559000704000F055BCA1489FEDA18B844256DAC3
:1055A0009DED100BB4F1795F0ADA51EC100BFFF7A7
:1055B00068FF042808BF00F053FC9DED100BDAE7EC
:1055C00053EC102B51EC100BFAF756FF41EC190B72
:1055D00095480621B0EE490AF0EE690A784400F0D9
:1055E0009FFB53EC192B51EC100BFAF745FF41ECE4
:1055F0001A0B8E48B0EE490AF0EE690A042178448D
:1056000000F08EFB53EC192B51EC100BFAF734FF22
:1056100053EC182BFAF789FE41EC100B51EC1A0BE6
:1056200053EC102BFBF79FF8CDE900019DED000B2B
:1056300053EC102B9DED100B51EC100BFAF71CFFE7
:105640009DED101B53EC112BFAF76FFED2E09DED90
:10565000100B51EC100B01F094FC53EC182BFAF7E3
:1056600008FF9FED730BCDE9000153EC102B9DED6E
:10567000000B51EC100BFAF7FFFE41EC190B6E48D2
:105680000621B0EE490AF0EE690A784400F048FBC2
:1056900053EC192B51EC100BFAF7EEFE41EC1B0BFF
:1056A0006648B0EE490AF0EE690A0421784400F039
:1056B00037FB53EC192B51EC100BFAF7DDFE53ECD2
:1056C000182BFAF732FE41EC1C0B51EC190B05F0CC
:1056D00081FB41EC180B5A489FED5BABA04222DCEA
:1056E00053EC1C2B51EC1B0BFBF73DF8CDE90001F3
:1056F0009DED000B51EC180B53EC102BFAF7BCFE90
:1057000053EC182BFAF711FE53EC1A2BFAF7B4FEF0
:1057100053EC1D2BFAF7AAFE53EC1E2BFAF7A9FE49
:1057200041EC100B5FE08DED008B002000909DEDB3
:10573000000B51EC180B53EC102BFAF7F6FD9DED16
:10574000000B41EC1E0B53EC102B51EC100BFAF735
:1057500093FE53EC192BFAF78CFE53EC1E2BFBF740
:1057600002F841EC190B53EC1C2B51EC1B0BFAF714
:10577000FAFF41EC1B0B53EC1A2B51EC190BFAF707
:105780007BFE53EC1D2BFAF774FE41EC190B53EC26
:105790001A2B51EC180BFAF76FFE53EC1B2BFAF790
:1057A0006BFE53EC192BFAF761FE9DED000B41ECFB
:1057B000180B53EC1A2B51EC100BFAF75DFE9FED12
:1057C000249B53EC192BFAF754FE41EC100B51ECCF
:1057D000180B53EC102BFAF749FE53EC192BFAF780
:1057E00048FE41EC100B002D3FF7C5AE51EC100BFD
:1057F00081F0004141EC100BBDE60000000000000C
:105800000000F03F00000000075C143326A6913C26
:10581000182D4454FB21F93F0000F07F0000E03FC9
:10582000000000000000F03F2886000036860000DF
:10583000000000000000E03F7A850000888500003D
:105840003333EF3F00000000000000000000004084
:10585000182D4454FB21E93F70B59B482DED020BF8
:105860002DED068B079D25F00044A04218DC9748DB
:10587000844202DC0AD1069840B19DED060BBDECD6
:10588000068B02B0BDE8704000F0C6BA002DCCBF58
:105890009FED8F0B9FED900BBDEC068B02B070BDA2
:1058A0008F48A04215DD8F48A042D8BF4FF0FF348B
:1058B00058DD9DED060B51EC100BFFF7E2FD0428BF
:1058C00008BF00F0CDFA9DED060BBDEC068B02B0D3
:1058D00070BD9DED060B51EC100B01F052FBCDE9B4
:1058E000060181489FED828BA0423CDD8248A042A8
:1058F0001FDD00249FED82AB9DED060B53EC1A2BB0
:1059000051EC100BFAF711FD9DED060B41EC190B54
:1059100053EC1A2B51EC100BFAF7AEFD53EC182B8D
:10592000FAF7A4FD53EC192BFAF71DFFCDE9060198
:1059300049E09DED060B012453EC182B51EC100BA4
:10594000FAF7F3FC9DED060B41EC190B53EC182B09
:1059500051EC100BFAF78AFD53EC192BFAF703FF01
:10596000CDE906012FE06848A0421FDD02249FED2B
:10597000689B9DED060B53EC192B51EC100BFAF7BD
:105980007BFD53EC182BFAF7D0FC9DED060B41EC98
:10599000180B53EC192B51EC100BFAF767FD53EC75
:1059A000182BFAF7E0FECDE906010CE09DED060BA1
:1059B000032453EC102B9FED580B51EC100BFAF70E
:1059C000D2FECDE906019DED060B53EC102B51ECF8
:1059D000100BFAF751FD41EC180B53EC182BFAF7AA
:1059E0004BFD41EC190B4E480621B0EE490AF0EE92
:1059F000690A784400F094F953EC182B51EC100B21
:105A0000FAF73AFD41EC180B4648B0EE490AF0EEC1
:105A1000690A0521784400F083F953EC192B51EC05
:105A2000100BFAF729FD41EC100B51EC180B53EC5D
:105A3000102B002C0EDAFAF778FC9DED061B53ECC8
:105A4000112BFAF719FD9DED061B53EC112BFAF7FC
:105A500010FD35E0FAF769FC9DED061B53EC112BA8
:105A6000FAF70AFD41EC100B2F48784400EBC40014
:105A700090ED001B51EC100B53EC112BFAF7F6FCD8
:105A80009DED061B53EC112BFAF7F0FC41EC100BCB
:105A90002648784400EBC40090ED001B51EC100B3D
:105AA00053EC112BFAF7E5FC41EC100B002DA2BFD3
:105AB000BDEC068B02B070BD51EC100B81F00041C3
:105AC00041EC100B01E70000000010440000F07FE3
:105AD000182D4454FB21F93F182D4454FB21F9BFE4
