:020000040800F2
:1000000078460020E90200086B110008E71000089C
:100010006911000845050008651600080000000089
:10002000000000000000000000000000290200089D
:10003000470500080000000085020008C5140008FC
:100040000303000803030008030300080303000878
:100050000303000803030008030300080303000868
:100060000303000803030008030300080303000858
:100070000303000803030008030300080303000848
:100080000303000803030008030300080303000838
:100090000303000803030008030300080303000828
:1000A0000303000891150008030300080303000878
:1000B0000303000803030008030300080303000808
:1000C00003030008030300080303000803030008F8
:1000D00003030008030300080303000803030008E8
:1000E00003030008030300080303000803030008D8
:1000F00003030008030300080303000803030008C8
:1001000003030008030300080303000803030008B7
:1001100003030008030300080303000803030008A7
:100120000303000803030008030300080303000897
:100130000303000803030008030300080303000887
:100140000303000803030008030300080303000877
:100150000303000803030008030300080303000867
:100160000303000803030008030300080303000857
:100170000303000803030008030300080000000055
:10018000030300080303000800F002F800F03CF845
:100190000AA090E8000C82448344AAF10107DA45E2
:1001A00001D100F031F8AFF2090EBAE80F0013F0F8
:1001B000010F18BFFB1A43F001031847B8200000D5
:1001C000D8200000103A24BF78C878C1FAD8520766
:1001D00024BF30C830C144BF04680C6070470000C1
:1001E0000023002400250026103A28BF78C1FBD840
:1001F000520728BF30C148BF0B6070471FB501F0E0
:10020000E1FF1FBD10B510BD00F067F91146FFF703
:10021000F5FF01F039FA00F085F903B4FFF7F2FFBA
:1002200003BC00F089F900002C4B19680868B0E89D
:10023000F04F80F30988BFF36F8F4FF0000080F319
:10024000118870470000000008480068006880F3CB
:1002500008884FF0000080F3148862B661B6BFF3DF
:100260004F8FBFF36F8F00DF00BF00BF08ED00E0CE
:10027000DFF80C00016841F470010160704700BFB5
:1002800088ED00E0EFF30980BFF36F8F134B1A681E
:100290001EF0100F08BF20ED108A20E9F04F10600B
:1002A00009B44FF0500080F31188BFF34F8FBFF3B4
:1002B0006F8F01F0BFFD4FF0000080F3118809BC83
:1002C00019680868B0E8F04F1EF0100F08BFB0ECD6
:1002D000108A80F30988BFF36F8F704720000020D9
:1002E000EFF3058070470000094880470948004740
:1002F000FEE7FEE7FEE7FEE7FEE7FEE7FEE7FEE7D6
:10030000FEE7FEE704480549054A064B7047000032
:1003100081150008890100087840002078460020F7
:10032000784200207842002053EA020C00F06980F5
:100330002DE9F04B4FF00006002B1FBFB3FA83F5F9
:1003400003FA05F424FA05F65E4012BF1643B2FA2A
:1003500082F502FA05F4C5F120051EBF22FA05FC5C
:1003600044EA0C04203556EA044C4FEA144418BF02
:10037000641C4FF000084FF00009904271EB030C31
:1003800039D3002919BFB1FA81F701FA07F6B0FA9B
:1003900080F700FA07F6C7F120071EBF20FA07FC16
:1003A00046EA0C062037B6FBF4FCA7EB0507103F26
:1003B00007F01F0BCBF120060CFA0BFB2CFA06F60C
:1003C00044BFB3460026202FA4BF5E464FF0000B6B
:1003D0005BEA060C08BF4FF0010B19EB0B09ABFBF6
:1003E000027C48EB0608C01B06FB02CC0BFB03CCCF
:1003F00071EB0C01C1E70B46024641464846BDE899
:10040000F08B13B54FF000004FF00001AFF3008008
:10041000BDE81C40704710B5203AC0F00B80B1E831
:100420001850203AA0E81850B1E81850A0E8185029
:10043000BFF4F5AF5FEA027C24BFB1E81850A0E832
:10044000185044BF18C918C0BDE810405FEA827C4C
:1004500024BF51F8043B40F8043B08BF7047D20763
:1004600028BF31F8023B48BF11F8012B28BF20F804
:10047000023B48BF00F8012B70474FF0000200B567
:10048000134694469646203922BFA0E80C50A0E8B7
:100490000C50B1F12001BFF4F7AF090728BFA0E865
:1004A0000C5048BF0CC05DF804EB890028BF40F831
:1004B000042B08BF704748BF20F8022B11F0804F73
:1004C00018BF00F8012B7047704770477047000055
:1004D000004870471840002070477546FFF7F8FF46
:1004E000AE4605006946534620F00700854618B021
:1004F00020B5FFF707FFBDE820404FF000064FF0A2
:1005000000074FF000084FF0000B21F00701AC4648
:10051000ACE8C009ACE8C009ACE8C009ACE8C00967
:100520008D46704710B50446AFF300802046BDE805
:100530001040FFF772BE000001491820ABBEFEE775
:1005400026000200FEE7704770B5044600F00CF983
:100550000546601C02D004480078044400F004F909
:10056000401BA042FAD370BD100000202DE9F84FC7
:10057000DFF8BCA10022012503264FF00F090AF184
:10058000040BAAF1040E00BF0B6805FA02F4234025
:10059000A34270D10F7907F00307012F01D0022F7A
:1005A00016D187684FEA420806FA08FC27EA0C07CA
:1005B000D1F80CC00CFA08FC4CEA070CC0F808C0D3
:1005C0004768A7430C79C4F3001494403C4344604B
:1005D0000C79E443A4070AD0C4684FEA420C06FA37
:1005E0000CF7BC438F6807FA0CF72743C7600C79F8
:1005F00004F00304022C12D1D40800EB840CDCF8C4
:1006000020405707FF0E09FA07F824EA0804D1F83A
:10061000108008FA07F848EA0408CCF8208004683B
:100620004FEA420C06FA0CF7BC430F7907F00307B8
:1006300007FA0CF7274307604C6814F4403F70D06A
:100640003C4C276847F480472760246822F0030762
:1006500004F480440094384C07EB040CDCF80848A0
:1006600097074FEA177809FA08F7BC43334FB842A7
:1006700002D1002724E054E0314FB84201D10127D4
:100680001EE0304FB84201D1022719E02E4FB84288
:1006900001D1032714E02D4FB84201D104270FE008
:1006A0002B4FB84201D105270AE02A4FB84201D1A9
:1006B000062705E0284FB84201D1072700E00827A8
:1006C00007FA08F72743CCF80878DAF800405746CD
:1006D000D1F804C09C435FEACC2C00D51C433C609D
:1006E000DBF800405F46D1F804C09C435FEA8C2CE5
:1006F00000D51C433C60DEF800407746D1F804C0CA
:100700009C435FEA8C3C00D51C433C60084F083F8B
:100710003C68D1F804C09C435FEACC3C00D51C4344
:100720003C60521C102AFFF42FAFBDE8F88F000088
:10073000083C0140443802400030014000000240C3
:100740000004024000080240000C02400010024079
:100750000014024000180240001C02400AB18161EE
:1007600070470904FBE700000148806870470000FB
:100770001000002009480168094A127811440160FC
:100780004FF08041496A006800EB4002C2EBC010A4
:1007900001EBC0000349086070470000180000200A
:1007A00010000020880000200B4810B5016841F4BB
:1007B00000710160016841F480610160016841F4E9
:1007C00080710160032000F099F80F2000F006F816
:1007D00000F04AF8002010BD003C024030B505464C
:1007E0001C4887B00024016841F0010101600068E5
:1007F00006A900F00100009001A800F02BF900F01C
:1008000049F91549154AB0FBF1F11548491E026036
:1008100040F2E732C0E90324C0E90114846100F02A
:1008200033FB040012D10E4800F05CFB04000DD134
:10083000192000F035F8102D07D200222946192082
:1008400000F03CF80748056000E0012407B02046AE
:1008500030BD00004438024040420F00000001401B
:10086000E0020020140000200C4882B0016841F42E
:1008700080410160006800F4804000900748001F3C
:10088000016841F0805101600068002200F0805052
:1008900000900F21901E02B000F010B844380240C2
:1008A000002809DB00F01F0201219140400980006F
:1008B00000F1E020C0F8001170470000F0B40E4BCA
:1008C0001B680C46C3F30223C3F10705042D00D9AE
:1008D0000425191D072901D2002300E0DB1E012693
:1008E00006FA05F1491E214099409E40761E1640A9
:1008F0003143F0BC00F0B7BE0CED00E0064900F05B
:10090000070208684FF6FF03184040EA0220034A36
:1009100010430860704700000CED00E00000FA058D
:100920002DE9F0470E46050065D0DFF81481D8F8B0
:100930000000F7B200F00700B04207D288F800705C
:10094000D8F8000000F00700B04254D128683D4CB0
:10095000810712D5400703D5206840F4E05020609D
:100960002878000703D5206840F4604020602068A4
:10097000A96820F0F000084320602878C0072DD037
:10098000304968680839012812D0022813D003289A
:1009900011D00968890700292DDA216821F00301A7
:1009A00001432160FFF7E0FE814641F2883A0EE004
:1009B00009688903EFE709688901ECE7FFF7D4FECE
:1009C000A0EB0901514502D90320BDE8F08720685A
:1009D000696800F00C00B0EB810FEFD1D8F800107F
:1009E000404601F00701B14207D90770006800F0E6
:1009F0000700B04201D00120E7E72878400705D57D
:100A00002068E96820F4E050084320602878000757
:100A100006D52068296920F4604040EAC1002060C2
:100A200000F048F82168084AC1F30311515CC8403E
:100A30000649086006480068FFF7D0FE0020C4E7BA
:100A4000003C024008380240402200081C00002000
:100A5000140000200F2202600C4A136803F0030305
:100A60004360136803F0F0038360136803F4E053FA
:100A7000C36012684FF4E05303EAD20202610448F3
:100A8000006800F007000860704700000838024066
:100A9000003C02400448054900680968044AC1F363
:100AA0004231515CC84070471C00002008380240A9
:100AB00050220008154810B5006810F00C021448C8
:100AC00013D01449042A0FD0082A0ED10F4C241F2A
:100AD0002268236802F03F025B0207D52068C0F35A
:100AE0008810A0FB010106E0084610BD2168C1F393
:100AF0008811A1FB00010023FFF716FC2168C1F358
:100B00000141491C4900B0FBF1F010BD083802401A
:100B10000024F40040787D012DE9F84F04006ED0E8
:100B20002078DFF84C93C007A9F104054AD009F1F9
:100B300004000168C1F38101012908D00068C0F3F5
:100B4000810002280AD1D9F80000400206D52868A1
:100B5000800337D560680028E1D033E06068B0F5E5
:100B6000803F10D0B0F5A02F286810D020F480303E
:100B70002860286820F4802028606068A8B1FFF70A
:100B8000F3FD06460DE0286840F48030F4E740F4B9
:100B900080202860F7E700BFFFF7E6FD801B642890
:100BA00073D828688003F7D50CE0FFF7DDFD064613
:100BB00005E000BFFFF7D8FD801B6428F0D8286847
:100BC0008003F7D42078DFF8AC8280074FF0000A6A
:100BD0003ED5A748001D016811F00C0F08D0006831
:100BE000C0F3810002280BD1D9F80000400207D4DD
:100BF0002868800716D5E068012800D112E033E1AB
:100C0000E068B8B10120C8F80000FFF7ADFD064666
:100C100005E000BFFFF7A8FD801B0228C0D82868A8
:100C20008007F7D52868216920F0F80040EAC10064
:100C300028600DE0C8F800A0FFF796FD064604E026
:100C4000FFF792FD801B02281FD828688007F7D481
:100C50002078000722D5864F87486169703771B1C7
:100C600001210160FFF780FD064604E0FFF77CFDEF
:100C7000801B022809D838688007F7D50EE0C0F835
:100C800000A0FFF771FD064605E082E0FFF76CFD6E
:100C9000801B02287DD838688007F7D42078400769
:100CA00068D5DFF8CCB100270BF13C0BDBF8000076
:100CB000C0000BD4DBF8001041F08051CBF80010DD
:100CC000DBF80000012700F0805000906B4E306888
:100CD000C00510D4306840F480703060FFF744FDE8
:100CE000009005E0FFF740FD0099401A022850D817
:100CF0003068C005F6D55E4EA0686C3601280FD06E
:100D00000528306810D020F001003060306820F0F5
:100D100004003060A068B8B1FFF726FD00900FE036
:100D2000306840F00100F4E740F004003060F7E77D
:100D3000FFF71AFD0099411A41F28830814266D8C6
:100D400030688007F4D50EE0FFF70EFD009007E055
:100D5000FFF70AFD0099411A41F28830814256D8C6
:100D600030688007F4D42FB1DBF8001021F08051F7
:100D7000CBF80010A069C8B33D49091D0968C1F34B
:100D8000810102294AD00228504607D0C8F86000E5
:100D900000E03CE0FFF7E8FC04463BE04746C8F8CB
:100DA0006000FFF7E1FC064605E000BFFFF7DCFC52
:100DB000801B02282BD828688001F7D4D4E90701CA
:100DC0000843A16A2E4A490802EB0141626A41EADE
:100DD0008211084394F82C1040EA0161C9F8001010
:100DE00001203866FFF7C0FC044606E03EE000BF85
:100DF000FFF7BAFC001B022809D828688001F7D544
:100E000034E000BFFFF7B0FC001B022802D903202A
:100E1000BDE8F88F28688001F4D427E00128F7D0D6
:100E2000D9F80000E26900F4800191421CD1226AE5
:100E300000F03F01914217D147F6C071626A01404C
:100E4000B1EB821F10D1A26A4FF0FF3300F44031A2
:100E500003EB5202B1EB024F06D194F82C1000F0D4
:100E60007060B0EB016F01D00120D1E70020CFE727
:100E70000438024000004742800E474200700040A4
:100E80000000FFFF7047704710B5040003D094F8CE
:100E90003D0010B107E0012010BD002084F83C00A7
:100EA000204600F01EF8022084F83D00211D206835
:100EB00000F074FB012084F8460084F83E0084F8BA
:100EC0003F0084F8400084F8410084F8420084F830
:100ED000430084F8440084F8450084F83D00002075
:100EE00010BD704790F83D10012901D001207047D6
:100EF000022180F83D100168CA6842F00102CA6010
:100F000000681149884214D0B0F1804F11D00F49C8
:100F100088420ED00E4988420BD00E49884208D034
:100F20000D49884205D00D49884202D00C498842BB
:100F300004D1816801F00701062903D0016841F05E
:100F400001010160002070470000014000040040E2
:100F500000080040000C0040000401400040014037
:100F600000180040704770B50446006801694FF0F2
:100F70000005C943890715D4C168C943890711D43D
:100F8000E91E0161012020772068806980072046E2
:100F900002D0FFF7E7FF04E000F098F8204600F0E9
:100FA00096F8257720680169C943490717D4C168B5
:100FB000C943490713D46FF004010161022020776F
:100FC0002068806910F4407F204602D0FFF7CAFFF6
:100FD00004E000F07BF8204600F079F825772068DF
:100FE0000169C943090716D4C168C943090712D466
:100FF0006FF008010161042020772068C069800734
:10100000204602D0FFF7AEFF04E000F05FF8204674
:1010100000F05DF8257720680169C943C90617D437
:10102000C168C943C90613D46FF0100101610820DB
:1010300020772068C06910F4407F204602D0FFF777
:1010400091FF04E000F042F8204600F040F82577D8
:1010500020680169C943C90708D1C168C943C907E4
:1010600004D1891E0161204600F032F82068016930
:10107000C943090609D4C168C943090605D46FF0FC
:10108000800101612046FFF7FDFE20680169C94328
:10109000490609D4C168C943490605D46FF0400127
:1010A0000161204600F01EF820680169C9438906E5
:1010B0000BD4C168C943890607D46FF020010161D0
:1010C0002046BDE87040FFF7DEBE70BD7047704738
:1010D00000680349884201D1FFF74CBB704700000C
:1010E000000001407047FEE770B586B014216846E5
:1010F000FFF7C3F91A480024016841F004010160B8
:10110000016801F004010591016841F0800101606E
:10111000016801F080010591016841F00101016061
:10112000016801F001010591016841F002010160CF
:1011300000680C4E00F002004FF4D84505900022E4
:1011400029463046FFF70AFB01200095CDE901044E
:10115000694630460394FFF709FA06B070BD0000F7
:101160003038024000080240FEE7FEE770B5002478
:101170000021204600F006F90025002000F024F9A7
:101180006D1CEDB2802DF8D3641CE4B2082CEFD3B3
:1011900070BD0000104800B5026887B0002142F021
:1011A00001020260026802F001020592026842F048
:1011B00010020260006800F010000590C02000904E
:1011C0001120CDE901010220039069460348FFF791
:1011D000CDF907B000BD00003038024000000240E9
:1011E0002DE9F0410024194E0746802525FA04F226
:1011F0003A4040213046FFF7B1FA012000F0A0FA52
:10120000012280213046FFF7A9FA012000F098FA68
:10121000002280213046FFF7A1FA012000F090FA69
:10122000641CE4B2082CE1D3012280213046FFF790
:1012300095FA012000F084FA002280213046FFF761
:101240008DFABDE8F041012000F07ABA00000240BA
:1012500010B5114C012240212046FFF77FFA0120F2
:1012600000F06EFA012280212046FFF777FA012074
:1012700000F066FA002240212046FFF76FFA0120B5
:1012800000F05EFA002280212046FFF767FABDE8F1
:101290001040012000F054BA0000024010B50D4C7F
:1012A000002240212046FFF759FA012000F048FAB9
:1012B000012280212046FFF751FA012000F040FA78
:1012C000012240212046FFF749FABDE810400120E5
:1012D00000F036BA0000024010B500204FF47A72D8
:1012E0000021491C9142FCD3401C9042F8D3FFF7E7
:1012F00051FFAE2000F057F8D52000F054F88020C0
:1013000000F051F8A82000F04EF83F2000F04BF814
:10131000D32000F048F8002000F045F8402000F00D
:1013200042F8A12000F03FF8C82000F03CF8DA2095
:1013300000F039F8122000F036F8812000F033F880
:10134000CF2000F030F8D92000F02DF8F12000F087
:101350002AF8DB2000F027F8302000F024F8A42041
:1013600000F021F8A62000F01EF88D2000F01BF8F8
:10137000142000F018F8AF2000F015F8BDE8104078
:10138000FFF7F4BE10B50C4640F0B00000F00BF8CB
:10139000102040EA141000F006F804F00F00BDE839
:1013A0001040AFF3008010B50446FFF751FF7820DE
:1013B000FFF716FF0020FFF713FF2046FFF710FF8F
:1013C000BDE81040FFF76ABF10B50446FFF740FFC5
:1013D0007820FFF705FF4020FFF702FF2046FFF7C8
:1013E000FFFEBDE81040FFF759BF00000B4D4FF462
:1013F00000544FF4FA7640F2DC570022214628468A
:10140000FFF7ACF9304600F09BF90122214628464F
:10141000FFF7A4F9384600F093F9EEE70008024020
:101420004FF47A770B4C4FF400667D10384600F08D
:1014300087F9002231462046FFF790F9284600F050
:101440007FF9012231462046FFF788F9284600F04F
:1014500077F9EBE7000802404FF4FA760B4D4FF4B2
:1014600080447700304600F06BF900222146284680
:10147000FFF774F9304600F063F90122214628464F
:10148000FFF76CF9384600F05BF9EBE70008024023
:101490000B4D40F2DC564FF480644FF4FA7730463F
:1014A00000F04EF9002221462846FFF757F938464A
:1014B00000F046F9012221462846FFF74FF9EEE7F2
:1014C0000008024010B5502080F31188BFF34F8F01
:1014D000BFF36F8F00F0AEFD18B104494FF080509C
:1014E0000860002080F3118810BD000004ED00E0CA
:1014F00030B593B030216846FEF7BFFF14210CA829
:10150000FEF7BBFF1C480024016841F080510160D8
:10151000006800F0805011901848016841F4804143
:1015200001600068022500F48040119001200390C2
:1015300010200490009506950820CDE9074048202A
:10154000CDE9090504200B906846FFF7E5FA08B1DC
:1015500072B6FEE70F20CDE90C054FF48050CDE9BF
:101560000E4002210CA81094FFF7DAF9002801D0F0
:1015700072B6FEE713B030BD403802400070004044
:101580000248016841F470010160704788ED00E095
:101590000148FFF7E8BC0000E0020020F0B5026857
:1015A000254C264D264E274F274B4FF0804CA0420E
:1015B00009D0604507D0A84205D0B04203D0B84258
:1015C00001D0984204D122F0700E4A6842EA0E021D
:1015D000A0421BD0604519D0A84217D0B04215D008
:1015E000B84213D0984211D0184DA8420ED0184DD1
:1015F000A8420BD0174DA84208D0174DA84205D0DD
:10160000164DA84202D0164DA84203D122F44075CF
:10161000CA682A434D6922F080022A4302608A6820
:10162000C2620A688262A04201D0984201D109696F
:10163000016301214161F0BD000001400004004050
:1016400000080040000C0040000401400040014040
:10165000004401400048014000180040001C0040C8
:1016600000200040FEE70907090E002804DB00F116
:10167000E02080F80014704700F00F0000F1E02037
:1016800080F8141D704700009CB0FFF78DF8FFF73D
:101690002FFFFFF729FDFFF71FFE1C222249684696
:1016A000FEF7B9FE0021684600F056F81F4C1E49AF
:1016B0001C2220601C3107A8FEF7ADFE002107A800
:1016C00000F04AF8184960601C2238310EA8FEF775
:1016D000A2FE00210EA800F03FF81349A0601C22D2
:1016E000543115A8FEF797FE002115A800F034F834
:1016F000E0600F4C012251032046FFF72FF8012232
:1017000091032046FFF72AF80122D1022046FFF775
:1017100025F8012291022046FFF720F800F017F883
:101720000120FEF711FFFBE7D02100080000002098
:101730000008024001460020842900D0C81C7047E0
:1017400010B500B9012000F011FB002010BD10B54C
:1017500000F032FB002010BD7FB50D460446416904
:10176000B0F9080081B1A16971B1FFF7E3FFD4E9D5
:1017700005128DE80700D4E900102B46226900F01D
:101780002EFC039004B070BDFFF7D4FF03A9CDE990
:101790000001208A2B4682B2D4E9001000F0F2FB4F
:1017A000012801D00020EDE70398EBE72DE9F04197
:1017B000184C0F460546E6682068001D00F00EFA3A
:1017C00038B9206890F82C100120884021698143A5
:1017D0002161681C07D137B12168BDE8F0410E488E
:1017E000091D00F03FBA20683544B54245602168C4
:1017F00005D2A06BBDE8F041091D00F01BBA606B7B
:10180000091D00F017FAA06A854200D2A562BDE862
:10181000F081000020000020040400202DE9F041A8
:10182000054600F02BFA2E4CA068401CA0602068F2
:101830002C4F10B1606940B32DE02560A0680128ED
:1018400029D1002606EB860007EB800000F0E4F9C2
:10185000761C072EF6D323488C3000F0DDF92148A2
:10186000A03000F0D9F91F48B43000F0D5F91D4878
:10187000C83000F0D1F91B48DC3000F0CDF9194830
:101880008C3060631430A06305E02068E96AC06AA8
:10189000884200D82560606A401C6062E96A0120C5
:1018A000226988401043206101EB810007EB800032
:1018B000291D00F0D7F900F001FA606900280CD06A
:1018C0002068E96AC06A884207D207494FF0805011
:1018D0000860BFF34F8FBFF36F8FBDE8F08100004A
:1018E000200000202803002004ED00E010B504468D
:1018F00090F8510058B101280CD002280FD0502088
:1019000080F31188BFF34F8FBFF36F8FFEE7206B1B
:1019100000F0E8F92046BDE8104000F0E3B910BD42
:1019200010484FF47051420706D0C01D0D4920F0F9
:101930000700411AC1F570510B4A00230144C2E966
:1019400000030839183A21F0070111604B600B6061
:101950000B1AC0E9001393604FF0004053605061D0
:101960007047000018040020740000200C4E0D4C3D
:1019700012E000BF00F082F9F068C568281D00F091
:101980002DF9A068401EA0606068401E606000F0F5
:1019900095F92846FFF7AAFF60680028FCD0E9E720
:1019A000F0030020200000202DE9F0479A46DDE9F1
:1019B000098481466FF00303206B03EB820210441D
:1019C000089E20F00707780707D0502080F3118881
:1019D000BFF34F8FBFF36F8FFEE7002561B100208B
:1019E00023180A5C83F834200A5C12B1401C1028CA
:1019F000F6D384F8435001E084F83450072E00D326
:101A00000626E662C4E91165201D00F010F904F114
:101A1000180000F00CF92461C6F107006462A061AF
:101A2000E56484F8505052464946384600F0C0F804
:101A30002060B8F1000F01D0C8F80040BDE8F08781
:101A400030B5114900E011460A688242FBD34B6869
:101A50005C18844203D140681844486008464368D3
:101A60001C18944209D1084C183C2468A24209D0A1
:101A700052681A4442600A6812680260814200D0CB
:101A8000086030BD0460F9E7740000200648416B2F
:101A9000096829B1416BC968C968496881627047A2
:101AA0004FF0FF31FAE700002000002008484068AE
:101AB000401C4FF0500080F3118804D0BFF34F8FCB
:101AC000BFF36F8FFEE7BFF34F8FBFF36F8FFEE75C
:101AD0007C0000202DE9F0410546002700F0A2F926
:101AE000324E306808B9FFF71BFF706905424ED1CE
:101AF000C5B3083568070ED005F00700C0F108002F
:101B00000544680707D0502080F31188BFF34F8F3A
:101B1000BFF36F8FFEE72DB37068854237D8234837
:101B2000183001460C6801E020460C466168A94265
:101B300002D221680029F7D131688C4227D007688A
:101B40002168016060680837411B10290FD96019AE
:101B5000420708D0502080F31188BFF34F8FBFF3A6
:101B60006F8FFEE713E041606560FFF769FF616812
:101B70007068401A7060B268904200D2B0607069BC
:101B800001430020C4E90001F068401CF06000F04F
:101B9000B7FA780707D0502080F31188BFF34F8F32
:101BA000BFF36F8FFEE73846BDE8F0815C00002090
:101BB00010B5031F4FF080741C601B1F21F0010142
:101BC0001960191F044B0B6014390A60091F6FF06C
:101BD000020244380A6010BDAD1A0008D0E9013293
:101BE00001699A60D0E901235A604A68824201D1B2
:101BF00082684A60002202610868401E0860086826
:101C000070470000034B036003F15400086080201C
:101C1000106070478C00002000F108014FF0FF3287
:101C2000C0E90112C160016100210160704700211B
:101C30000161704730B50B685A1C02D000F10802F0
:101C400002E0026904E02246546825689D42FAD900
:101C500053684B6099608A60516008610168491C53
:101C6000016030BD42684A6093688B609368596038
:101C7000916008610168491C01607047502080F341
:101C80001188BFF34F8FBFF36F8F0A494868401C1C
:101C9000486001280CD10848006810F0FF0F07D0F9
:101CA000502080F31188BFF34F8FBFF36F8FFEE793
:101CB000704700007C00002004ED00E008494868FF
:101CC00028B1401E486001D180F311887047502030
:101CD00080F31188BFF34F8FBFF36F8FFEE70000D3
:101CE0007C00002070B500282AD0164DA0F1080411
:101CF00060686969084207D1502080F31188BFF3FA
:101D00004F8FBFF36F8FFEE722683AB1502080F308
:101D10001188BFF34F8FBFF36F8FFEE7884360607A
:101D200000F080F860686968084468602046FFF742
:101D300087FE2869401C2861BDE8704000F0E0B9CA
:101D400070BD00005C0000204FF0E0200021016128
:101D5000816105494FF47A720968B1FBF2F1491EBD
:101D600041610721016170471C00002010B502008D
:101D700014D00F48006B38B1502080F31188BFF3A6
:101D80004F8FBFF36F8FFEE700F04CF80021104635
:101D9000FFF70CFD00F0B4F9002807D105494FF01A
:101DA00080500860BFF34F8FBFF36F8F10BD0000EE
:101DB0002000002004ED00E010B586B0002403945C
:101DC00005AA04A903A80494FFF71CFFDDE9030199
:101DD0000094CDE9011000230EA11048059A00F0EF
:101DE000FEF80F490028C86211D0502080F31188F6
:101DF000BFF34F8FBFF36F8F4FF0FF30886201202A
:101E00004861CC6006B0BDE8104000F041B806B0B3
:101E100010BD000049444C45000000006D19000849
:101E2000200000200248016B491C0163704700003C
:101E3000200000201448016B11B10121C1617047DD
:101E40000021C1610169B1FA81F1C1F11F0101EB0A
:101E500081020E4951F822306BB101EB820101F190
:101E600008034A6852684A609A4201D152684A603F
:101E7000D16801607047502080F31188BFF34F8F05
:101E8000BFF36F8FFEE70000200000202803002032
:101E90001CB537480168374A914207D1502080F37A
:101EA0001188BFF34F8FBFF36F8FFEE70068314992
:101EB000491E884207D1502080F31188BFF34F8F0D
:101EC000BFF36F8FFEE72C4908780190FF20087060
:101ED00008788DF800009DF800009DF8002000F0C3
:101EE000F000904207D0502080F31188BFF34F8F4D
:101EF000BFF36F8FFEE79DF80000204C00F050000C
:101F000020700720A06005E09DF8002052008DF8A9
:101F10000020401E9DF800201206F5D4A060032882
:101F200007D0502080F31188BFF34F8FBFF36F8F1E
:101F3000FEE74FF44070A060019808700C48203014
:101F4000016841F470010160016841F07041016075
:101F5000FFF7FAFE00206060FEF78AF90848016882
:101F600041F040410160FEF76FF900201CBD000008
:101F700000ED00E071C20F4100E400E07C000020B1
:101F800034EF00E02DE9FF5F8346DDE90E879946D7
:101F900016468A469000FFF79DFD05001CD0542090
:101FA000FFF798FD040014D00020256384F8510049
:101FB000CDE90240CDE900874B46324651465846AE
:101FC000FFF7F2FC2046FFF729FC012004B0BDE832
:101FD000F09F2846FFF786FE4FF0FF30F6E7F0B59A
:101FE00085B0DDE90B640A9DA6B1DCB154270097EA
:101FF0002663022684F85160002604AFCDE902462C
:10200000CDE90057FFF7D0FC2046FFF707FC049806
:1020100005B0F0BD502080F31188BFF34F8FBFF3A0
:102020006F8FFEE7502080F31188BFF34F8FBFF30F
:102030006F8FFEE72DE9F0412F4C0026206B28B171
:10204000A069401CA0613046BDE8F081E5686D1CC8
:10205000E56013D1606B006838B1502080F31188BF
:10206000BFF34F8FBFF36F8FFEE7606BA16B6163B0
:10207000A063206A401C2062FFF708FDA06ADFF819
:102080007C80854209D3606B0068A0B1606BC0683A
:10209000C7687868854211D2A0622068C06A00EBE8
:1020A000800158F82100012800D90126E0690028A4
:1020B000C9D00126C7E74FF0FF30EDE7381DFFF725
:1020C0008DFDB86A18B107F11800FFF787FDF96AAE
:1020D0000120226988401043206101EB810108EB57
:1020E0008100391DFFF7BEFDF86A2168C96A884280
:1020F000C9D30126C7E700002000002028030020E4
:102100002DE9F0472C4D00242746286B38B1FFF706
:10211000B5FD286B401E2863286B40B146E0502077
:1021200080F31188BFF34F8FBFF36F8FFEE7A9686D
:10213000224E0120D1B3A6F1B40980463068E8B13F
:10214000F068C46804F11800FFF748FD201DFFF790
:1021500045FDE06A2A6908FA00F11143296100EBA4
:10216000800109EB8100211DFFF77CFDE06A2968F1
:10217000C96A8842E2D3C5F81C80DFE70CB1FFF7DB
:1021800085FCAC6944B14646FFF754FF00B1EE61EF
:10219000641EF9D10020A861E86938B10849012717
:1021A00038070860BFF34F8FBFF36F8FFFF786FDCF
:1021B0003846BDE8F087000020000020DC03002046
:1021C00004ED00E04FF04070E1EE100A70470000AF
:1021D00064220008ED130008000000000000000069
:1021E0008000000000000000000000005C220008E9
:1021F00059140008FFFF00000000000080000000EC
:1022000000000000000000006C22000821140008FB
:10221000FEFF000000000000800000000000000041
:10222000000000005822000891140008FDFF000083
:10223000000000008000000000000000000000001E
:102240000000000000000000010203040607080966
:102250000000000001020304526564004F72616EC9
:1022600067650000426C7565000000004772656597
:102270006E00000094220008000000208C00000086
:10228000C4010008202300088C000020EC45000059
:10229000E001000800000000000000000000000055
:1022A000000000000100000010000000000000001D
:1022B0000024F40000000000000000000000000006
:1022C000000000000000000000000000000000000E
:1022D00000000000000000000000000000000000FE
:1022E00000000000000000000000000000000000EE
:1022F00000000000000000000000000000000000DE
:1023000000000000000000000000000000000000CD
:1023100000000000AAAAAAAA000000000000000015
:040000050800018965
:00000001FF
